{
  "contractName": "BusinessOwnerMock",
  "abi": [
    {
      "constant": true,
      "inputs": [
        {
          "name": "_businessOwner",
          "type": "address"
        }
      ],
      "name": "isConfirmed",
      "outputs": [
        {
          "name": "",
          "type": "uint256"
        }
      ],
      "payable": false,
      "stateMutability": "view",
      "type": "function"
    },
    {
      "constant": true,
      "inputs": [
        {
          "name": "_user",
          "type": "address"
        }
      ],
      "name": "login",
      "outputs": [
        {
          "name": "",
          "type": "bytes32"
        }
      ],
      "payable": false,
      "stateMutability": "view",
      "type": "function"
    },
    {
      "constant": false,
      "inputs": [
        {
          "name": "_businessOwner",
          "type": "address"
        }
      ],
      "name": "removeBusiness",
      "outputs": [],
      "payable": false,
      "stateMutability": "nonpayable",
      "type": "function"
    },
    {
      "constant": true,
      "inputs": [],
      "name": "getAllBusinessOwners",
      "outputs": [
        {
          "name": "",
          "type": "address[]"
        }
      ],
      "payable": false,
      "stateMutability": "view",
      "type": "function"
    },
    {
      "constant": false,
      "inputs": [
        {
          "name": "_userManager",
          "type": "address"
        }
      ],
      "name": "initialize",
      "outputs": [],
      "payable": false,
      "stateMutability": "nonpayable",
      "type": "function"
    },
    {
      "constant": false,
      "inputs": [
        {
          "name": "_hash",
          "type": "bytes32"
        },
        {
          "name": "_user",
          "type": "address"
        }
      ],
      "name": "registerBusinessOwner",
      "outputs": [],
      "payable": false,
      "stateMutability": "nonpayable",
      "type": "function"
    },
    {
      "constant": false,
      "inputs": [
        {
          "name": "_businessOwner",
          "type": "address"
        }
      ],
      "name": "confirmBusiness",
      "outputs": [],
      "payable": false,
      "stateMutability": "nonpayable",
      "type": "function"
    },
    {
      "constant": false,
      "inputs": [
        {
          "name": "_userManager",
          "type": "address"
        }
      ],
      "name": "initializeMock",
      "outputs": [],
      "payable": false,
      "stateMutability": "nonpayable",
      "type": "function"
    }
  ],
  "bytecode": "0x608060405234801561001057600080fd5b50610e4d806100206000396000f3fe60806040526004361061008e576000357c0100000000000000000000000000000000000000000000000000000000900463ffffffff1680631892970b1461009357806318e4ac35146100e457806335a6861a14610149578063419b96fa146101ae578063bb4a7f18146101ff578063c4d66de81461026b578063f1115024146102bc578063f3cb4aae14610317575b600080fd5b34801561009f57600080fd5b506100e2600480360360208110156100b657600080fd5b81019080803573ffffffffffffffffffffffffffffffffffffffff169060200190929190505050610368565b005b3480156100f057600080fd5b506101336004803603602081101561010757600080fd5b81019080803573ffffffffffffffffffffffffffffffffffffffff169060200190929190505050610374565b6040518082815260200191505060405180910390f35b34801561015557600080fd5b506101986004803603602081101561016c57600080fd5b81019080803573ffffffffffffffffffffffffffffffffffffffff169060200190929190505050610482565b6040518082815260200191505060405180910390f35b3480156101ba57600080fd5b506101fd600480360360208110156101d157600080fd5b81019080803573ffffffffffffffffffffffffffffffffffffffff169060200190929190505050610590565b005b34801561020b57600080fd5b50610214610867565b6040518080602001828103825283818151815260200191508051906020019060200280838360005b8381101561025757808201518184015260208101905061023c565b505050509050019250505060405180910390f35b34801561027757600080fd5b506102ba6004803603602081101561028e57600080fd5b81019080803573ffffffffffffffffffffffffffffffffffffffff1690602001909291905050506109ba565b005b3480156102c857600080fd5b50610315600480360360408110156102df57600080fd5b8101908080359060200190929190803573ffffffffffffffffffffffffffffffffffffffff169060200190929190505050610b40565b005b34801561032357600080fd5b506103666004803603602081101561033a57600080fd5b81019080803573ffffffffffffffffffffffffffffffffffffffff169060200190929190505050610cb3565b005b610371816109ba565b50565b6000603660009054906101000a900473ffffffffffffffffffffffffffffffffffffffff1673ffffffffffffffffffffffffffffffffffffffff163373ffffffffffffffffffffffffffffffffffffffff1614151561043b576040517f08c379a00000000000000000000000000000000000000000000000000000000081526004018080602001828103825260108152602001807f4f6e6c7920757365724d616e616765720000000000000000000000000000000081525060200191505060405180910390fd5b603560008373ffffffffffffffffffffffffffffffffffffffff1673ffffffffffffffffffffffffffffffffffffffff168152602001908152602001600020549050919050565b6000603660009054906101000a900473ffffffffffffffffffffffffffffffffffffffff1673ffffffffffffffffffffffffffffffffffffffff163373ffffffffffffffffffffffffffffffffffffffff16141515610549576040517f08c379a00000000000000000000000000000000000000000000000000000000081526004018080602001828103825260108152602001807f4f6e6c7920757365724d616e616765720000000000000000000000000000000081525060200191505060405180910390fd5b603460008373ffffffffffffffffffffffffffffffffffffffff1673ffffffffffffffffffffffffffffffffffffffff168152602001908152602001600020549050919050565b603660009054906101000a900473ffffffffffffffffffffffffffffffffffffffff1673ffffffffffffffffffffffffffffffffffffffff163373ffffffffffffffffffffffffffffffffffffffff16141515610655576040517f08c379a00000000000000000000000000000000000000000000000000000000081526004018080602001828103825260108152602001807f4f6e6c7920757365724d616e616765720000000000000000000000000000000081525060200191505060405180910390fd5b6000603560008373ffffffffffffffffffffffffffffffffffffffff1673ffffffffffffffffffffffffffffffffffffffff168152602001908152602001600020819055506000600102603460008373ffffffffffffffffffffffffffffffffffffffff1673ffffffffffffffffffffffffffffffffffffffff1681526020019081526020016000208190555060008090505b603380549050811015610863578173ffffffffffffffffffffffffffffffffffffffff1660338281548110151561071b57fe5b9060005260206000200160009054906101000a900473ffffffffffffffffffffffffffffffffffffffff1673ffffffffffffffffffffffffffffffffffffffff16141561085657603360016033805490500381548110151561077957fe5b9060005260206000200160009054906101000a900473ffffffffffffffffffffffffffffffffffffffff166033828154811015156107b357fe5b9060005260206000200160006101000a81548173ffffffffffffffffffffffffffffffffffffffff021916908373ffffffffffffffffffffffffffffffffffffffff160217905550603360016033805490500381548110151561081257fe5b9060005260206000200160006101000a81549073ffffffffffffffffffffffffffffffffffffffff021916905560338054809190600190036108549190610dd0565b505b80806001019150506106e8565b5050565b6060603660009054906101000a900473ffffffffffffffffffffffffffffffffffffffff1673ffffffffffffffffffffffffffffffffffffffff163373ffffffffffffffffffffffffffffffffffffffff1614151561092e576040517f08c379a00000000000000000000000000000000000000000000000000000000081526004018080602001828103825260108152602001807f4f6e6c7920757365724d616e616765720000000000000000000000000000000081525060200191505060405180910390fd5b60338054806020026020016040519081016040528092919081815260200182805480156109b057602002820191906000526020600020905b8160009054906101000a900473ffffffffffffffffffffffffffffffffffffffff1673ffffffffffffffffffffffffffffffffffffffff1681526020019060010190808311610966575b5050505050905090565b600060019054906101000a900460ff16806109d957506109d8610dbf565b5b806109f057506000809054906101000a900460ff16155b1515610a8a576040517f08c379a000000000000000000000000000000000000000000000000000000000815260040180806020018281038252602e8152602001807f436f6e747261637420696e7374616e63652068617320616c726561647920626581526020017f656e20696e697469616c697a656400000000000000000000000000000000000081525060400191505060405180910390fd5b60008060019054906101000a900460ff161590508015610ada576001600060016101000a81548160ff02191690831515021790555060016000806101000a81548160ff0219169083151502179055505b81603660006101000a81548173ffffffffffffffffffffffffffffffffffffffff021916908373ffffffffffffffffffffffffffffffffffffffff1602179055508015610b3c5760008060016101000a81548160ff0219169083151502179055505b5050565b603660009054906101000a900473ffffffffffffffffffffffffffffffffffffffff1673ffffffffffffffffffffffffffffffffffffffff163373ffffffffffffffffffffffffffffffffffffffff16141515610c05576040517f08c379a00000000000000000000000000000000000000000000000000000000081526004018080602001828103825260108152602001807f4f6e6c7920757365724d616e616765720000000000000000000000000000000081525060200191505060405180910390fd5b81603460008373ffffffffffffffffffffffffffffffffffffffff1673ffffffffffffffffffffffffffffffffffffffff1681526020019081526020016000208190555060338190806001815401808255809150509060018203906000526020600020016000909192909190916101000a81548173ffffffffffffffffffffffffffffffffffffffff021916908373ffffffffffffffffffffffffffffffffffffffff160217905550505050565b603660009054906101000a900473ffffffffffffffffffffffffffffffffffffffff1673ffffffffffffffffffffffffffffffffffffffff163373ffffffffffffffffffffffffffffffffffffffff16141515610d78576040517f08c379a00000000000000000000000000000000000000000000000000000000081526004018080602001828103825260108152602001807f4f6e6c7920757365724d616e616765720000000000000000000000000000000081525060200191505060405180910390fd5b42603560008373ffffffffffffffffffffffffffffffffffffffff1673ffffffffffffffffffffffffffffffffffffffff1681526020019081526020016000208190555050565b600080303b90506000811491505090565b815481835581811115610df757818360005260206000209182019101610df69190610dfc565b5b505050565b610e1e91905b80821115610e1a576000816000905550600101610e02565b5090565b9056fea165627a7a72305820cefb3b0ca78f3c06563eae0039a6a490796810f27ad4619629c192ea7ee8e5060029",
  "source": "pragma solidity ^0.5.0;\n\nimport \"./../BusinessOwner.sol\";\n\n/// @title Business Owner\ncontract BusinessOwnerMock is BusinessOwner {\n    function initializeMock(address _userManager) public {\n        BusinessOwner.initialize(_userManager);\n    }\n}\n",
  "sourcePath": "/home/nicolabba/WebstormProjects/The-Walking-Bug/Soldino/contracts/mocks/BusinessOwnerMock.sol",
  "compiler": {
    "name": "solc",
    "version": "0.5.0+commit.1d4f565a.Emscripten.clang"
  },
  "schemaVersion": "3.0.6",
  "updatedAt": "2019-05-16T08:07:59.682Z",
  "devdoc": {
    "methods": {
      "confirmBusiness(address)": {
        "details": "Confirms the given business owner",
        "params": {
          "_businessOwner": "The address of the business owner to confirm"
        }
      },
      "getAllBusinessOwners()": {
        "details": "Returns a dynamic array containing all registered business owners' addresses"
      },
      "initialize(address)": {
        "details": "Initializes the contract saving the instances of the proxies of the contracts used by this contract",
        "params": {
          "_userManager": "The instance of the proxy of the UserManager contract of this project"
        }
      },
      "isConfirmed(address)": {
        "details": "Returns true if the given business owner is confirmed",
        "params": {
          "_businessOwner": "The address of the business owner to check"
        }
      },
      "login(address)": {
        "details": "Returns the hash of the data of a specific user",
        "params": {
          "_user": "The address of the business owner whose data to return"
        }
      },
      "registerBusinessOwner(bytes32,address)": {
        "details": "Registers the given user as a business owner",
        "params": {
          "_hash": "the hash of the data of the citizen present in ipfs",
          "_user": "the address of the business owner to be registered"
        }
      },
      "removeBusiness(address)": {
        "details": "Removes the given business owner",
        "params": {
          "_businessOwner": "The address of the business owner to remove"
        }
      }
    },
    "title": "Business Owner"
  },
  "userdoc": {
    "methods": {}
  }
}