{
  "contractName": "Product",
  "abi": [
    {
      "constant": false,
      "inputs": [
        {
          "name": "_userManager",
          "type": "address"
        },
        {
          "name": "_cubit",
          "type": "address"
        },
        {
          "name": "_productTransaction",
          "type": "address"
        }
      ],
      "name": "initialize",
      "outputs": [],
      "payable": false,
      "stateMutability": "nonpayable",
      "type": "function"
    },
    {
      "constant": true,
      "inputs": [
        {
          "name": "_productID",
          "type": "uint256"
        }
      ],
      "name": "isValidProductID",
      "outputs": [
        {
          "name": "",
          "type": "bool"
        }
      ],
      "payable": false,
      "stateMutability": "view",
      "type": "function"
    },
    {
      "constant": false,
      "inputs": [
        {
          "name": "_price",
          "type": "uint256"
        },
        {
          "name": "_availability",
          "type": "uint256"
        },
        {
          "name": "_VAT",
          "type": "uint8"
        },
        {
          "name": "_hash",
          "type": "bytes32"
        }
      ],
      "name": "addProduct",
      "outputs": [],
      "payable": false,
      "stateMutability": "nonpayable",
      "type": "function"
    },
    {
      "constant": false,
      "inputs": [
        {
          "name": "_products",
          "type": "uint256[]"
        },
        {
          "name": "_amount",
          "type": "uint256[]"
        },
        {
          "name": "_owner",
          "type": "address"
        }
      ],
      "name": "buyProductsFromOwner",
      "outputs": [],
      "payable": false,
      "stateMutability": "nonpayable",
      "type": "function"
    },
    {
      "constant": false,
      "inputs": [
        {
          "name": "_products",
          "type": "uint256[]"
        },
        {
          "name": "_amount",
          "type": "uint256[]"
        }
      ],
      "name": "buyProducts",
      "outputs": [],
      "payable": false,
      "stateMutability": "nonpayable",
      "type": "function"
    },
    {
      "constant": false,
      "inputs": [
        {
          "name": "_productId",
          "type": "uint256"
        },
        {
          "name": "_availability",
          "type": "uint256"
        }
      ],
      "name": "changeProductAvailability",
      "outputs": [],
      "payable": false,
      "stateMutability": "nonpayable",
      "type": "function"
    },
    {
      "constant": false,
      "inputs": [
        {
          "name": "_productId",
          "type": "uint256"
        },
        {
          "name": "_availabilityChange",
          "type": "uint256"
        }
      ],
      "name": "increaseProductAvailability",
      "outputs": [],
      "payable": false,
      "stateMutability": "nonpayable",
      "type": "function"
    },
    {
      "constant": false,
      "inputs": [
        {
          "name": "_productID",
          "type": "uint256"
        }
      ],
      "name": "deleteProduct",
      "outputs": [],
      "payable": false,
      "stateMutability": "nonpayable",
      "type": "function"
    },
    {
      "constant": true,
      "inputs": [
        {
          "name": "_productID",
          "type": "uint256"
        }
      ],
      "name": "getProductData",
      "outputs": [
        {
          "name": "",
          "type": "uint256"
        },
        {
          "name": "",
          "type": "uint8"
        },
        {
          "name": "",
          "type": "uint256"
        },
        {
          "name": "",
          "type": "address"
        },
        {
          "name": "",
          "type": "bool"
        },
        {
          "name": "",
          "type": "bytes32"
        }
      ],
      "payable": false,
      "stateMutability": "view",
      "type": "function"
    },
    {
      "constant": true,
      "inputs": [],
      "name": "getAllProducts",
      "outputs": [
        {
          "name": "",
          "type": "uint256[]"
        }
      ],
      "payable": false,
      "stateMutability": "view",
      "type": "function"
    }
  ],
  "bytecode": "0x608060405234801561001057600080fd5b5061296a806100206000396000f3fe6080604052600436106100a4576000357c0100000000000000000000000000000000000000000000000000000000900463ffffffff16806302ee3a52146100a95780631b4e1c4d14610115578063231d45a41461015a57806327855cf1146101b657806372e4dc061461030f578063c0c53b8b14610354578063d01fb63a146103e5578063d11d85261461055e578063d6d0be9f146105b1578063ed90c7b714610659575b600080fd5b3480156100b557600080fd5b506100be610694565b6040518080602001828103825283818151815260200191508051906020019060200280838360005b838110156101015780820151818401526020810190506100e6565b505050509050019250505060405180910390f35b34801561012157600080fd5b506101586004803603604081101561013857600080fd5b8101908080359060200190929190803590602001909291905050506107c3565b005b34801561016657600080fd5b506101b46004803603608081101561017d57600080fd5b810190808035906020019092919080359060200190929190803560ff16906020019092919080359060200190929190505050610982565b005b3480156101c257600080fd5b5061030d600480360360408110156101d957600080fd5b81019080803590602001906401000000008111156101f657600080fd5b82018360208201111561020857600080fd5b8035906020019184602083028401116401000000008311171561022a57600080fd5b919080806020026020016040519081016040528093929190818152602001838360200280828437600081840152601f19601f8201169050808301925050505050505091929192908035906020019064010000000081111561028a57600080fd5b82018360208201111561029c57600080fd5b803590602001918460208302840111640100000000831117156102be57600080fd5b919080806020026020016040519081016040528093929190818152602001838360200280828437600081840152601f19601f820116905080830192505050505050509192919290505050610d1d565b005b34801561031b57600080fd5b506103526004803603604081101561033257600080fd5b810190808035906020019092919080359060200190929190505050611755565b005b34801561036057600080fd5b506103e36004803603606081101561037757600080fd5b81019080803573ffffffffffffffffffffffffffffffffffffffff169060200190929190803573ffffffffffffffffffffffffffffffffffffffff169060200190929190803573ffffffffffffffffffffffffffffffffffffffff16906020019092919050505061190b565b005b3480156103f157600080fd5b5061055c6004803603606081101561040857600080fd5b810190808035906020019064010000000081111561042557600080fd5b82018360208201111561043757600080fd5b8035906020019184602083028401116401000000008311171561045957600080fd5b919080806020026020016040519081016040528093929190818152602001838360200280828437600081840152601f19601f820116905080830192505050505050509192919290803590602001906401000000008111156104b957600080fd5b8201836020820111156104cb57600080fd5b803590602001918460208302840111640100000000831117156104ed57600080fd5b919080806020026020016040519081016040528093929190818152602001838360200280828437600081840152601f19601f820116905080830192505050505050509192919290803573ffffffffffffffffffffffffffffffffffffffff169060200190929190505050611b1d565b005b34801561056a57600080fd5b506105976004803603602081101561058157600080fd5b8101908080359060200190929190505050612351565b604051808215151515815260200191505060405180910390f35b3480156105bd57600080fd5b506105ea600480360360208110156105d457600080fd5b81019080803590602001909291905050506123aa565b604051808781526020018660ff1660ff1681526020018581526020018473ffffffffffffffffffffffffffffffffffffffff1673ffffffffffffffffffffffffffffffffffffffff16815260200183151515158152602001828152602001965050505050505060405180910390f35b34801561066557600080fd5b506106926004803603602081101561067c57600080fd5b810190808035906020019092919050505061248c565b005b6060600080905060008090505b6034805490508110156106f257600115156106d46034838154811015156106c457fe5b9060005260206000200154612351565b151514156106e55781806001019250505b80806001019150506106a1565b506060816040519080825280602002602001820160405280156107245781602001602082028038833980820191505090505b509050600080905060008090505b6034805490508110156107b9576001151561076560348381548110151561075557fe5b9060005260206000200154612351565b151514156107ac5760348181548110151561077c57fe5b9060005260206000200154838381518110151561079557fe5b906020019060200201818152505081806001019250505b8080600101915050610732565b5081935050505090565b816107cd81612351565b1515610841576040517f08c379a00000000000000000000000000000000000000000000000000000000081526004018080602001828103825260128152602001807f496e76616c69642070726f64756374204944000000000000000000000000000081525060200191505060405180910390fd5b338361084b6128e9565b6035600083815260200190815260200160002060c0604051908101604052908160008201548152602001600182015481526020016002820160009054906101000a900473ffffffffffffffffffffffffffffffffffffffff1673ffffffffffffffffffffffffffffffffffffffff1673ffffffffffffffffffffffffffffffffffffffff168152602001600382015481526020016004820160009054906101000a900460ff1660ff1660ff1681526020016004820160019054906101000a900460ff16151515158152505090508273ffffffffffffffffffffffffffffffffffffffff16816040015173ffffffffffffffffffffffffffffffffffffffff1614151561095657600080fd5b846035600088815260200190815260200160002060030160008282540192505081905550505050505050565b336002603660009054906101000a900473ffffffffffffffffffffffffffffffffffffffff1673ffffffffffffffffffffffffffffffffffffffff1663c3c5a547836040518263ffffffff167c0100000000000000000000000000000000000000000000000000000000028152600401808273ffffffffffffffffffffffffffffffffffffffff1673ffffffffffffffffffffffffffffffffffffffff16815260200191505060206040518083038186803b158015610a4057600080fd5b505afa158015610a54573d6000803e3d6000fd5b505050506040513d6020811015610a6a57600080fd5b81019080805190602001909291905050506003811115610a8657fe5b148015610b8957506000603660009054906101000a900473ffffffffffffffffffffffffffffffffffffffff1673ffffffffffffffffffffffffffffffffffffffff166392e5c9c9836040518263ffffffff167c0100000000000000000000000000000000000000000000000000000000028152600401808273ffffffffffffffffffffffffffffffffffffffff1673ffffffffffffffffffffffffffffffffffffffff16815260200191505060206040518083038186803b158015610b4b57600080fd5b505afa158015610b5f573d6000803e3d6000fd5b505050506040513d6020811015610b7557600080fd5b810190808051906020019092919050505014155b1515610bfd576040517f08c379a00000000000000000000000000000000000000000000000000000000081526004018080602001828103825260158152602001807f4e6f74206120627573696e657373206f776e657221000000000000000000000081525060200191505060405180910390fd5b816035600060335481526020019081526020016000206000018190555084603560006033548152602001908152602001600020600101819055503360356000603354815260200190815260200160002060020160006101000a81548173ffffffffffffffffffffffffffffffffffffffff021916908373ffffffffffffffffffffffffffffffffffffffff16021790555083603560006033548152602001908152602001600020600301819055508260356000603354815260200190815260200160002060040160006101000a81548160ff021916908360ff160217905550603460335490806001815401808255809150509060018203906000526020600020016000909192909190915055506001603354016033819055505050505050565b336000603660009054906101000a900473ffffffffffffffffffffffffffffffffffffffff1673ffffffffffffffffffffffffffffffffffffffff1663c3c5a547836040518263ffffffff167c0100000000000000000000000000000000000000000000000000000000028152600401808273ffffffffffffffffffffffffffffffffffffffff1673ffffffffffffffffffffffffffffffffffffffff16815260200191505060206040518083038186803b158015610ddb57600080fd5b505afa158015610def573d6000803e3d6000fd5b505050506040513d6020811015610e0557600080fd5b81019080805190602001909291905050506003811115610e2157fe5b14151515610e97576040517f08c379a00000000000000000000000000000000000000000000000000000000081526004018080602001828103825260168152602001807f4e6f74206120726567697374657265642075736572210000000000000000000081525060200191505060405180910390fd5b8260008090505b8151811015610f4857610ec78282815181101515610eb857fe5b90602001906020020151612351565b1515610f3b576040517f08c379a00000000000000000000000000000000000000000000000000000000081526004018080602001828103825260128152602001807f496e76616c69642070726f64756374204944000000000000000000000000000081525060200191505060405180910390fd5b8080600101915050610e9e565b5082518451141515610fc2576040517f08c379a00000000000000000000000000000000000000000000000000000000081526004018080602001828103825260108152602001807f57726f6e6720706172616d65746572730000000000000000000000000000000081525060200191505060405180910390fd5b6060610fcd85612655565b9050606085516040519080825280602002602001820160405280156110015781602001602082028038833980820191505090505b509050600080600060608060008090505b875181101561174757600095506000945060008090505b8c5181101561120557878181518110151561104057fe5b906020019060200201511515611157578b8281518110151561105e57fe5b90602001906020020151603560008f8581518110151561107a57fe5b9060200190602002015181526020019081526020016000206003015410151515611132576040517f08c379a000000000000000000000000000000000000000000000000000000000815260040180806020018281038252602d8152602001807f547279696e6720746f20627579206d6f72652070726f64756374207468616e2081526020017f6974277320706f737369626c650000000000000000000000000000000000000081525060400191505060405180910390fd5b6001888281518110151561114257fe5b90602001906020020190151590811515815250505b888281518110151561116557fe5b9060200190602002015173ffffffffffffffffffffffffffffffffffffffff16603560008f8481518110151561119757fe5b90602001906020020151815260200190815260200160002060020160009054906101000a900473ffffffffffffffffffffffffffffffffffffffff1673ffffffffffffffffffffffffffffffffffffffff1614156111f85785806001019650505b8080600101915050611029565b50846040519080825280602002602001820160405280156112355781602001602082028038833980820191505090505b509250846040519080825280602002602001820160405280156112675781602001602082028038833980820191505090505b5091506000935060008090505b8c518110801561128357508585105b1561143b57888281518110151561129657fe5b9060200190602002015173ffffffffffffffffffffffffffffffffffffffff16603560008f848151811015156112c857fe5b90602001906020020151815260200190815260200160002060020160009054906101000a900473ffffffffffffffffffffffffffffffffffffffff1673ffffffffffffffffffffffffffffffffffffffff16141561142e578c8181518110151561132e57fe5b90602001906020020151848681518110151561134657fe5b90602001906020020181815250508b8181518110151561136257fe5b90602001906020020151838681518110151561137a57fe5b906020019060200201818152505084806001019550508b8181518110151561139e57fe5b90602001906020020151603560008f848151811015156113ba57fe5b9060200190602002015181526020019081526020016000206001015402870196508b818151811015156113e957fe5b90602001906020020151603560008f8481518110151561140557fe5b906020019060200201518152602001908152602001600020600301600082825403925050819055505b8080600101915050611274565b50603760009054906101000a900473ffffffffffffffffffffffffffffffffffffffff1673ffffffffffffffffffffffffffffffffffffffff166323b872dd338a8481518110151561148957fe5b90602001906020020151896040518463ffffffff167c0100000000000000000000000000000000000000000000000000000000028152600401808473ffffffffffffffffffffffffffffffffffffffff1673ffffffffffffffffffffffffffffffffffffffff1681526020018373ffffffffffffffffffffffffffffffffffffffff1673ffffffffffffffffffffffffffffffffffffffff1681526020018281526020019350505050602060405180830381600087803b15801561154c57600080fd5b505af1158015611560573d6000803e3d6000fd5b505050506040513d602081101561157657600080fd5b810190808051906020019092919050505050603860009054906101000a900473ffffffffffffffffffffffffffffffffffffffff1673ffffffffffffffffffffffffffffffffffffffff1663d43db75c8484338c868151811015156115d757fe5b906020019060200201516040518563ffffffff167c01000000000000000000000000000000000000000000000000000000000281526004018080602001806020018573ffffffffffffffffffffffffffffffffffffffff1673ffffffffffffffffffffffffffffffffffffffff1681526020018473ffffffffffffffffffffffffffffffffffffffff1673ffffffffffffffffffffffffffffffffffffffff168152602001838103835287818151815260200191508051906020019060200280838360005b838110156116b757808201518184015260208101905061169c565b50505050905001838103825286818151815260200191508051906020019060200280838360005b838110156116f95780820151818401526020810190506116de565b505050509050019650505050505050600060405180830381600087803b15801561172257600080fd5b505af1158015611736573d6000803e3d6000fd5b505050508080600101915050611012565b505050505050505050505050565b8161175f81612351565b15156117d3576040517f08c379a00000000000000000000000000000000000000000000000000000000081526004018080602001828103825260128152602001807f496e76616c69642070726f64756374204944000000000000000000000000000081525060200191505060405180910390fd5b33836117dd6128e9565b6035600083815260200190815260200160002060c0604051908101604052908160008201548152602001600182015481526020016002820160009054906101000a900473ffffffffffffffffffffffffffffffffffffffff1673ffffffffffffffffffffffffffffffffffffffff1673ffffffffffffffffffffffffffffffffffffffff168152602001600382015481526020016004820160009054906101000a900460ff1660ff1660ff1681526020016004820160019054906101000a900460ff16151515158152505090508273ffffffffffffffffffffffffffffffffffffffff16816040015173ffffffffffffffffffffffffffffffffffffffff161415156118e857600080fd5b846035600088815260200190815260200160002060030181905550505050505050565b600060019054906101000a900460ff168061192a57506119296128d8565b5b8061194157506000809054906101000a900460ff16155b15156119db576040517f08c379a000000000000000000000000000000000000000000000000000000000815260040180806020018281038252602e8152602001807f436f6e747261637420696e7374616e63652068617320616c726561647920626581526020017f656e20696e697469616c697a656400000000000000000000000000000000000081525060400191505060405180910390fd5b60008060019054906101000a900460ff161590508015611a2b576001600060016101000a81548160ff02191690831515021790555060016000806101000a81548160ff0219169083151502179055505b83603660006101000a81548173ffffffffffffffffffffffffffffffffffffffff021916908373ffffffffffffffffffffffffffffffffffffffff16021790555082603760006101000a81548173ffffffffffffffffffffffffffffffffffffffff021916908373ffffffffffffffffffffffffffffffffffffffff16021790555081603860006101000a81548173ffffffffffffffffffffffffffffffffffffffff021916908373ffffffffffffffffffffffffffffffffffffffff16021790555060006033819055508015611b175760008060016101000a81548160ff0219169083151502179055505b50505050565b336000603660009054906101000a900473ffffffffffffffffffffffffffffffffffffffff1673ffffffffffffffffffffffffffffffffffffffff1663c3c5a547836040518263ffffffff167c0100000000000000000000000000000000000000000000000000000000028152600401808273ffffffffffffffffffffffffffffffffffffffff1673ffffffffffffffffffffffffffffffffffffffff16815260200191505060206040518083038186803b158015611bdb57600080fd5b505afa158015611bef573d6000803e3d6000fd5b505050506040513d6020811015611c0557600080fd5b81019080805190602001909291905050506003811115611c2157fe5b14151515611c97576040517f08c379a00000000000000000000000000000000000000000000000000000000081526004018080602001828103825260168152602001807f4e6f74206120726567697374657265642075736572210000000000000000000081525060200191505060405180910390fd5b8360008090505b8151811015611d4857611cc78282815181101515611cb857fe5b90602001906020020151612351565b1515611d3b576040517f08c379a00000000000000000000000000000000000000000000000000000000081526004018080602001828103825260128152602001807f496e76616c69642070726f64756374204944000000000000000000000000000081525060200191505060405180910390fd5b8080600101915050611c9e565b5083518551141515611dc2576040517f08c379a00000000000000000000000000000000000000000000000000000000081526004018080602001828103825260108152602001807f57726f6e6720706172616d65746572730000000000000000000000000000000081525060200191505060405180910390fd5b600080905060008090505b8651811015612078578581815181101515611de457fe5b90602001906020020151603560008984815181101515611e0057fe5b9060200190602002015181526020019081526020016000206003015410151515611eb8576040517f08c379a000000000000000000000000000000000000000000000000000000000815260040180806020018281038252602d8152602001807f547279696e6720746f20627579206d6f72652070726f64756374207468616e2081526020017f6974277320706f737369626c650000000000000000000000000000000000000081525060400191505060405180910390fd5b8473ffffffffffffffffffffffffffffffffffffffff16603560008984815181101515611ee157fe5b90602001906020020151815260200190815260200160002060020160009054906101000a900473ffffffffffffffffffffffffffffffffffffffff1673ffffffffffffffffffffffffffffffffffffffff16141515611fce576040517f08c379a000000000000000000000000000000000000000000000000000000000815260040180806020018281038252602f8152602001807f547279696e6720746f206275792070726f64756374732066726f6d206d6f726581526020017f207468616e206f6e65206f776e6572000000000000000000000000000000000081525060400191505060405180910390fd5b8581815181101515611fdc57fe5b90602001906020020151603560008984815181101515611ff857fe5b906020019060200201518152602001908152602001600020600101540282019150858181518110151561202757fe5b9060200190602002015160356000898481518110151561204357fe5b906020019060200201518152602001908152602001600020600301600082825403925050819055508080600101915050611dcd565b50603760009054906101000a900473ffffffffffffffffffffffffffffffffffffffff1673ffffffffffffffffffffffffffffffffffffffff166323b872dd3386846040518463ffffffff167c0100000000000000000000000000000000000000000000000000000000028152600401808473ffffffffffffffffffffffffffffffffffffffff1673ffffffffffffffffffffffffffffffffffffffff1681526020018373ffffffffffffffffffffffffffffffffffffffff1673ffffffffffffffffffffffffffffffffffffffff1681526020018281526020019350505050602060405180830381600087803b15801561217257600080fd5b505af1158015612186573d6000803e3d6000fd5b505050506040513d602081101561219c57600080fd5b810190808051906020019092919050505050603860009054906101000a900473ffffffffffffffffffffffffffffffffffffffff1673ffffffffffffffffffffffffffffffffffffffff1663d43db75c878733886040518563ffffffff167c01000000000000000000000000000000000000000000000000000000000281526004018080602001806020018573ffffffffffffffffffffffffffffffffffffffff1673ffffffffffffffffffffffffffffffffffffffff1681526020018473ffffffffffffffffffffffffffffffffffffffff1673ffffffffffffffffffffffffffffffffffffffff168152602001838103835287818151815260200191508051906020019060200280838360005b838110156122c65780820151818401526020810190506122ab565b50505050905001838103825286818151815260200191508051906020019060200280838360005b838110156123085780820151818401526020810190506122ed565b505050509050019650505050505050600060405180830381600087803b15801561233157600080fd5b505af1158015612345573d6000803e3d6000fd5b50505050505050505050565b6000806001026035600084815260200190815260200160002060000154141580156123a35750600015156035600084815260200190815260200160002060040160019054906101000a900460ff161515145b9050919050565b60008060008060008060356000888152602001908152602001600020600101546035600089815260200190815260200160002060040160009054906101000a900460ff16603560008a815260200190815260200160002060030154603560008b815260200190815260200160002060020160009054906101000a900473ffffffffffffffffffffffffffffffffffffffff16603560008c815260200190815260200160002060040160019054906101000a900460ff16603560008d81526020019081526020016000206000015495509550955095509550955091939550919395565b8061249681612351565b151561250a576040517f08c379a00000000000000000000000000000000000000000000000000000000081526004018080602001828103825260128152602001807f496e76616c69642070726f64756374204944000000000000000000000000000081525060200191505060405180910390fd5b33826125146128e9565b6035600083815260200190815260200160002060c0604051908101604052908160008201548152602001600182015481526020016002820160009054906101000a900473ffffffffffffffffffffffffffffffffffffffff1673ffffffffffffffffffffffffffffffffffffffff1673ffffffffffffffffffffffffffffffffffffffff168152602001600382015481526020016004820160009054906101000a900460ff1660ff1660ff1681526020016004820160019054906101000a900460ff16151515158152505090508273ffffffffffffffffffffffffffffffffffffffff16816040015173ffffffffffffffffffffffffffffffffffffffff1614151561261f57600080fd5b60016035600087815260200190815260200160002060040160016101000a81548160ff0219169083151502179055505050505050565b60608060348054905060405190808252806020026020018201604052801561268c5781602001602082028038833980820191505090505b5090506000809050600080600090505b8551811015612819576000915060008090505b83811080156126bc575082155b15612763576035600088848151811015156126d357fe5b90602001906020020151815260200190815260200160002060020160009054906101000a900473ffffffffffffffffffffffffffffffffffffffff1673ffffffffffffffffffffffffffffffffffffffff16858281518110151561273357fe5b9060200190602002015173ffffffffffffffffffffffffffffffffffffffff1614925080806001019150506126af565b5081151561280c5760356000878381518110151561277d57fe5b90602001906020020151815260200190815260200160002060020160009054906101000a900473ffffffffffffffffffffffffffffffffffffffff1684848151811015156127c757fe5b9060200190602002019073ffffffffffffffffffffffffffffffffffffffff16908173ffffffffffffffffffffffffffffffffffffffff168152505082806001019350505b808060010191505061269c565b5060608260405190808252806020026020018201604052801561284b5781602001602082028038833980820191505090505b50905060008090505b838110156128cb57848181518110151561286a57fe5b90602001906020020151828281518110151561288257fe5b9060200190602002019073ffffffffffffffffffffffffffffffffffffffff16908173ffffffffffffffffffffffffffffffffffffffff16815250508080600101915050612854565b5080945050505050919050565b600080303b90506000811491505090565b60c0604051908101604052806000801916815260200160008152602001600073ffffffffffffffffffffffffffffffffffffffff16815260200160008152602001600060ff168152602001600015158152509056fea165627a7a7230582049cb551e59cebce46e0d2de08f6e4fe8494819df76d815d3e9d5add88d5c29e60029",
  "source": "pragma solidity >=0.5.0;\n\nimport \"zos-lib/contracts/Initializable.sol\";\n\nimport \"./UserManager.sol\";\nimport \"./Cubit.sol\";\nimport \"./ProductTransaction.sol\";\n\n///@title Product\ncontract Product is Initializable {\n\n    struct product {\n        bytes32 hash;\n        uint256 price;\n        address owner;\n        uint256 availability;\n        uint8 VAT;\n        bool deleted;\n    }\n\n    uint256 private nextProduct;\n    uint256[] private products;\n    mapping(uint256 => product) private productData;\n    UserManager internal userManager;\n    Cubit internal cubit;\n    ProductTransaction internal productTransaction;\n\n    /**\n    * @dev Initializes the contract saving the instances of the proxies of the contracts used by this contract\n    * @param _userManager The instance of the proxy of the UserManager contract of this project\n    * @param _cubit The instance of the proxy of the Cubit contract of this project\n    * @param _productTransaction The instance of the proxy of the ProductTransaction contract of this project\n    */\n    function initialize(address _userManager, address _cubit, address _productTransaction) initializer public {\n        userManager = UserManager(_userManager);\n        cubit = Cubit(_cubit);\n        productTransaction = ProductTransaction(_productTransaction);\n        nextProduct = 0;\n    }\n\n    /**\n    * @dev Checks if the given ids identify registered products that were not deleted\n    * @param _products The id of the products to check\n    */\n    modifier onlyValidProductIDs(uint256[] memory _products) {\n        for(uint256 i = 0; i < _products.length; i++)\n            require(isValidProductID(_products[i]), \"Invalid product ID\");\n        _;\n    }\n\n    /**\n    * @dev Checks if the given id identifies a registered product that wasn't deleted\n    * @param _productID The id of the product to check\n    */\n    modifier onlyValidProductID(uint256 _productID) {\n        require(isValidProductID(_productID), \"Invalid product ID\");\n        _;\n    }\n\n    /**\n    * @dev Checks if a given user is the owner of the given product\n    * @param _user The address of the business owner who's supposed to own the product\n    * @param _productId The id associated with the product whose owner is to be checked\n    */\n    modifier onlyProductOwner(address _user, uint256 _productId) {\n        product memory tmp = productData[_productId];\n        require(tmp.owner == _user);\n        _;\n    }\n\n    /**\n    * @dev Checks if a given user is a confirmed business owner\n    * @param _user The address of the user to check\n    */\n    modifier onlyValidBusinessOwner(address _user) {\n        require(uint(userManager.isRegistered(_user)) == 2\n        && userManager.isBusinessOwnerConfirmed(_user) != 0, \"Not a business owner!\");\n        _;\n    }\n\n    /**\n    * @dev Checks if a given user is registered\n    * @param _user The address of the user to check\n    */\n    modifier onlyRegisteredUser(address _user) {\n        require(uint(userManager.isRegistered(_user)) != 0, \"Not a registered user!\");\n        _;\n    }\n\n    /**\n    * @dev Checks if a given ID is associated with a valid, not deleted product\n    * @param _productID The ID of the product to check\n    */\n    function isValidProductID(uint256 _productID) view public returns(bool) {\n        return (productData[_productID].hash != 0x00 && productData[_productID].deleted == false);\n    }\n\n    /**\n    * @dev Adds a new product to the system, owned by the business owner who calls the function\n    * @param _price The price of the product to add\n    * @param _availability The availability of the product to add\n    * @param _VAT The VAT of the product to add\n    * @param _hash The hash of the data of the product to add\n    */\n    function addProduct(uint256 _price, uint256 _availability, uint8 _VAT, bytes32 _hash) public\n        onlyValidBusinessOwner(msg.sender) {\n\n        productData[nextProduct].hash = _hash;\n        productData[nextProduct].price = _price;\n        productData[nextProduct].owner = msg.sender;\n        productData[nextProduct].availability = _availability;\n        productData[nextProduct].VAT = _VAT;\n\n        products.push(nextProduct);\n        nextProduct = nextProduct + 1;\n\n    }\n\n    /**\n    * @dev Allows the the registered user who calls the function to buy products from a given seller\n    * @param _products The ids of the products to buy\n    * @param _amount The amount of each product to buy\n    * @param _owner The address of the owner of ALL the products bought\n    */\n    function buyProductsFromOwner(uint256[] memory _products, uint256[] memory _amount, address _owner) public\n    onlyRegisteredUser(msg.sender) onlyValidProductIDs(_products) {\n\n        require(_products.length == _amount.length, \"Wrong parameters\");\n        uint256 currentPrice = 0;\n        for (uint256 i = 0; i < _products.length; i++) {\n            require(productData[_products[i]].availability >= _amount[i], \"Trying to buy more product than it's possible\");\n            require(productData[_products[i]].owner == _owner, \"Trying to buy products from more than one owner\");\n\n            currentPrice = currentPrice + productData[_products[i]].price * _amount[i];\n            productData[_products[i]].availability -= _amount[i];\n        }\n\n        cubit.transferFrom(msg.sender, _owner, currentPrice);\n        productTransaction.addTransaction(_products, _amount, msg.sender, _owner);\n    }\n\n    function getOwnersOfProducts(uint256[] memory _products) internal view returns (address[] memory){\n        address[] memory owners = new address[](products.length);\n        uint256 totalOwners = 0;\n        bool found;\n        for(uint256 i = 0; i < _products.length; i++) {\n            found = false;\n            for(uint256 j = 0; j < totalOwners && !found; j++) {\n                found = (owners[j] == productData[_products[i]].owner);\n            }\n            if(!found) {\n                //inserisco l'owner nella lista di owners\n                owners[totalOwners] = productData[_products[i]].owner;\n                totalOwners++;\n            }\n        }\n        address[] memory toReturn = new address[](totalOwners);\n        for(uint256 i = 0; i < totalOwners; i++) {\n            toReturn[i] = owners[i];\n        }\n        return toReturn;\n    }\n\n\n    /**\n    * @dev Allows the the registered user who calls the function to buy products\n    * @param _products The ids of the products to buy\n    * @param _amount The amount of each product to buy\n    */\n    function buyProducts(uint256[] memory _products, uint256[] memory _amount) public\n    onlyRegisteredUser(msg.sender) onlyValidProductIDs(_products) {\n        require(_products.length == _amount.length, \"Wrong parameters\");\n\n        //salvo tutti gli owners coinvolti\n        address[] memory owners = getOwnersOfProducts(_products);\n        bool[] memory checked = new bool[](_products.length);\n        uint256 currentPrice;\n        uint256 productsOfOwnerLength;\n        uint256 k;\n        uint256[] memory productsOfCurrentOwner;\n        uint256[] memory amountsOfCurrentOwner;\n        //ciclo per ogni owner\n        for(uint256 i = 0; i < owners.length; i++) {\n            currentPrice = 0;\n            productsOfOwnerLength = 0;\n            for(uint256 j = 0; j < _products.length; j++) {\n                if(!checked[j]) {\n                    require(productData[_products[i]].availability >= _amount[i], \"Trying to buy more product than it's possible\");\n                    checked[j] = true;\n                }\n\n                if(productData[_products[j]].owner == owners[i]) {\n                    productsOfOwnerLength++;\n                }\n            }\n\n            productsOfCurrentOwner = new uint256[](productsOfOwnerLength);\n            amountsOfCurrentOwner = new uint256[](productsOfOwnerLength);\n            k = 0;\n\n            //ciclo per ogni prodotto dell'owner\n            for(uint256 j = 0; j < _products.length && k < productsOfOwnerLength; j++) {\n                if(productData[_products[j]].owner == owners[i]) {\n                    //assegno il prodotto all'owner\n                    productsOfCurrentOwner[k] = _products[j];\n                    amountsOfCurrentOwner[k] = _amount[j];\n                    k++;\n\n                    //aumento prezzo da pagare all'owner e riduco disponibilit del prodotto\n                    currentPrice += productData[_products[j]].price * _amount[j];\n                    productData[_products[j]].availability -= _amount[j];\n                }\n            }\n\n            //trasferisco i cubit e memorizzo la transazione\n            cubit.transferFrom(msg.sender, owners[i], currentPrice);\n            productTransaction.addTransaction(productsOfCurrentOwner, amountsOfCurrentOwner, msg.sender, owners[i]);\n        }\n    }\n\n    /**\n    * @dev Function used by the owner of a product in order to change the availability of a product\n    * @param _productId The id of the product whose name to change\n    * @param _availability The new availability\n    */\n    function changeProductAvailability(uint256 _productId, uint256 _availability) public onlyValidProductID(_productId)\n    onlyProductOwner(msg.sender, _productId) {\n        productData[_productId].availability = _availability;\n    }\n\n    /**\n    * @dev Function used by the owner of a product in order to increase the availability of a product\n    * @param _productId The id of the product whose name to change\n    * @param _availabilityChange The change of the product's availability\n    */\n    function increaseProductAvailability(uint256 _productId, uint256 _availabilityChange) public onlyValidProductID(_productId)\n    onlyProductOwner(msg.sender, _productId) {\n        productData[_productId].availability += _availabilityChange;\n    }\n\n    /**\n    * @dev Function used by the owner of a product in order to make sure a product is unavailable\n    * @param _productID The ID of the product to remove from circulation\n    */\n    function deleteProduct(uint256 _productID) public onlyValidProductID(_productID)\n        onlyProductOwner(msg.sender, _productID) {\n        productData[_productID].deleted = true;\n    }\n\n    /**\n    * @dev Function used to get the data of a specific product\n    * @param _productID The ID of the product to get the data\n    */\n    function getProductData(uint256 _productID) view public returns(uint, uint8, uint, address, bool, bytes32) {\n        return (productData[_productID].price,\n                productData[_productID].VAT,\n                productData[_productID].availability,\n                productData[_productID].owner,\n                productData[_productID].deleted,\n                productData[_productID].hash);\n    }\n\n    /**\n    * @dev Function used to get the list of valid products\n    */\n    function getAllProducts() view public returns(uint256[] memory) {\n        uint256 numberOfValidProducts = 0;\n        for (uint256 i = 0; i < products.length; i++) {\n            if(isValidProductID(products[i]) == true){\n                numberOfValidProducts ++;\n            }\n        }\n        uint256[] memory toReturnProduct = new uint256[](numberOfValidProducts);\n        uint256 j = 0;\n        for (uint256 i = 0; i < products.length; i++) {\n            if(isValidProductID(products[i]) == true){\n                toReturnProduct[j] = products[i];\n                j++;\n            }\n        }\n\n        return toReturnProduct;\n    }\n}\n",
  "sourcePath": "/home/nicolabba/WebstormProjects/The-Walking-Bug/Soldino/contracts/Product.sol",
  "compiler": {
    "name": "solc",
    "version": "0.5.0+commit.1d4f565a.Emscripten.clang"
  },
  "schemaVersion": "3.0.6",
  "updatedAt": "2019-05-16T08:07:59.830Z",
  "devdoc": {
    "methods": {
      "addProduct(uint256,uint256,uint8,bytes32)": {
        "details": "Adds a new product to the system, owned by the business owner who calls the function",
        "params": {
          "_VAT": "The VAT of the product to add",
          "_availability": "The availability of the product to add",
          "_hash": "The hash of the data of the product to add",
          "_price": "The price of the product to add"
        }
      },
      "buyProducts(uint256[],uint256[])": {
        "details": "Allows the the registered user who calls the function to buy products",
        "params": {
          "_amount": "The amount of each product to buy",
          "_products": "The ids of the products to buy"
        }
      },
      "buyProductsFromOwner(uint256[],uint256[],address)": {
        "details": "Allows the the registered user who calls the function to buy products from a given seller",
        "params": {
          "_amount": "The amount of each product to buy",
          "_owner": "The address of the owner of ALL the products bought",
          "_products": "The ids of the products to buy"
        }
      },
      "changeProductAvailability(uint256,uint256)": {
        "details": "Function used by the owner of a product in order to change the availability of a product",
        "params": {
          "_availability": "The new availability",
          "_productId": "The id of the product whose name to change"
        }
      },
      "deleteProduct(uint256)": {
        "details": "Function used by the owner of a product in order to make sure a product is unavailable",
        "params": {
          "_productID": "The ID of the product to remove from circulation"
        }
      },
      "getAllProducts()": {
        "details": "Function used to get the list of valid products"
      },
      "getProductData(uint256)": {
        "details": "Function used to get the data of a specific product",
        "params": {
          "_productID": "The ID of the product to get the data"
        }
      },
      "increaseProductAvailability(uint256,uint256)": {
        "details": "Function used by the owner of a product in order to increase the availability of a product",
        "params": {
          "_availabilityChange": "The change of the product's availability",
          "_productId": "The id of the product whose name to change"
        }
      },
      "initialize(address,address,address)": {
        "details": "Initializes the contract saving the instances of the proxies of the contracts used by this contract",
        "params": {
          "_cubit": "The instance of the proxy of the Cubit contract of this project",
          "_productTransaction": "The instance of the proxy of the ProductTransaction contract of this project",
          "_userManager": "The instance of the proxy of the UserManager contract of this project"
        }
      },
      "isValidProductID(uint256)": {
        "details": "Checks if a given ID is associated with a valid, not deleted product",
        "params": {
          "_productID": "The ID of the product to check"
        }
      }
    },
    "title": "Product"
  },
  "userdoc": {
    "methods": {}
  }
}