{
  "contractName": "UserManager",
  "abi": [
    {
      "constant": false,
      "inputs": [
        {
          "name": "_citizen",
          "type": "address"
        },
        {
          "name": "_businessOwner",
          "type": "address"
        },
        {
          "name": "_government",
          "type": "address"
        }
      ],
      "name": "initialize",
      "outputs": [],
      "payable": false,
      "stateMutability": "nonpayable",
      "type": "function"
    },
    {
      "constant": true,
      "inputs": [],
      "name": "login",
      "outputs": [
        {
          "name": "",
          "type": "uint8"
        }
      ],
      "payable": false,
      "stateMutability": "view",
      "type": "function"
    },
    {
      "constant": true,
      "inputs": [
        {
          "name": "_user",
          "type": "address"
        }
      ],
      "name": "isRegistered",
      "outputs": [
        {
          "name": "",
          "type": "uint8"
        }
      ],
      "payable": false,
      "stateMutability": "view",
      "type": "function"
    },
    {
      "constant": true,
      "inputs": [
        {
          "name": "_user",
          "type": "address"
        }
      ],
      "name": "getUserHash",
      "outputs": [
        {
          "name": "",
          "type": "bytes32"
        }
      ],
      "payable": false,
      "stateMutability": "view",
      "type": "function"
    },
    {
      "constant": false,
      "inputs": [
        {
          "name": "_type",
          "type": "uint8"
        },
        {
          "name": "_hash",
          "type": "bytes32"
        }
      ],
      "name": "registerUser",
      "outputs": [],
      "payable": false,
      "stateMutability": "nonpayable",
      "type": "function"
    },
    {
      "constant": true,
      "inputs": [],
      "name": "getAllCitizens",
      "outputs": [
        {
          "name": "",
          "type": "address[]"
        }
      ],
      "payable": false,
      "stateMutability": "view",
      "type": "function"
    },
    {
      "constant": true,
      "inputs": [],
      "name": "getAllBusinessOwners",
      "outputs": [
        {
          "name": "",
          "type": "address[]"
        }
      ],
      "payable": false,
      "stateMutability": "view",
      "type": "function"
    },
    {
      "constant": true,
      "inputs": [],
      "name": "getGovernmentAddress",
      "outputs": [
        {
          "name": "",
          "type": "address"
        }
      ],
      "payable": false,
      "stateMutability": "view",
      "type": "function"
    },
    {
      "constant": true,
      "inputs": [],
      "name": "getAllRegisteredUsers",
      "outputs": [
        {
          "name": "",
          "type": "address[]"
        }
      ],
      "payable": false,
      "stateMutability": "view",
      "type": "function"
    },
    {
      "constant": true,
      "inputs": [
        {
          "name": "_businessOwner",
          "type": "address"
        }
      ],
      "name": "isBusinessOwnerConfirmed",
      "outputs": [
        {
          "name": "",
          "type": "uint256"
        }
      ],
      "payable": false,
      "stateMutability": "view",
      "type": "function"
    },
    {
      "constant": false,
      "inputs": [
        {
          "name": "_businessOwner",
          "type": "address"
        }
      ],
      "name": "confirmBusinessOwner",
      "outputs": [],
      "payable": false,
      "stateMutability": "nonpayable",
      "type": "function"
    },
    {
      "constant": false,
      "inputs": [
        {
          "name": "_businessOwner",
          "type": "address"
        }
      ],
      "name": "removeBusinessOwner",
      "outputs": [],
      "payable": false,
      "stateMutability": "nonpayable",
      "type": "function"
    }
  ],
  "bytecode": "0x608060405234801561001057600080fd5b50611704806100206000396000f3fe6080604052600436106100ba576000357c0100000000000000000000000000000000000000000000000000000000900463ffffffff168063121b4220146100bf578063397388af146101075780635952176e1461017357806364377452146101c45780636c0e1ccd14610229578063870c80791461029557806391fc5696146102ec57806392e5c9c91461033d578063b34e97e8146103a2578063bb4a7f18146103db578063c0c53b8b14610447578063c3c5a547146104d8575b600080fd5b3480156100cb57600080fd5b50610105600480360360408110156100e257600080fd5b81019080803560ff1690602001909291908035906020019092919050505061054b565b005b34801561011357600080fd5b5061011c6107a7565b6040518080602001828103825283818151815260200191508051906020019060200280838360005b8381101561015f578082015181840152602081019050610144565b505050509050019250505060405180910390f35b34801561017f57600080fd5b506101c26004803603602081101561019657600080fd5b81019080803573ffffffffffffffffffffffffffffffffffffffff169060200190929190505050610915565b005b3480156101d057600080fd5b50610213600480360360208110156101e757600080fd5b81019080803573ffffffffffffffffffffffffffffffffffffffff169060200190929190505050610a1f565b6040518082815260200191505060405180910390f35b34801561023557600080fd5b5061023e610c75565b6040518080602001828103825283818151815260200191508051906020019060200280838360005b83811015610281578082015181840152602081019050610266565b505050509050019250505060405180910390f35b3480156102a157600080fd5b506102aa610d91565b604051808273ffffffffffffffffffffffffffffffffffffffff1673ffffffffffffffffffffffffffffffffffffffff16815260200191505060405180910390f35b3480156102f857600080fd5b5061033b6004803603602081101561030f57600080fd5b81019080803573ffffffffffffffffffffffffffffffffffffffff169060200190929190505050610e57565b005b34801561034957600080fd5b5061038c6004803603602081101561036057600080fd5b81019080803573ffffffffffffffffffffffffffffffffffffffff169060200190929190505050610f61565b6040518082815260200191505060405180910390f35b3480156103ae57600080fd5b506103b7611060565b604051808260038111156103c757fe5b60ff16815260200191505060405180910390f35b3480156103e757600080fd5b506103f0611070565b6040518080602001828103825283818151815260200191508051906020019060200280838360005b83811015610433578082015181840152602081019050610418565b505050509050019250505060405180910390f35b34801561045357600080fd5b506104d66004803603606081101561046a57600080fd5b81019080803573ffffffffffffffffffffffffffffffffffffffff169060200190929190803573ffffffffffffffffffffffffffffffffffffffff169060200190929190803573ffffffffffffffffffffffffffffffffffffffff16906020019092919050505061118c565b005b3480156104e457600080fd5b50610527600480360360208110156104fb57600080fd5b81019080803573ffffffffffffffffffffffffffffffffffffffff169060200190929190505050611396565b6040518082600381111561053757fe5b60ff16815260200191505060405180910390f35b600061055633611396565b90506000600381111561056557fe5b81600381111561057157fe5b14151561057d57600080fd5b6001600381111561058a57fe5b83600381111561059657fe5b14806105b85750600260038111156105aa57fe5b8360038111156105b657fe5b145b15156105c357600080fd5b600160038111156105d057fe5b8360038111156105dc57fe5b14156106c457603360009054906101000a900473ffffffffffffffffffffffffffffffffffffffff1673ffffffffffffffffffffffffffffffffffffffff166302dadf8e83336040518363ffffffff167c0100000000000000000000000000000000000000000000000000000000028152600401808381526020018273ffffffffffffffffffffffffffffffffffffffff1673ffffffffffffffffffffffffffffffffffffffff16815260200192505050600060405180830381600087803b1580156106a757600080fd5b505af11580156106bb573d6000803e3d6000fd5b505050506107a2565b603460009054906101000a900473ffffffffffffffffffffffffffffffffffffffff1673ffffffffffffffffffffffffffffffffffffffff1663f111502483336040518363ffffffff167c0100000000000000000000000000000000000000000000000000000000028152600401808381526020018273ffffffffffffffffffffffffffffffffffffffff1673ffffffffffffffffffffffffffffffffffffffff16815260200192505050600060405180830381600087803b15801561078957600080fd5b505af115801561079d573d6000803e3d6000fd5b505050505b505050565b6060806107b2610c75565b905060606107be611070565b9050606081518351016040519080825280602002602001820160405280156107f55781602001602082028038833980820191505090505b509050600080905060008090505b845181101561088357848181518110151561081a57fe5b90602001906020020151838381518110151561083257fe5b9060200190602002019073ffffffffffffffffffffffffffffffffffffffff16908173ffffffffffffffffffffffffffffffffffffffff168152505081806001019250508080600101915050610803565b5060008090505b835181101561090a5783818151811015156108a157fe5b9060200190602002015183838151811015156108b957fe5b9060200190602002019073ffffffffffffffffffffffffffffffffffffffff16908173ffffffffffffffffffffffffffffffffffffffff16815250508180600101925050808060010191505061088a565b508194505050505090565b600061092033611396565b905060038081111561092e57fe5b81600381111561093a57fe5b14151561094657600080fd5b603460009054906101000a900473ffffffffffffffffffffffffffffffffffffffff1673ffffffffffffffffffffffffffffffffffffffff1663419b96fa836040518263ffffffff167c0100000000000000000000000000000000000000000000000000000000028152600401808273ffffffffffffffffffffffffffffffffffffffff1673ffffffffffffffffffffffffffffffffffffffff168152602001915050600060405180830381600087803b158015610a0357600080fd5b505af1158015610a17573d6000803e3d6000fd5b505050505050565b600080610a2b83611396565b905060016003811115610a3a57fe5b816003811115610a4657fe5b1415610b4a57603360009054906101000a900473ffffffffffffffffffffffffffffffffffffffff1673ffffffffffffffffffffffffffffffffffffffff166335a6861a846040518263ffffffff167c0100000000000000000000000000000000000000000000000000000000028152600401808273ffffffffffffffffffffffffffffffffffffffff1673ffffffffffffffffffffffffffffffffffffffff16815260200191505060206040518083038186803b158015610b0757600080fd5b505afa158015610b1b573d6000803e3d6000fd5b505050506040513d6020811015610b3157600080fd5b8101908080519060200190929190505050915050610c70565b60026003811115610b5757fe5b816003811115610b6357fe5b1415610c6757603460009054906101000a900473ffffffffffffffffffffffffffffffffffffffff1673ffffffffffffffffffffffffffffffffffffffff166335a6861a846040518263ffffffff167c0100000000000000000000000000000000000000000000000000000000028152600401808273ffffffffffffffffffffffffffffffffffffffff1673ffffffffffffffffffffffffffffffffffffffff16815260200191505060206040518083038186803b158015610c2457600080fd5b505afa158015610c38573d6000803e3d6000fd5b505050506040513d6020811015610c4e57600080fd5b8101908080519060200190929190505050915050610c70565b60006001029150505b919050565b6060603360009054906101000a900473ffffffffffffffffffffffffffffffffffffffff1673ffffffffffffffffffffffffffffffffffffffff16636c0e1ccd6040518163ffffffff167c010000000000000000000000000000000000000000000000000000000002815260040160006040518083038186803b158015610cfb57600080fd5b505afa158015610d0f573d6000803e3d6000fd5b505050506040513d6000823e3d601f19601f820116820180604052506020811015610d3957600080fd5b810190808051640100000000811115610d5157600080fd5b82810190506020810184811115610d6757600080fd5b8151856020820283011164010000000082111715610d8457600080fd5b5050929190505050905090565b6000603560009054906101000a900473ffffffffffffffffffffffffffffffffffffffff1673ffffffffffffffffffffffffffffffffffffffff1663870c80796040518163ffffffff167c010000000000000000000000000000000000000000000000000000000002815260040160206040518083038186803b158015610e1757600080fd5b505afa158015610e2b573d6000803e3d6000fd5b505050506040513d6020811015610e4157600080fd5b8101908080519060200190929190505050905090565b6000610e6233611396565b9050600380811115610e7057fe5b816003811115610e7c57fe5b141515610e8857600080fd5b603460009054906101000a900473ffffffffffffffffffffffffffffffffffffffff1673ffffffffffffffffffffffffffffffffffffffff1663f3cb4aae836040518263ffffffff167c0100000000000000000000000000000000000000000000000000000000028152600401808273ffffffffffffffffffffffffffffffffffffffff1673ffffffffffffffffffffffffffffffffffffffff168152602001915050600060405180830381600087803b158015610f4557600080fd5b505af1158015610f59573d6000803e3d6000fd5b505050505050565b6000603460009054906101000a900473ffffffffffffffffffffffffffffffffffffffff1673ffffffffffffffffffffffffffffffffffffffff166318e4ac35836040518263ffffffff167c0100000000000000000000000000000000000000000000000000000000028152600401808273ffffffffffffffffffffffffffffffffffffffff1673ffffffffffffffffffffffffffffffffffffffff16815260200191505060206040518083038186803b15801561101e57600080fd5b505afa158015611032573d6000803e3d6000fd5b505050506040513d602081101561104857600080fd5b81019080805190602001909291905050509050919050565b600061106b33611396565b905090565b6060603460009054906101000a900473ffffffffffffffffffffffffffffffffffffffff1673ffffffffffffffffffffffffffffffffffffffff1663bb4a7f186040518163ffffffff167c010000000000000000000000000000000000000000000000000000000002815260040160006040518083038186803b1580156110f657600080fd5b505afa15801561110a573d6000803e3d6000fd5b505050506040513d6000823e3d601f19601f82011682018060405250602081101561113457600080fd5b81019080805164010000000081111561114c57600080fd5b8281019050602081018481111561116257600080fd5b815185602082028301116401000000008211171561117f57600080fd5b5050929190505050905090565b600060019054906101000a900460ff16806111ab57506111aa6116c7565b5b806111c257506000809054906101000a900460ff16155b151561125c576040517f08c379a000000000000000000000000000000000000000000000000000000000815260040180806020018281038252602e8152602001807f436f6e747261637420696e7374616e63652068617320616c726561647920626581526020017f656e20696e697469616c697a656400000000000000000000000000000000000081525060400191505060405180910390fd5b60008060019054906101000a900460ff1615905080156112ac576001600060016101000a81548160ff02191690831515021790555060016000806101000a81548160ff0219169083151502179055505b83603360006101000a81548173ffffffffffffffffffffffffffffffffffffffff021916908373ffffffffffffffffffffffffffffffffffffffff16021790555082603460006101000a81548173ffffffffffffffffffffffffffffffffffffffff021916908373ffffffffffffffffffffffffffffffffffffffff16021790555081603560006101000a81548173ffffffffffffffffffffffffffffffffffffffff021916908373ffffffffffffffffffffffffffffffffffffffff16021790555080156113905760008060016101000a81548160ff0219169083151502179055505b50505050565b600080603360009054906101000a900473ffffffffffffffffffffffffffffffffffffffff1673ffffffffffffffffffffffffffffffffffffffff166335a6861a846040518263ffffffff167c0100000000000000000000000000000000000000000000000000000000028152600401808273ffffffffffffffffffffffffffffffffffffffff1673ffffffffffffffffffffffffffffffffffffffff16815260200191505060206040518083038186803b15801561145457600080fd5b505afa158015611468573d6000803e3d6000fd5b505050506040513d602081101561147e57600080fd5b810190808051906020019092919050505090506000600102811415156114a85760019150506116c2565b603460009054906101000a900473ffffffffffffffffffffffffffffffffffffffff1673ffffffffffffffffffffffffffffffffffffffff166335a6861a846040518263ffffffff167c0100000000000000000000000000000000000000000000000000000000028152600401808273ffffffffffffffffffffffffffffffffffffffff1673ffffffffffffffffffffffffffffffffffffffff16815260200191505060206040518083038186803b15801561156357600080fd5b505afa158015611577573d6000803e3d6000fd5b505050506040513d602081101561158d57600080fd5b810190808051906020019092919050505090506000600102811415156115b75760029150506116c2565b603560009054906101000a900473ffffffffffffffffffffffffffffffffffffffff1673ffffffffffffffffffffffffffffffffffffffff16636c2b04fd846040518263ffffffff167c0100000000000000000000000000000000000000000000000000000000028152600401808273ffffffffffffffffffffffffffffffffffffffff1673ffffffffffffffffffffffffffffffffffffffff16815260200191505060206040518083038186803b15801561167257600080fd5b505afa158015611686573d6000803e3d6000fd5b505050506040513d602081101561169c57600080fd5b8101908080519060200190929190505050156116bc5760039150506116c2565b60009150505b919050565b600080303b9050600081149150509056fea165627a7a7230582098dcecc0802a500af944244eecdd934ce695941d4e0b903d93cba749aa3a52c40029",
  "source": "pragma solidity ^0.5.0;\n\nimport \"zos-lib/contracts/Initializable.sol\";\n\nimport \"./Citizen.sol\";\nimport \"./BusinessOwner.sol\";\nimport \"./Government.sol\";\n\n/// @title UserManager\ncontract UserManager is Initializable{\n\n    enum userType { NotRegistered, Citizen, BusinessOwner, Government }\n\n    Citizen internal citizen;\n    BusinessOwner internal businessOwner;\n    Government internal government;\n\n    /**\n    * @dev Initializes the contract saving the instances of the proxies of the contracts used by this contract\n    * @param _citizen The instance of the proxy of the Citizen contract of this project\n    * @param _businessOwner The instance of the proxy of the BusinessOwner contract of this project\n    * @param _government The instance of the proxy of the Government contract of this project\n    */\n    function initialize(address _citizen, address _businessOwner, address _government) initializer public {\n        citizen = Citizen(_citizen);\n        businessOwner = BusinessOwner(_businessOwner);\n        government = Government(_government);\n    }\n\n    /**\n    * @dev Checks that only the government user can call a function\n    */\n    modifier onlyGovernment {\n        userType uType = isRegistered(msg.sender);\n        require(uType == userType.Government);\n        _;\n    }\n\n    /**\n    * @dev Checks that only not registered users can call a function\n    */\n    modifier onlyNotRegistered {\n        userType uType = isRegistered(msg.sender);\n        require(uType == userType.NotRegistered);\n        _;\n    }\n\n    /**\n    * @dev Returns the user type of the user who calls the function\n    */\n    function login() public view returns(userType){\n        return isRegistered(msg.sender);\n    }\n\n    /**\n    * @dev Returns the user type of a given user\n    * @param _user The address of the user to check\n    */\n    function isRegistered(address _user) public view returns(userType){\n        bytes32 hash = citizen.login(_user);\n        if(hash != 0x0)\n            return userType.Citizen;\n        hash = businessOwner.login(_user);\n        if(hash != 0x0)\n            return userType.BusinessOwner;\n        if(government.isGovernment(_user))\n            return userType.Government;\n        return userType.NotRegistered;\n    }\n\n    /**\n    * @dev Returns the hash of a given user if it's either a citizen or a business owner; 0x0 otherwise\n    * @param _user The address of the user\n    */\n    function getUserHash(address _user) public view returns(bytes32){\n        userType uType = isRegistered(_user);\n        if(uType == userType.Citizen)\n            return citizen.login(_user);\n        if(uType == userType.BusinessOwner)\n            return businessOwner.login(_user);\n        return 0x0;\n    }\n\n    /**\n    * @dev Registers a user either as a citizen or a business owner\n    * @param _type The type of the user to register\n    * @param _hash The hash of the data (in IPFS) of the user to register\n    */\n    function registerUser(userType _type, bytes32 _hash) public onlyNotRegistered {\n        require(_type == userType.Citizen || _type == userType.BusinessOwner);\n        if(_type == userType.Citizen) {\n            citizen.registerCitizen(_hash, msg.sender);\n        } else {\n            businessOwner.registerBusinessOwner(_hash, msg.sender);\n        }\n    }\n\n    /**\n    * @dev Returns a dynamic array containing all registered citizens' addresses\n    */\n    function getAllCitizens() public view returns(address[] memory){\n        return citizen.getAllCitizens();\n    }\n\n    /**\n    * @dev Returns a dynamic array containing all registered business owners' addresses\n    */\n    function getAllBusinessOwners() public view returns(address[] memory){\n        return businessOwner.getAllBusinessOwners();\n    }\n\n    /**\n    * @dev Returns the address of the government user\n    */\n    function getGovernmentAddress() public view returns(address){\n        return government.getGovernmentAddress();\n    }\n\n\n    /**\n    * @dev Returns a dynamic array containing all registered users' addresses\n    */\n    function getAllRegisteredUsers() public view returns(address[] memory){\n        address[] memory allCitizens = getAllCitizens();\n        address[] memory allBusinessOwners = getAllBusinessOwners();\n        address[] memory registeredUsers = new address[](allCitizens.length + allBusinessOwners.length);\n        uint256 index = 0;\n        for (uint256 i = 0; i < allCitizens.length; i++) {\n            registeredUsers[index] = allCitizens[i];\n            index ++;\n        }\n        for (uint256 i = 0; i < allBusinessOwners.length; i++) {\n            registeredUsers[index] = allBusinessOwners[i];\n            index ++;\n        }\n        return registeredUsers;\n    }\n\n    /**\n    * @dev Returns true if the given business owner is confirmed\n    * @param _businessOwner The address of the business owner to check\n    */\n    function isBusinessOwnerConfirmed(address _businessOwner) public view returns(uint256) {\n        return businessOwner.isConfirmed(_businessOwner);\n    }\n\n    /**\n    * @dev Confirms the given business owner\n    * @param _businessOwner The address of the business owner to confirm\n    */\n    function confirmBusinessOwner(address _businessOwner) public onlyGovernment {\n        businessOwner.confirmBusiness(_businessOwner);\n    }\n\n    /**\n    * @dev Removes the given business owner\n    * @param _businessOwner The address of the business owner to remove\n    */\n    function removeBusinessOwner(address _businessOwner) public onlyGovernment {\n        businessOwner.removeBusiness(_businessOwner);\n    }\n\n}\n",
  "sourcePath": "/home/nicolabba/WebstormProjects/The-Walking-Bug/Soldino/contracts/UserManager.sol",
  "compiler": {
    "name": "solc",
    "version": "0.5.0+commit.1d4f565a.Emscripten.clang"
  },
  "schemaVersion": "3.0.6",
  "updatedAt": "2019-05-16T08:07:59.635Z",
  "devdoc": {
    "methods": {
      "confirmBusinessOwner(address)": {
        "details": "Confirms the given business owner",
        "params": {
          "_businessOwner": "The address of the business owner to confirm"
        }
      },
      "getAllBusinessOwners()": {
        "details": "Returns a dynamic array containing all registered business owners' addresses"
      },
      "getAllCitizens()": {
        "details": "Returns a dynamic array containing all registered citizens' addresses"
      },
      "getAllRegisteredUsers()": {
        "details": "Returns a dynamic array containing all registered users' addresses"
      },
      "getGovernmentAddress()": {
        "details": "Returns the address of the government user"
      },
      "getUserHash(address)": {
        "details": "Returns the hash of a given user if it's either a citizen or a business owner; 0x0 otherwise",
        "params": {
          "_user": "The address of the user"
        }
      },
      "initialize(address,address,address)": {
        "details": "Initializes the contract saving the instances of the proxies of the contracts used by this contract",
        "params": {
          "_businessOwner": "The instance of the proxy of the BusinessOwner contract of this project",
          "_citizen": "The instance of the proxy of the Citizen contract of this project",
          "_government": "The instance of the proxy of the Government contract of this project"
        }
      },
      "isBusinessOwnerConfirmed(address)": {
        "details": "Returns true if the given business owner is confirmed",
        "params": {
          "_businessOwner": "The address of the business owner to check"
        }
      },
      "isRegistered(address)": {
        "details": "Returns the user type of a given user",
        "params": {
          "_user": "The address of the user to check"
        }
      },
      "login()": {
        "details": "Returns the user type of the user who calls the function"
      },
      "registerUser(uint8,bytes32)": {
        "details": "Registers a user either as a citizen or a business owner",
        "params": {
          "_hash": "The hash of the data (in IPFS) of the user to register",
          "_type": "The type of the user to register"
        }
      },
      "removeBusinessOwner(address)": {
        "details": "Removes the given business owner",
        "params": {
          "_businessOwner": "The address of the business owner to remove"
        }
      }
    },
    "title": "UserManager"
  },
  "userdoc": {
    "methods": {}
  }
}