{
  "contractName": "VAT",
  "abi": [
    {
      "constant": false,
      "inputs": [
        {
          "name": "_cubit",
          "type": "address"
        },
        {
          "name": "_userManager",
          "type": "address"
        },
        {
          "name": "_vatTransaction",
          "type": "address"
        },
        {
          "name": "_productTransaction",
          "type": "address"
        }
      ],
      "name": "initialize",
      "outputs": [],
      "payable": false,
      "stateMutability": "nonpayable",
      "type": "function"
    },
    {
      "constant": true,
      "inputs": [
        {
          "name": "_year",
          "type": "uint256"
        },
        {
          "name": "_quarter",
          "type": "uint8"
        },
        {
          "name": "_businessOwner",
          "type": "address"
        }
      ],
      "name": "getQuarterVATBalance",
      "outputs": [
        {
          "name": "",
          "type": "int256"
        }
      ],
      "payable": false,
      "stateMutability": "view",
      "type": "function"
    },
    {
      "constant": false,
      "inputs": [
        {
          "name": "_year",
          "type": "uint256"
        },
        {
          "name": "_quarter",
          "type": "uint8"
        }
      ],
      "name": "payVATToGovernment",
      "outputs": [],
      "payable": false,
      "stateMutability": "nonpayable",
      "type": "function"
    },
    {
      "constant": false,
      "inputs": [
        {
          "name": "_year",
          "type": "uint256"
        },
        {
          "name": "_quarter",
          "type": "uint8"
        }
      ],
      "name": "refusePayment",
      "outputs": [],
      "payable": false,
      "stateMutability": "nonpayable",
      "type": "function"
    },
    {
      "constant": false,
      "inputs": [
        {
          "name": "_year",
          "type": "uint256"
        },
        {
          "name": "_quarter",
          "type": "uint8"
        },
        {
          "name": "_businessOwner",
          "type": "address"
        }
      ],
      "name": "payVATToBusinessOwner",
      "outputs": [],
      "payable": false,
      "stateMutability": "nonpayable",
      "type": "function"
    },
    {
      "constant": true,
      "inputs": [
        {
          "name": "_year",
          "type": "uint256"
        },
        {
          "name": "_quarter",
          "type": "uint8"
        },
        {
          "name": "_businessOwner",
          "type": "address"
        }
      ],
      "name": "getBusinessVATStatus",
      "outputs": [
        {
          "name": "",
          "type": "uint8"
        },
        {
          "name": "",
          "type": "uint256"
        }
      ],
      "payable": false,
      "stateMutability": "view",
      "type": "function"
    }
  ],
  "bytecode": "0x608060405234801561001057600080fd5b50612bab806100206000396000f3fe608060405260043610610078576000357c0100000000000000000000000000000000000000000000000000000000900463ffffffff168063351abe611461007d578063a62086221461010e578063a68eb55514610156578063ab51cff2146101be578063ad7388451461023a578063f8c8765e14610282575b600080fd5b34801561008957600080fd5b506100e3600480360360608110156100a057600080fd5b8101908080359060200190929190803560ff169060200190929190803573ffffffffffffffffffffffffffffffffffffffff169060200190929190505050610333565b604051808360058111156100f357fe5b60ff1681526020018281526020019250505060405180910390f35b34801561011a57600080fd5b506101546004803603604081101561013157600080fd5b8101908080359060200190929190803560ff1690602001909291905050506109d9565b005b34801561016257600080fd5b506101bc6004803603606081101561017957600080fd5b8101908080359060200190929190803560ff169060200190929190803573ffffffffffffffffffffffffffffffffffffffff169060200190929190505050610f8f565b005b3480156101ca57600080fd5b50610224600480360360608110156101e157600080fd5b8101908080359060200190929190803560ff169060200190929190803573ffffffffffffffffffffffffffffffffffffffff169060200190929190505050611732565b6040518082815260200191505060405180910390f35b34801561024657600080fd5b506102806004803603604081101561025d57600080fd5b8101908080359060200190929190803560ff169060200190929190505050611a81565b005b34801561028e57600080fd5b50610331600480360360808110156102a557600080fd5b81019080803573ffffffffffffffffffffffffffffffffffffffff169060200190929190803573ffffffffffffffffffffffffffffffffffffffff169060200190929190803573ffffffffffffffffffffffffffffffffffffffff169060200190929190803573ffffffffffffffffffffffffffffffffffffffff16906020019092919050505061222d565b005b600080826002603460009054906101000a900473ffffffffffffffffffffffffffffffffffffffff1673ffffffffffffffffffffffffffffffffffffffff1663c3c5a547836040518263ffffffff167c0100000000000000000000000000000000000000000000000000000000028152600401808273ffffffffffffffffffffffffffffffffffffffff1673ffffffffffffffffffffffffffffffffffffffff16815260200191505060206040518083038186803b1580156103f457600080fd5b505afa158015610408573d6000803e3d6000fd5b505050506040513d602081101561041e57600080fd5b8101908080519060200190929190505050600381111561043a57fe5b1415156104af576040517f08c379a00000000000000000000000000000000000000000000000000000000081526004018080602001828103825260208152602001807f427573696e657373206f776e6572206973206e6f74207265676973746572656481525060200191505060405180910390fd5b6000603460009054906101000a900473ffffffffffffffffffffffffffffffffffffffff1673ffffffffffffffffffffffffffffffffffffffff166392e5c9c9836040518263ffffffff167c0100000000000000000000000000000000000000000000000000000000028152600401808273ffffffffffffffffffffffffffffffffffffffff1673ffffffffffffffffffffffffffffffffffffffff16815260200191505060206040518083038186803b15801561056c57600080fd5b505afa158015610580573d6000803e3d6000fd5b505050506040513d602081101561059657600080fd5b81019080805190602001909291905050501415151561061d576040517f08c379a000000000000000000000000000000000000000000000000000000000815260040180806020018281038252601f8152602001807f427573696e657373206f776e6572206973206e6f7420636f6e6669726d65640081525060200191505060405180910390fd5b6000603560009054906101000a900473ffffffffffffffffffffffffffffffffffffffff1673ffffffffffffffffffffffffffffffffffffffff1663842bd2db8888886040518463ffffffff167c0100000000000000000000000000000000000000000000000000000000028152600401808481526020018360ff1660ff1681526020018273ffffffffffffffffffffffffffffffffffffffff1673ffffffffffffffffffffffffffffffffffffffff168152602001935050505060206040518083038186803b1580156106f057600080fd5b505afa158015610704573d6000803e3d6000fd5b505050506040513d602081101561071a57600080fd5b810190808051906020019092919050505090506000603560009054906101000a900473ffffffffffffffffffffffffffffffffffffffff1673ffffffffffffffffffffffffffffffffffffffff16634888bc118989896040518463ffffffff167c0100000000000000000000000000000000000000000000000000000000028152600401808481526020018360ff1660ff1681526020018273ffffffffffffffffffffffffffffffffffffffff1673ffffffffffffffffffffffffffffffffffffffff168152602001935050505060206040518083038186803b15801561080057600080fd5b505afa158015610814573d6000803e3d6000fd5b505050506040513d602081101561082a57600080fd5b8101908080519060200190929190505050905060008214156108b65760008114156108a857600061085c898989611732565b9050600081121561087a5760026000809050955095505050506109d0565b60008113156108965760016000809050955095505050506109d0565b600080809050955095505050506109d0565b6003819450945050506109d0565b6000603560009054906101000a900473ffffffffffffffffffffffffffffffffffffffff1673ffffffffffffffffffffffffffffffffffffffff166318cadf30846040518263ffffffff167c01000000000000000000000000000000000000000000000000000000000281526004018082815260200191505060a06040518083038186803b15801561094757600080fd5b505afa15801561095b573d6000803e3d6000fd5b505050506040513d60a081101561097157600080fd5b81019080805190602001909291908051906020019092919080519060200190929190805190602001909291908051906020019092919050505094505050505080156109c557600583955095505050506109d0565b600483955095505050505b50935093915050565b336002603460009054906101000a900473ffffffffffffffffffffffffffffffffffffffff1673ffffffffffffffffffffffffffffffffffffffff1663c3c5a547836040518263ffffffff167c0100000000000000000000000000000000000000000000000000000000028152600401808273ffffffffffffffffffffffffffffffffffffffff1673ffffffffffffffffffffffffffffffffffffffff16815260200191505060206040518083038186803b158015610a9757600080fd5b505afa158015610aab573d6000803e3d6000fd5b505050506040513d6020811015610ac157600080fd5b81019080805190602001909291905050506003811115610add57fe5b141515610b52576040517f08c379a00000000000000000000000000000000000000000000000000000000081526004018080602001828103825260208152602001807f427573696e657373206f776e6572206973206e6f74207265676973746572656481525060200191505060405180910390fd5b6000603460009054906101000a900473ffffffffffffffffffffffffffffffffffffffff1673ffffffffffffffffffffffffffffffffffffffff166392e5c9c9836040518263ffffffff167c0100000000000000000000000000000000000000000000000000000000028152600401808273ffffffffffffffffffffffffffffffffffffffff1673ffffffffffffffffffffffffffffffffffffffff16815260200191505060206040518083038186803b158015610c0f57600080fd5b505afa158015610c23573d6000803e3d6000fd5b505050506040513d6020811015610c3957600080fd5b810190808051906020019092919050505014151515610cc0576040517f08c379a000000000000000000000000000000000000000000000000000000000815260040180806020018281038252601f8152602001807f427573696e657373206f776e6572206973206e6f7420636f6e6669726d65640081525060200191505060405180910390fd5b6000610ccd848433611732565b90506000610cdc858533610333565b50905060026005811115610cec57fe5b816005811115610cf857fe5b141515610d93576040517f08c379a000000000000000000000000000000000000000000000000000000000815260040180806020018281038252602c8152602001807f43616e2774207265667573652056415420696620796f7520646f6e277420686181526020017f766520746f20706179206974000000000000000000000000000000000000000081525060400191505060405180910390fd5b603560009054906101000a900473ffffffffffffffffffffffffffffffffffffffff1673ffffffffffffffffffffffffffffffffffffffff16630705028c8360000333603460009054906101000a900473ffffffffffffffffffffffffffffffffffffffff1673ffffffffffffffffffffffffffffffffffffffff1663870c80796040518163ffffffff167c010000000000000000000000000000000000000000000000000000000002815260040160206040518083038186803b158015610e5a57600080fd5b505afa158015610e6e573d6000803e3d6000fd5b505050506040513d6020811015610e8457600080fd5b810190808051906020019092919050505060018a8a6040518763ffffffff167c0100000000000000000000000000000000000000000000000000000000028152600401808781526020018673ffffffffffffffffffffffffffffffffffffffff1673ffffffffffffffffffffffffffffffffffffffff1681526020018573ffffffffffffffffffffffffffffffffffffffff1673ffffffffffffffffffffffffffffffffffffffff168152602001841515151581526020018381526020018260ff1660ff1681526020019650505050505050600060405180830381600087803b158015610f7057600080fd5b505af1158015610f84573d6000803e3d6000fd5b505050505050505050565b6003603460009054906101000a900473ffffffffffffffffffffffffffffffffffffffff1673ffffffffffffffffffffffffffffffffffffffff1663c3c5a547336040518263ffffffff167c0100000000000000000000000000000000000000000000000000000000028152600401808273ffffffffffffffffffffffffffffffffffffffff1673ffffffffffffffffffffffffffffffffffffffff16815260200191505060206040518083038186803b15801561104c57600080fd5b505afa158015611060573d6000803e3d6000fd5b505050506040513d602081101561107657600080fd5b8101908080519060200190929190505050600381111561109257fe5b141515611107576040517f08c379a000000000000000000000000000000000000000000000000000000000815260040180806020018281038252601a8152602001807f55736572206973206e6f742074686520676f7665726e6d656e7400000000000081525060200191505060405180910390fd5b806002603460009054906101000a900473ffffffffffffffffffffffffffffffffffffffff1673ffffffffffffffffffffffffffffffffffffffff1663c3c5a547836040518263ffffffff167c0100000000000000000000000000000000000000000000000000000000028152600401808273ffffffffffffffffffffffffffffffffffffffff1673ffffffffffffffffffffffffffffffffffffffff16815260200191505060206040518083038186803b1580156111c557600080fd5b505afa1580156111d9573d6000803e3d6000fd5b505050506040513d60208110156111ef57600080fd5b8101908080519060200190929190505050600381111561120b57fe5b141515611280576040517f08c379a00000000000000000000000000000000000000000000000000000000081526004018080602001828103825260208152602001807f427573696e657373206f776e6572206973206e6f74207265676973746572656481525060200191505060405180910390fd5b6000603460009054906101000a900473ffffffffffffffffffffffffffffffffffffffff1673ffffffffffffffffffffffffffffffffffffffff166392e5c9c9836040518263ffffffff167c0100000000000000000000000000000000000000000000000000000000028152600401808273ffffffffffffffffffffffffffffffffffffffff1673ffffffffffffffffffffffffffffffffffffffff16815260200191505060206040518083038186803b15801561133d57600080fd5b505afa158015611351573d6000803e3d6000fd5b505050506040513d602081101561136757600080fd5b8101908080519060200190929190505050141515156113ee576040517f08c379a000000000000000000000000000000000000000000000000000000000815260040180806020018281038252601f8152602001807f427573696e657373206f776e6572206973206e6f7420636f6e6669726d65640081525060200191505060405180910390fd5b60006113fb858585611732565b9050600061140a868686610333565b5090506001600581111561141a57fe5b81600581111561142657fe5b1415156114c1576040517f08c379a00000000000000000000000000000000000000000000000000000000081526004018080602001828103825260298152602001807f43616e2774207061792056415420696620796f7520646f6e277420686176652081526020017f746f20706179206974000000000000000000000000000000000000000000000081525060400191505060405180910390fd5b603360009054906101000a900473ffffffffffffffffffffffffffffffffffffffff1673ffffffffffffffffffffffffffffffffffffffff166323b872dd3386856040518463ffffffff167c0100000000000000000000000000000000000000000000000000000000028152600401808473ffffffffffffffffffffffffffffffffffffffff1673ffffffffffffffffffffffffffffffffffffffff1681526020018373ffffffffffffffffffffffffffffffffffffffff1673ffffffffffffffffffffffffffffffffffffffff1681526020018281526020019350505050602060405180830381600087803b1580156115ba57600080fd5b505af11580156115ce573d6000803e3d6000fd5b505050506040513d60208110156115e457600080fd5b810190808051906020019092919050505050603560009054906101000a900473ffffffffffffffffffffffffffffffffffffffff1673ffffffffffffffffffffffffffffffffffffffff16630705028c83338760008b8b6040518763ffffffff167c0100000000000000000000000000000000000000000000000000000000028152600401808781526020018673ffffffffffffffffffffffffffffffffffffffff1673ffffffffffffffffffffffffffffffffffffffff1681526020018573ffffffffffffffffffffffffffffffffffffffff1673ffffffffffffffffffffffffffffffffffffffff168152602001841515151581526020018381526020018260ff1660ff1681526020019650505050505050600060405180830381600087803b15801561171257600080fd5b505af1158015611726573d6000803e3d6000fd5b50505050505050505050565b6000816002603460009054906101000a900473ffffffffffffffffffffffffffffffffffffffff1673ffffffffffffffffffffffffffffffffffffffff1663c3c5a547836040518263ffffffff167c0100000000000000000000000000000000000000000000000000000000028152600401808273ffffffffffffffffffffffffffffffffffffffff1673ffffffffffffffffffffffffffffffffffffffff16815260200191505060206040518083038186803b1580156117f257600080fd5b505afa158015611806573d6000803e3d6000fd5b505050506040513d602081101561181c57600080fd5b8101908080519060200190929190505050600381111561183857fe5b1415156118ad576040517f08c379a00000000000000000000000000000000000000000000000000000000081526004018080602001828103825260208152602001807f427573696e657373206f776e6572206973206e6f74207265676973746572656481525060200191505060405180910390fd5b6000603460009054906101000a900473ffffffffffffffffffffffffffffffffffffffff1673ffffffffffffffffffffffffffffffffffffffff166392e5c9c9836040518263ffffffff167c0100000000000000000000000000000000000000000000000000000000028152600401808273ffffffffffffffffffffffffffffffffffffffff1673ffffffffffffffffffffffffffffffffffffffff16815260200191505060206040518083038186803b15801561196a57600080fd5b505afa15801561197e573d6000803e3d6000fd5b505050506040513d602081101561199457600080fd5b810190808051906020019092919050505014151515611a1b576040517f08c379a000000000000000000000000000000000000000000000000000000000815260040180806020018281038252601f8152602001807f427573696e657373206f776e6572206973206e6f7420636f6e6669726d65640081525060200191505060405180910390fd5b6000611a278686612479565b90506000611a3587876124a0565b90506000611a448383886124d4565b90506000611a53848489612749565b90508181101515611a6c57818103955050505050611a79565b8082036000039550505050505b509392505050565b336002603460009054906101000a900473ffffffffffffffffffffffffffffffffffffffff1673ffffffffffffffffffffffffffffffffffffffff1663c3c5a547836040518263ffffffff167c0100000000000000000000000000000000000000000000000000000000028152600401808273ffffffffffffffffffffffffffffffffffffffff1673ffffffffffffffffffffffffffffffffffffffff16815260200191505060206040518083038186803b158015611b3f57600080fd5b505afa158015611b53573d6000803e3d6000fd5b505050506040513d6020811015611b6957600080fd5b81019080805190602001909291905050506003811115611b8557fe5b141515611bfa576040517f08c379a00000000000000000000000000000000000000000000000000000000081526004018080602001828103825260208152602001807f427573696e657373206f776e6572206973206e6f74207265676973746572656481525060200191505060405180910390fd5b6000603460009054906101000a900473ffffffffffffffffffffffffffffffffffffffff1673ffffffffffffffffffffffffffffffffffffffff166392e5c9c9836040518263ffffffff167c0100000000000000000000000000000000000000000000000000000000028152600401808273ffffffffffffffffffffffffffffffffffffffff1673ffffffffffffffffffffffffffffffffffffffff16815260200191505060206040518083038186803b158015611cb757600080fd5b505afa158015611ccb573d6000803e3d6000fd5b505050506040513d6020811015611ce157600080fd5b810190808051906020019092919050505014151515611d68576040517f08c379a000000000000000000000000000000000000000000000000000000000815260040180806020018281038252601f8152602001807f427573696e657373206f776e6572206973206e6f7420636f6e6669726d65640081525060200191505060405180910390fd5b6000611d75848433611732565b90506000611d84858533610333565b50905060026005811115611d9457fe5b816005811115611da057fe5b141515611e3b576040517f08c379a00000000000000000000000000000000000000000000000000000000081526004018080602001828103825260298152602001807f43616e2774207061792056415420696620796f7520646f6e277420686176652081526020017f746f20706179206974000000000000000000000000000000000000000000000081525060400191505060405180910390fd5b603360009054906101000a900473ffffffffffffffffffffffffffffffffffffffff1673ffffffffffffffffffffffffffffffffffffffff166323b872dd33603460009054906101000a900473ffffffffffffffffffffffffffffffffffffffff1673ffffffffffffffffffffffffffffffffffffffff1663870c80796040518163ffffffff167c010000000000000000000000000000000000000000000000000000000002815260040160206040518083038186803b158015611efe57600080fd5b505afa158015611f12573d6000803e3d6000fd5b505050506040513d6020811015611f2857600080fd5b8101908080519060200190929190505050856000036040518463ffffffff167c0100000000000000000000000000000000000000000000000000000000028152600401808473ffffffffffffffffffffffffffffffffffffffff1673ffffffffffffffffffffffffffffffffffffffff1681526020018373ffffffffffffffffffffffffffffffffffffffff1673ffffffffffffffffffffffffffffffffffffffff1681526020018281526020019350505050602060405180830381600087803b158015611ff557600080fd5b505af1158015612009573d6000803e3d6000fd5b505050506040513d602081101561201f57600080fd5b810190808051906020019092919050505050603560009054906101000a900473ffffffffffffffffffffffffffffffffffffffff1673ffffffffffffffffffffffffffffffffffffffff16630705028c8360000333603460009054906101000a900473ffffffffffffffffffffffffffffffffffffffff1673ffffffffffffffffffffffffffffffffffffffff1663870c80796040518163ffffffff167c010000000000000000000000000000000000000000000000000000000002815260040160206040518083038186803b1580156120f857600080fd5b505afa15801561210c573d6000803e3d6000fd5b505050506040513d602081101561212257600080fd5b810190808051906020019092919050505060008a8a6040518763ffffffff167c0100000000000000000000000000000000000000000000000000000000028152600401808781526020018673ffffffffffffffffffffffffffffffffffffffff1673ffffffffffffffffffffffffffffffffffffffff1681526020018573ffffffffffffffffffffffffffffffffffffffff1673ffffffffffffffffffffffffffffffffffffffff168152602001841515151581526020018381526020018260ff1660ff1681526020019650505050505050600060405180830381600087803b15801561220e57600080fd5b505af1158015612222573d6000803e3d6000fd5b505050505050505050565b600060019054906101000a900460ff168061224c575061224b6129be565b5b8061226357506000809054906101000a900460ff16155b15156122fd576040517f08c379a000000000000000000000000000000000000000000000000000000000815260040180806020018281038252602e8152602001807f436f6e747261637420696e7374616e63652068617320616c726561647920626581526020017f656e20696e697469616c697a656400000000000000000000000000000000000081525060400191505060405180910390fd5b60008060019054906101000a900460ff16159050801561234d576001600060016101000a81548160ff02191690831515021790555060016000806101000a81548160ff0219169083151502179055505b84603360006101000a81548173ffffffffffffffffffffffffffffffffffffffff021916908373ffffffffffffffffffffffffffffffffffffffff16021790555083603460006101000a81548173ffffffffffffffffffffffffffffffffffffffff021916908373ffffffffffffffffffffffffffffffffffffffff16021790555082603560006101000a81548173ffffffffffffffffffffffffffffffffffffffff021916908373ffffffffffffffffffffffffffffffffffffffff16021790555081603660006101000a81548173ffffffffffffffffffffffffffffffffffffffff021916908373ffffffffffffffffffffffffffffffffffffffff16021790555080156124725760008060016101000a81548160ff0219169083151502179055505b5050505050565b6000806001600360018503020160ff169050612497848260016129cf565b91505092915050565b6000806003830260ff16905060006124b885836129ea565b9050620151806124c98684846129cf565b019250505092915050565b60006060603660009054906101000a900473ffffffffffffffffffffffffffffffffffffffff1673ffffffffffffffffffffffffffffffffffffffff166360c1e4338487876040518463ffffffff167c0100000000000000000000000000000000000000000000000000000000028152600401808473ffffffffffffffffffffffffffffffffffffffff1673ffffffffffffffffffffffffffffffffffffffff168152602001838152602001828152602001935050505060006040518083038186803b1580156125a357600080fd5b505afa1580156125b7573d6000803e3d6000fd5b505050506040513d6000823e3d601f19601f8201168201806040525060208110156125e157600080fd5b8101908080516401000000008111156125f957600080fd5b8281019050602081018481111561260f57600080fd5b815185602082028301116401000000008211171561262c57600080fd5b50509291905050509050600080905060008090505b825181101561273c57603660009054906101000a900473ffffffffffffffffffffffffffffffffffffffff1673ffffffffffffffffffffffffffffffffffffffff1663b4f7451b848381518110151561269657fe5b906020019060200201516040518263ffffffff167c01000000000000000000000000000000000000000000000000000000000281526004018082815260200191505060206040518083038186803b1580156126f057600080fd5b505afa158015612704573d6000803e3d6000fd5b505050506040513d602081101561271a57600080fd5b8101908080519060200190929190505050820191508080600101915050612641565b5080925050509392505050565b60006060603660009054906101000a900473ffffffffffffffffffffffffffffffffffffffff1673ffffffffffffffffffffffffffffffffffffffff16639e1e93388487876040518463ffffffff167c0100000000000000000000000000000000000000000000000000000000028152600401808473ffffffffffffffffffffffffffffffffffffffff1673ffffffffffffffffffffffffffffffffffffffff168152602001838152602001828152602001935050505060006040518083038186803b15801561281857600080fd5b505afa15801561282c573d6000803e3d6000fd5b505050506040513d6000823e3d601f19601f82011682018060405250602081101561285657600080fd5b81019080805164010000000081111561286e57600080fd5b8281019050602081018481111561288457600080fd5b81518560208202830111640100000000821117156128a157600080fd5b50509291905050509050600080905060008090505b82518110156129b157603660009054906101000a900473ffffffffffffffffffffffffffffffffffffffff1673ffffffffffffffffffffffffffffffffffffffff1663b4f7451b848381518110151561290b57fe5b906020019060200201516040518263ffffffff167c01000000000000000000000000000000000000000000000000000000000281526004018082815260200191505060206040518083038186803b15801561296557600080fd5b505afa158015612979573d6000803e3d6000fd5b505050506040513d602081101561298f57600080fd5b81019080805190602001909291905050508201915080806001019150506128b6565b5080925050509392505050565b600080303b90506000811491505090565b6000620151806129e0858585612a77565b0290509392505050565b600060018214806129fb5750600382145b80612a065750600582145b80612a115750600782145b80612a1c5750600882145b80612a275750600a82145b80612a325750600c82145b15612a4057601f9050612a71565b600282141515612a5357601e9050612a70565b612a5c83612b36565b612a6757601c612a6a565b601d5b60ff1690505b5b92915050565b60006107b28410151515612a8a57600080fd5b600084905060008490506000849050600062253d8c60046064600c600e8703811515612ab257fe5b05611324880101811515612ac257fe5b05600302811515612acf57fe5b05600c80600c600e8803811515612ae257fe5b0502600287030361016f02811515612af657fe5b056004600c600e8803811515612b0857fe5b056112c08901016105b502811515612b1c57fe5b05617d4b8603010103039050809450505050509392505050565b600080600483811515612b4557fe5b06148015612b6057506000606483811515612b5c57fe5b0614155b80612b785750600061019083811515612b7557fe5b06145b905091905056fea165627a7a72305820fbf1f3356a9f545f3f664b84db1628b14cf89254a36e71c3955305e7310f5f480029",
  "source": "pragma solidity >= 0.5.0;\n\nimport \"zos-lib/contracts/Initializable.sol\";\n\nimport \"./UserManager.sol\";\nimport \"./Cubit.sol\";\nimport \"./VATTransaction.sol\";\nimport \"./ProductTransaction.sol\";\nimport \"./BPBDateTimeLibrary.sol\";\n\ncontract VAT is Initializable{\n    using BPBDateTimeLibrary for uint;\n\n    enum VATStatus {\n        NotNecessary,\n        ToReceive,\n        ToPay,\n        Received,\n        Payed,\n        Refused\n    }\n\n    Cubit internal cubit;\n    UserManager internal userManager;\n    VATTransaction internal vatTransaction;\n    ProductTransaction internal productTransaction;\n\n    /**\n    * @dev Initializes the contract saving the instances of the proxies of the contracts used by this contract\n    * @param _cubit The instance of the proxy of the Cubit contract of this project\n    * @param _userManager The instance of the proxy of the UserManager contract of this project\n    * @param _vatTransaction The instance of the proxy of the VATTransaction contract of this project\n    * @param _productTransaction The instance of the proxy of the ProductTransaction contract of this project\n    */\n    function initialize(address _cubit, address _userManager, address _vatTransaction, address _productTransaction)\n    public initializer {\n        cubit = Cubit(_cubit);\n        userManager = UserManager(_userManager);\n        vatTransaction = VATTransaction(_vatTransaction);\n        productTransaction = ProductTransaction(_productTransaction);\n    }\n\n    /**\n    * @dev Checks if a given user is a confirmed business owner\n    * @param _businessOwner The address of the user to check\n    */\n    modifier onlyValidBusinessOwner(address _businessOwner){\n        require(uint256(userManager.isRegistered(_businessOwner)) == 2, \"Business owner is not registered\");\n        require(userManager.isBusinessOwnerConfirmed(_businessOwner) != 0, \"Business owner is not confirmed\");\n        _;\n    }\n\n    /**\n    * @dev Checks if the calling user is the government\n    */\n    modifier onlyGovernment(){\n        require(uint(userManager.isRegistered(msg.sender)) == 3, \"User is not the government\");\n        _;\n    }\n\n    /**\n    * @dev Returns the vat balance for a given user in a given quarter\n    * @param _year The year of the quarter\n    * @param _quarter The quarter (1-4) check in which to check the balance of the business owner\n    * @param _businessOwner The address of the business owner whose balance to get\n    */\n    function getQuarterVATBalance(uint256 _year, uint8 _quarter, address _businessOwner) view public\n    onlyValidBusinessOwner(_businessOwner) returns(int) {\n        uint256 fromDate = BPBDateTimeLibrary.getQuarterBeginning(_year, _quarter);\n        uint256 toDate = BPBDateTimeLibrary.getQuarterEnd(_year, _quarter);\n\n        uint256 toPay = _getVATToPay(fromDate, toDate, _businessOwner);\n        uint256 toCollect = _getVATToCollect(fromDate, toDate, _businessOwner);\n\n        if(toCollect >= toPay) {\n            return int(toCollect - toPay);\n        }else {\n            return -(int(toPay - toCollect));\n        }\n    }\n\n    /**\n    * @dev Returns the VAT to pay of a given business owner from a given date to another\n    * @param _fromDate The date from which to get the VAT\n    * @param _toDate The date up to which to get the VAT\n    * @param _businessOwner The address of the business owner whose VAT to get\n    */\n    function _getVATToPay(uint256 _fromDate, uint256 _toDate, address _businessOwner) view internal returns(uint) {\n        uint256[]  memory transactions = productTransaction.getSellerTransaction(_businessOwner, _fromDate, _toDate);\n\n        uint256 amount = 0;\n        for (uint256 i = 0; i < transactions.length; i++) {\n            amount += productTransaction.getTransactionVATTotal(transactions[i]);\n        }\n\n        return amount;\n    }\n\n    /**\n    * @dev Returns the VAT to collect of a given business owner from a given date to another\n    * @param _fromDate The date from which to get the VAT\n    * @param _toDate The date up to which to get the VAT\n    * @param _businessOwner The address of the business owner whose VAT to get\n    */\n    function _getVATToCollect(uint256 _fromDate, uint256 _toDate, address _businessOwner) view internal returns(uint) {\n        uint256[]  memory transactions = productTransaction.getBuyerTransaction(_businessOwner, _fromDate, _toDate);\n\n        uint256 amount = 0;\n        for (uint256 i = 0; i < transactions.length; i++) {\n            amount += productTransaction.getTransactionVATTotal(transactions[i]);\n        }\n\n        return amount;\n    }\n\n    /**\n    * @dev Allows a business owner to pay the VAT of a given quarter to the government\n    * @param _year The year of the quarter to pay\n    * @param _quarter The quarter (1-4) in the given year to pay\n    */\n    function payVATToGovernment(uint256 _year, uint8 _quarter) public onlyValidBusinessOwner(msg.sender) {\n        int256 amount = getQuarterVATBalance(_year, _quarter, msg.sender);\n        (VATStatus status,) = getBusinessVATStatus(_year, _quarter, msg.sender);\n        require(status == VATStatus.ToPay, \"Can't pay VAT if you don't have to pay it\");\n        cubit.transferFrom(msg.sender, userManager.getGovernmentAddress(), uint(-amount));\n        vatTransaction.addTransaction(uint(-amount), msg.sender, userManager.getGovernmentAddress(), false, _year, _quarter);\n    }\n\n    /**\n    * @dev Allows a business owner to refuse the payment of the VAT of a given quarter to the government\n    * @param _year The year of the quarter to refuse\n    * @param _quarter The quarter (1-4) in the given year to refuse\n    */\n    function refusePayment(uint256 _year, uint8 _quarter) public onlyValidBusinessOwner(msg.sender) {\n        int256 amount = getQuarterVATBalance(_year, _quarter, msg.sender);\n        (VATStatus status,) = getBusinessVATStatus(_year, _quarter, msg.sender);\n        require(status == VATStatus.ToPay, \"Can't refuse VAT if you don't have to pay it\");\n        vatTransaction.addTransaction(uint(-amount), msg.sender, userManager.getGovernmentAddress(), true, _year, _quarter);\n    }\n\n    /**\n    * @dev Allows the government to pay the VAT of a given quarter to a given business owner\n    * @param _year The year of the quarter to pay\n    * @param _quarter The quarter (1-4) in the given year to pay\n    */\n    function payVATToBusinessOwner(uint256 _year, uint8 _quarter, address _businessOwner) public onlyGovernment onlyValidBusinessOwner(_businessOwner) {\n        int256 amount = getQuarterVATBalance(_year, _quarter, _businessOwner);\n        (VATStatus status,) = getBusinessVATStatus(_year, _quarter, _businessOwner);\n        require(status == VATStatus.ToReceive, \"Can't pay VAT if you don't have to pay it\");\n        cubit.transferFrom(msg.sender, _businessOwner, uint(amount));\n        vatTransaction.addTransaction(uint(amount), msg.sender, _businessOwner, false, _year, _quarter);\n    }\n\n    /**\n    * @dev Returns the status of the payment of the VAT for a given business owner in a given quarter and eventually the\n     transaction associated with the payment\n    * @param _year The year of the quarter\n    * @param _quarter The quarter (1-4) in the given year\n    * @param _businessOwner The address of the business owner\n    */\n    function getBusinessVATStatus(uint256 _year, uint8 _quarter, address _businessOwner) public view\n    onlyValidBusinessOwner(_businessOwner) returns(VATStatus, uint256){\n        uint256 deductionId = vatTransaction.getDeduction(_year, _quarter, _businessOwner);\n        uint256 compensationId = vatTransaction.getCompensation(_year, _quarter, _businessOwner);\n        if(deductionId == 0) {\n            if(compensationId == 0){\n                int256 balance = getQuarterVATBalance(_year, _quarter, _businessOwner);\n                if(balance < 0)\n                    return (VATStatus.ToPay, 0);\n                if(balance > 0)\n                    return (VATStatus.ToReceive, 0);\n                return (VATStatus.NotNecessary, 0);\n            }\n            return (VATStatus.Received, compensationId);\n        }\n        (,,,,bool refused) = vatTransaction.getVATTransactionData(deductionId);\n        if (refused)\n            return (VATStatus.Refused, deductionId);\n        return (VATStatus.Payed, deductionId);\n    }\n}\n",
  "sourcePath": "/home/nicolabba/WebstormProjects/The-Walking-Bug/Soldino/contracts/VAT.sol",
  "compiler": {
    "name": "solc",
    "version": "0.5.0+commit.1d4f565a.Emscripten.clang"
  },
  "schemaVersion": "3.0.6",
  "updatedAt": "2019-05-16T08:08:00.109Z",
  "devdoc": {
    "methods": {
      "getBusinessVATStatus(uint256,uint8,address)": {
        "details": "Returns the status of the payment of the VAT for a given business owner in a given quarter and eventually the transaction associated with the payment",
        "params": {
          "_businessOwner": "The address of the business owner",
          "_quarter": "The quarter (1-4) in the given year",
          "_year": "The year of the quarter"
        }
      },
      "getQuarterVATBalance(uint256,uint8,address)": {
        "details": "Returns the vat balance for a given user in a given quarter",
        "params": {
          "_businessOwner": "The address of the business owner whose balance to get",
          "_quarter": "The quarter (1-4) check in which to check the balance of the business owner",
          "_year": "The year of the quarter"
        }
      },
      "initialize(address,address,address,address)": {
        "details": "Initializes the contract saving the instances of the proxies of the contracts used by this contract",
        "params": {
          "_cubit": "The instance of the proxy of the Cubit contract of this project",
          "_productTransaction": "The instance of the proxy of the ProductTransaction contract of this project",
          "_userManager": "The instance of the proxy of the UserManager contract of this project",
          "_vatTransaction": "The instance of the proxy of the VATTransaction contract of this project"
        }
      },
      "payVATToBusinessOwner(uint256,uint8,address)": {
        "details": "Allows the government to pay the VAT of a given quarter to a given business owner",
        "params": {
          "_quarter": "The quarter (1-4) in the given year to pay",
          "_year": "The year of the quarter to pay"
        }
      },
      "payVATToGovernment(uint256,uint8)": {
        "details": "Allows a business owner to pay the VAT of a given quarter to the government",
        "params": {
          "_quarter": "The quarter (1-4) in the given year to pay",
          "_year": "The year of the quarter to pay"
        }
      },
      "refusePayment(uint256,uint8)": {
        "details": "Allows a business owner to refuse the payment of the VAT of a given quarter to the government",
        "params": {
          "_quarter": "The quarter (1-4) in the given year to refuse",
          "_year": "The year of the quarter to refuse"
        }
      }
    }
  },
  "userdoc": {
    "methods": {}
  }
}