{
  "contractName": "VATMock",
  "abi": [
    {
      "constant": true,
      "inputs": [
        {
          "name": "_year",
          "type": "uint256"
        },
        {
          "name": "_quarter",
          "type": "uint8"
        },
        {
          "name": "_businessOwner",
          "type": "address"
        }
      ],
      "name": "getBusinessVATStatus",
      "outputs": [
        {
          "name": "",
          "type": "uint8"
        },
        {
          "name": "",
          "type": "uint256"
        }
      ],
      "payable": false,
      "stateMutability": "view",
      "type": "function"
    },
    {
      "constant": false,
      "inputs": [
        {
          "name": "_year",
          "type": "uint256"
        },
        {
          "name": "_quarter",
          "type": "uint8"
        }
      ],
      "name": "refusePayment",
      "outputs": [],
      "payable": false,
      "stateMutability": "nonpayable",
      "type": "function"
    },
    {
      "constant": false,
      "inputs": [
        {
          "name": "_year",
          "type": "uint256"
        },
        {
          "name": "_quarter",
          "type": "uint8"
        },
        {
          "name": "_businessOwner",
          "type": "address"
        }
      ],
      "name": "payVATToBusinessOwner",
      "outputs": [],
      "payable": false,
      "stateMutability": "nonpayable",
      "type": "function"
    },
    {
      "constant": true,
      "inputs": [
        {
          "name": "_year",
          "type": "uint256"
        },
        {
          "name": "_quarter",
          "type": "uint8"
        },
        {
          "name": "_businessOwner",
          "type": "address"
        }
      ],
      "name": "getQuarterVATBalance",
      "outputs": [
        {
          "name": "",
          "type": "int256"
        }
      ],
      "payable": false,
      "stateMutability": "view",
      "type": "function"
    },
    {
      "constant": false,
      "inputs": [
        {
          "name": "_year",
          "type": "uint256"
        },
        {
          "name": "_quarter",
          "type": "uint8"
        }
      ],
      "name": "payVATToGovernment",
      "outputs": [],
      "payable": false,
      "stateMutability": "nonpayable",
      "type": "function"
    },
    {
      "constant": false,
      "inputs": [
        {
          "name": "_cubit",
          "type": "address"
        },
        {
          "name": "_userManager",
          "type": "address"
        },
        {
          "name": "_vatTransaction",
          "type": "address"
        },
        {
          "name": "_productTransaction",
          "type": "address"
        }
      ],
      "name": "initialize",
      "outputs": [],
      "payable": false,
      "stateMutability": "nonpayable",
      "type": "function"
    },
    {
      "constant": false,
      "inputs": [
        {
          "name": "_cubit",
          "type": "address"
        },
        {
          "name": "_userManager",
          "type": "address"
        },
        {
          "name": "_vatTransaction",
          "type": "address"
        },
        {
          "name": "_productTransaction",
          "type": "address"
        }
      ],
      "name": "initializeMock",
      "outputs": [],
      "payable": false,
      "stateMutability": "nonpayable",
      "type": "function"
    },
    {
      "constant": true,
      "inputs": [
        {
          "name": "_fromDate",
          "type": "uint256"
        },
        {
          "name": "_toDate",
          "type": "uint256"
        },
        {
          "name": "_businessOwner",
          "type": "address"
        }
      ],
      "name": "getVATToPay",
      "outputs": [
        {
          "name": "",
          "type": "uint256"
        }
      ],
      "payable": false,
      "stateMutability": "view",
      "type": "function"
    },
    {
      "constant": true,
      "inputs": [
        {
          "name": "_fromDate",
          "type": "uint256"
        },
        {
          "name": "_toDate",
          "type": "uint256"
        },
        {
          "name": "_businessOwner",
          "type": "address"
        }
      ],
      "name": "getVATToCollect",
      "outputs": [
        {
          "name": "",
          "type": "uint256"
        }
      ],
      "payable": false,
      "stateMutability": "view",
      "type": "function"
    },
    {
      "constant": false,
      "inputs": [
        {
          "name": "_amount",
          "type": "uint256"
        },
        {
          "name": "_addresser",
          "type": "address"
        },
        {
          "name": "_addressee",
          "type": "address"
        },
        {
          "name": "_refused",
          "type": "bool"
        },
        {
          "name": "_year",
          "type": "uint256"
        },
        {
          "name": "_quarter",
          "type": "uint8"
        }
      ],
      "name": "callVATTransactionAddTransaction",
      "outputs": [],
      "payable": false,
      "stateMutability": "nonpayable",
      "type": "function"
    },
    {
      "constant": true,
      "inputs": [
        {
          "name": "_seller",
          "type": "address"
        }
      ],
      "name": "callProductTransactionGetSellerTransaction",
      "outputs": [
        {
          "name": "",
          "type": "uint256[]"
        }
      ],
      "payable": false,
      "stateMutability": "view",
      "type": "function"
    },
    {
      "constant": true,
      "inputs": [
        {
          "name": "_seller",
          "type": "address"
        },
        {
          "name": "_fromDate",
          "type": "uint256"
        },
        {
          "name": "_toDate",
          "type": "uint256"
        }
      ],
      "name": "callProductTransactionGetSellerTransactionFromDateToDate",
      "outputs": [
        {
          "name": "",
          "type": "uint256[]"
        }
      ],
      "payable": false,
      "stateMutability": "view",
      "type": "function"
    },
    {
      "constant": true,
      "inputs": [
        {
          "name": "_buyer",
          "type": "address"
        }
      ],
      "name": "callProductTransactionGetBuyerTransaction",
      "outputs": [
        {
          "name": "",
          "type": "uint256[]"
        }
      ],
      "payable": false,
      "stateMutability": "view",
      "type": "function"
    },
    {
      "constant": true,
      "inputs": [
        {
          "name": "_buyer",
          "type": "address"
        },
        {
          "name": "_fromDate",
          "type": "uint256"
        },
        {
          "name": "_toDate",
          "type": "uint256"
        }
      ],
      "name": "callProductTransactionGetBuyerTransactionFromDateToDate",
      "outputs": [
        {
          "name": "",
          "type": "uint256[]"
        }
      ],
      "payable": false,
      "stateMutability": "view",
      "type": "function"
    }
  ],
  "bytecode": "0x608060405234801561001057600080fd5b506137f5806100206000396000f3fe6080604052600436106100d0576000357c0100000000000000000000000000000000000000000000000000000000900463ffffffff168063351abe61146100d5578063380caaec146101665780635f6b9a911461020c5780636c0a51b7146102b25780639708f95a14610363578063a62086221461041d578063a68eb55514610465578063ab51cff2146104cd578063ad73884514610549578063c52192ee14610591578063c6374af51461060a578063d680923014610683578063d8bbaf191461073d578063f8c8765e146107db575b600080fd5b3480156100e157600080fd5b5061013b600480360360608110156100f857600080fd5b8101908080359060200190929190803560ff169060200190929190803573ffffffffffffffffffffffffffffffffffffffff16906020019092919050505061088c565b6040518083600581111561014b57fe5b60ff1681526020018281526020019250505060405180910390f35b34801561017257600080fd5b506101b56004803603602081101561018957600080fd5b81019080803573ffffffffffffffffffffffffffffffffffffffff169060200190929190505050610f32565b6040518080602001828103825283818151815260200191508051906020019060200280838360005b838110156101f85780820151818401526020810190506101dd565b505050509050019250505060405180910390f35b34801561021857600080fd5b5061025b6004803603602081101561022f57600080fd5b81019080803573ffffffffffffffffffffffffffffffffffffffff169060200190929190505050611087565b6040518080602001828103825283818151815260200191508051906020019060200280838360005b8381101561029e578082015181840152602081019050610283565b505050509050019250505060405180910390f35b3480156102be57600080fd5b50610361600480360360808110156102d557600080fd5b81019080803573ffffffffffffffffffffffffffffffffffffffff169060200190929190803573ffffffffffffffffffffffffffffffffffffffff169060200190929190803573ffffffffffffffffffffffffffffffffffffffff169060200190929190803573ffffffffffffffffffffffffffffffffffffffff1690602001909291905050506111dc565b005b34801561036f57600080fd5b506103c66004803603606081101561038657600080fd5b81019080803573ffffffffffffffffffffffffffffffffffffffff16906020019092919080359060200190929190803590602001909291905050506111ee565b6040518080602001828103825283818151815260200191508051906020019060200280838360005b838110156104095780820151818401526020810190506103ee565b505050509050019250505060405180910390f35b34801561042957600080fd5b506104636004803603604081101561044057600080fd5b8101908080359060200190929190803560ff169060200190929190505050611355565b005b34801561047157600080fd5b506104cb6004803603606081101561048857600080fd5b8101908080359060200190929190803560ff169060200190929190803573ffffffffffffffffffffffffffffffffffffffff16906020019092919050505061190b565b005b3480156104d957600080fd5b50610533600480360360608110156104f057600080fd5b8101908080359060200190929190803560ff169060200190929190803573ffffffffffffffffffffffffffffffffffffffff1690602001909291905050506120ae565b6040518082815260200191505060405180910390f35b34801561055557600080fd5b5061058f6004803603604081101561056c57600080fd5b8101908080359060200190929190803560ff1690602001909291905050506123fd565b005b34801561059d57600080fd5b506105f4600480360360608110156105b457600080fd5b810190808035906020019092919080359060200190929190803573ffffffffffffffffffffffffffffffffffffffff169060200190929190505050612ba9565b6040518082815260200191505060405180910390f35b34801561061657600080fd5b5061066d6004803603606081101561062d57600080fd5b810190808035906020019092919080359060200190929190803573ffffffffffffffffffffffffffffffffffffffff169060200190929190505050612bbf565b6040518082815260200191505060405180910390f35b34801561068f57600080fd5b506106e6600480360360608110156106a657600080fd5b81019080803573ffffffffffffffffffffffffffffffffffffffff1690602001909291908035906020019092919080359060200190929190505050612bd5565b6040518080602001828103825283818151815260200191508051906020019060200280838360005b8381101561072957808201518184015260208101905061070e565b505050509050019250505060405180910390f35b34801561074957600080fd5b506107d9600480360360c081101561076057600080fd5b8101908080359060200190929190803573ffffffffffffffffffffffffffffffffffffffff169060200190929190803573ffffffffffffffffffffffffffffffffffffffff16906020019092919080351515906020019092919080359060200190929190803560ff169060200190929190505050612d3c565b005b3480156107e757600080fd5b5061088a600480360360808110156107fe57600080fd5b81019080803573ffffffffffffffffffffffffffffffffffffffff169060200190929190803573ffffffffffffffffffffffffffffffffffffffff169060200190929190803573ffffffffffffffffffffffffffffffffffffffff169060200190929190803573ffffffffffffffffffffffffffffffffffffffff169060200190929190505050612e77565b005b600080826002603460009054906101000a900473ffffffffffffffffffffffffffffffffffffffff1673ffffffffffffffffffffffffffffffffffffffff1663c3c5a547836040518263ffffffff167c0100000000000000000000000000000000000000000000000000000000028152600401808273ffffffffffffffffffffffffffffffffffffffff1673ffffffffffffffffffffffffffffffffffffffff16815260200191505060206040518083038186803b15801561094d57600080fd5b505afa158015610961573d6000803e3d6000fd5b505050506040513d602081101561097757600080fd5b8101908080519060200190929190505050600381111561099357fe5b141515610a08576040517f08c379a00000000000000000000000000000000000000000000000000000000081526004018080602001828103825260208152602001807f427573696e657373206f776e6572206973206e6f74207265676973746572656481525060200191505060405180910390fd5b6000603460009054906101000a900473ffffffffffffffffffffffffffffffffffffffff1673ffffffffffffffffffffffffffffffffffffffff166392e5c9c9836040518263ffffffff167c0100000000000000000000000000000000000000000000000000000000028152600401808273ffffffffffffffffffffffffffffffffffffffff1673ffffffffffffffffffffffffffffffffffffffff16815260200191505060206040518083038186803b158015610ac557600080fd5b505afa158015610ad9573d6000803e3d6000fd5b505050506040513d6020811015610aef57600080fd5b810190808051906020019092919050505014151515610b76576040517f08c379a000000000000000000000000000000000000000000000000000000000815260040180806020018281038252601f8152602001807f427573696e657373206f776e6572206973206e6f7420636f6e6669726d65640081525060200191505060405180910390fd5b6000603560009054906101000a900473ffffffffffffffffffffffffffffffffffffffff1673ffffffffffffffffffffffffffffffffffffffff1663842bd2db8888886040518463ffffffff167c0100000000000000000000000000000000000000000000000000000000028152600401808481526020018360ff1660ff1681526020018273ffffffffffffffffffffffffffffffffffffffff1673ffffffffffffffffffffffffffffffffffffffff168152602001935050505060206040518083038186803b158015610c4957600080fd5b505afa158015610c5d573d6000803e3d6000fd5b505050506040513d6020811015610c7357600080fd5b810190808051906020019092919050505090506000603560009054906101000a900473ffffffffffffffffffffffffffffffffffffffff1673ffffffffffffffffffffffffffffffffffffffff16634888bc118989896040518463ffffffff167c0100000000000000000000000000000000000000000000000000000000028152600401808481526020018360ff1660ff1681526020018273ffffffffffffffffffffffffffffffffffffffff1673ffffffffffffffffffffffffffffffffffffffff168152602001935050505060206040518083038186803b158015610d5957600080fd5b505afa158015610d6d573d6000803e3d6000fd5b505050506040513d6020811015610d8357600080fd5b810190808051906020019092919050505090506000821415610e0f576000811415610e01576000610db58989896120ae565b90506000811215610dd3576002600080905095509550505050610f29565b6000811315610def576001600080905095509550505050610f29565b60008080905095509550505050610f29565b600381945094505050610f29565b6000603560009054906101000a900473ffffffffffffffffffffffffffffffffffffffff1673ffffffffffffffffffffffffffffffffffffffff166318cadf30846040518263ffffffff167c01000000000000000000000000000000000000000000000000000000000281526004018082815260200191505060a06040518083038186803b158015610ea057600080fd5b505afa158015610eb4573d6000803e3d6000fd5b505050506040513d60a0811015610eca57600080fd5b8101908080519060200190929190805190602001909291908051906020019092919080519060200190929190805190602001909291905050509450505050508015610f1e5760058395509550505050610f29565b600483955095505050505b50935093915050565b6060603660009054906101000a900473ffffffffffffffffffffffffffffffffffffffff1673ffffffffffffffffffffffffffffffffffffffff16630593813f836040518263ffffffff167c0100000000000000000000000000000000000000000000000000000000028152600401808273ffffffffffffffffffffffffffffffffffffffff1673ffffffffffffffffffffffffffffffffffffffff16815260200191505060006040518083038186803b158015610fef57600080fd5b505afa158015611003573d6000803e3d6000fd5b505050506040513d6000823e3d601f19601f82011682018060405250602081101561102d57600080fd5b81019080805164010000000081111561104557600080fd5b8281019050602081018481111561105b57600080fd5b815185602082028301116401000000008211171561107857600080fd5b50509291905050509050919050565b6060603660009054906101000a900473ffffffffffffffffffffffffffffffffffffffff1673ffffffffffffffffffffffffffffffffffffffff166391019db2836040518263ffffffff167c0100000000000000000000000000000000000000000000000000000000028152600401808273ffffffffffffffffffffffffffffffffffffffff1673ffffffffffffffffffffffffffffffffffffffff16815260200191505060006040518083038186803b15801561114457600080fd5b505afa158015611158573d6000803e3d6000fd5b505050506040513d6000823e3d601f19601f82011682018060405250602081101561118257600080fd5b81019080805164010000000081111561119a57600080fd5b828101905060208101848111156111b057600080fd5b81518560208202830111640100000000821117156111cd57600080fd5b50509291905050509050919050565b6111e884848484612e77565b50505050565b6060603660009054906101000a900473ffffffffffffffffffffffffffffffffffffffff1673ffffffffffffffffffffffffffffffffffffffff16639e1e93388585856040518463ffffffff167c0100000000000000000000000000000000000000000000000000000000028152600401808473ffffffffffffffffffffffffffffffffffffffff1673ffffffffffffffffffffffffffffffffffffffff168152602001838152602001828152602001935050505060006040518083038186803b1580156112bb57600080fd5b505afa1580156112cf573d6000803e3d6000fd5b505050506040513d6000823e3d601f19601f8201168201806040525060208110156112f957600080fd5b81019080805164010000000081111561131157600080fd5b8281019050602081018481111561132757600080fd5b815185602082028301116401000000008211171561134457600080fd5b505092919050505090509392505050565b336002603460009054906101000a900473ffffffffffffffffffffffffffffffffffffffff1673ffffffffffffffffffffffffffffffffffffffff1663c3c5a547836040518263ffffffff167c0100000000000000000000000000000000000000000000000000000000028152600401808273ffffffffffffffffffffffffffffffffffffffff1673ffffffffffffffffffffffffffffffffffffffff16815260200191505060206040518083038186803b15801561141357600080fd5b505afa158015611427573d6000803e3d6000fd5b505050506040513d602081101561143d57600080fd5b8101908080519060200190929190505050600381111561145957fe5b1415156114ce576040517f08c379a00000000000000000000000000000000000000000000000000000000081526004018080602001828103825260208152602001807f427573696e657373206f776e6572206973206e6f74207265676973746572656481525060200191505060405180910390fd5b6000603460009054906101000a900473ffffffffffffffffffffffffffffffffffffffff1673ffffffffffffffffffffffffffffffffffffffff166392e5c9c9836040518263ffffffff167c0100000000000000000000000000000000000000000000000000000000028152600401808273ffffffffffffffffffffffffffffffffffffffff1673ffffffffffffffffffffffffffffffffffffffff16815260200191505060206040518083038186803b15801561158b57600080fd5b505afa15801561159f573d6000803e3d6000fd5b505050506040513d60208110156115b557600080fd5b81019080805190602001909291905050501415151561163c576040517f08c379a000000000000000000000000000000000000000000000000000000000815260040180806020018281038252601f8152602001807f427573696e657373206f776e6572206973206e6f7420636f6e6669726d65640081525060200191505060405180910390fd5b60006116498484336120ae565b9050600061165885853361088c565b5090506002600581111561166857fe5b81600581111561167457fe5b14151561170f576040517f08c379a000000000000000000000000000000000000000000000000000000000815260040180806020018281038252602c8152602001807f43616e2774207265667573652056415420696620796f7520646f6e277420686181526020017f766520746f20706179206974000000000000000000000000000000000000000081525060400191505060405180910390fd5b603560009054906101000a900473ffffffffffffffffffffffffffffffffffffffff1673ffffffffffffffffffffffffffffffffffffffff16630705028c8360000333603460009054906101000a900473ffffffffffffffffffffffffffffffffffffffff1673ffffffffffffffffffffffffffffffffffffffff1663870c80796040518163ffffffff167c010000000000000000000000000000000000000000000000000000000002815260040160206040518083038186803b1580156117d657600080fd5b505afa1580156117ea573d6000803e3d6000fd5b505050506040513d602081101561180057600080fd5b810190808051906020019092919050505060018a8a6040518763ffffffff167c0100000000000000000000000000000000000000000000000000000000028152600401808781526020018673ffffffffffffffffffffffffffffffffffffffff1673ffffffffffffffffffffffffffffffffffffffff1681526020018573ffffffffffffffffffffffffffffffffffffffff1673ffffffffffffffffffffffffffffffffffffffff168152602001841515151581526020018381526020018260ff1660ff1681526020019650505050505050600060405180830381600087803b1580156118ec57600080fd5b505af1158015611900573d6000803e3d6000fd5b505050505050505050565b6003603460009054906101000a900473ffffffffffffffffffffffffffffffffffffffff1673ffffffffffffffffffffffffffffffffffffffff1663c3c5a547336040518263ffffffff167c0100000000000000000000000000000000000000000000000000000000028152600401808273ffffffffffffffffffffffffffffffffffffffff1673ffffffffffffffffffffffffffffffffffffffff16815260200191505060206040518083038186803b1580156119c857600080fd5b505afa1580156119dc573d6000803e3d6000fd5b505050506040513d60208110156119f257600080fd5b81019080805190602001909291905050506003811115611a0e57fe5b141515611a83576040517f08c379a000000000000000000000000000000000000000000000000000000000815260040180806020018281038252601a8152602001807f55736572206973206e6f742074686520676f7665726e6d656e7400000000000081525060200191505060405180910390fd5b806002603460009054906101000a900473ffffffffffffffffffffffffffffffffffffffff1673ffffffffffffffffffffffffffffffffffffffff1663c3c5a547836040518263ffffffff167c0100000000000000000000000000000000000000000000000000000000028152600401808273ffffffffffffffffffffffffffffffffffffffff1673ffffffffffffffffffffffffffffffffffffffff16815260200191505060206040518083038186803b158015611b4157600080fd5b505afa158015611b55573d6000803e3d6000fd5b505050506040513d6020811015611b6b57600080fd5b81019080805190602001909291905050506003811115611b8757fe5b141515611bfc576040517f08c379a00000000000000000000000000000000000000000000000000000000081526004018080602001828103825260208152602001807f427573696e657373206f776e6572206973206e6f74207265676973746572656481525060200191505060405180910390fd5b6000603460009054906101000a900473ffffffffffffffffffffffffffffffffffffffff1673ffffffffffffffffffffffffffffffffffffffff166392e5c9c9836040518263ffffffff167c0100000000000000000000000000000000000000000000000000000000028152600401808273ffffffffffffffffffffffffffffffffffffffff1673ffffffffffffffffffffffffffffffffffffffff16815260200191505060206040518083038186803b158015611cb957600080fd5b505afa158015611ccd573d6000803e3d6000fd5b505050506040513d6020811015611ce357600080fd5b810190808051906020019092919050505014151515611d6a576040517f08c379a000000000000000000000000000000000000000000000000000000000815260040180806020018281038252601f8152602001807f427573696e657373206f776e6572206973206e6f7420636f6e6669726d65640081525060200191505060405180910390fd5b6000611d778585856120ae565b90506000611d8686868661088c565b50905060016005811115611d9657fe5b816005811115611da257fe5b141515611e3d576040517f08c379a00000000000000000000000000000000000000000000000000000000081526004018080602001828103825260298152602001807f43616e2774207061792056415420696620796f7520646f6e277420686176652081526020017f746f20706179206974000000000000000000000000000000000000000000000081525060400191505060405180910390fd5b603360009054906101000a900473ffffffffffffffffffffffffffffffffffffffff1673ffffffffffffffffffffffffffffffffffffffff166323b872dd3386856040518463ffffffff167c0100000000000000000000000000000000000000000000000000000000028152600401808473ffffffffffffffffffffffffffffffffffffffff1673ffffffffffffffffffffffffffffffffffffffff1681526020018373ffffffffffffffffffffffffffffffffffffffff1673ffffffffffffffffffffffffffffffffffffffff1681526020018281526020019350505050602060405180830381600087803b158015611f3657600080fd5b505af1158015611f4a573d6000803e3d6000fd5b505050506040513d6020811015611f6057600080fd5b810190808051906020019092919050505050603560009054906101000a900473ffffffffffffffffffffffffffffffffffffffff1673ffffffffffffffffffffffffffffffffffffffff16630705028c83338760008b8b6040518763ffffffff167c0100000000000000000000000000000000000000000000000000000000028152600401808781526020018673ffffffffffffffffffffffffffffffffffffffff1673ffffffffffffffffffffffffffffffffffffffff1681526020018573ffffffffffffffffffffffffffffffffffffffff1673ffffffffffffffffffffffffffffffffffffffff168152602001841515151581526020018381526020018260ff1660ff1681526020019650505050505050600060405180830381600087803b15801561208e57600080fd5b505af11580156120a2573d6000803e3d6000fd5b50505050505050505050565b6000816002603460009054906101000a900473ffffffffffffffffffffffffffffffffffffffff1673ffffffffffffffffffffffffffffffffffffffff1663c3c5a547836040518263ffffffff167c0100000000000000000000000000000000000000000000000000000000028152600401808273ffffffffffffffffffffffffffffffffffffffff1673ffffffffffffffffffffffffffffffffffffffff16815260200191505060206040518083038186803b15801561216e57600080fd5b505afa158015612182573d6000803e3d6000fd5b505050506040513d602081101561219857600080fd5b810190808051906020019092919050505060038111156121b457fe5b141515612229576040517f08c379a00000000000000000000000000000000000000000000000000000000081526004018080602001828103825260208152602001807f427573696e657373206f776e6572206973206e6f74207265676973746572656481525060200191505060405180910390fd5b6000603460009054906101000a900473ffffffffffffffffffffffffffffffffffffffff1673ffffffffffffffffffffffffffffffffffffffff166392e5c9c9836040518263ffffffff167c0100000000000000000000000000000000000000000000000000000000028152600401808273ffffffffffffffffffffffffffffffffffffffff1673ffffffffffffffffffffffffffffffffffffffff16815260200191505060206040518083038186803b1580156122e657600080fd5b505afa1580156122fa573d6000803e3d6000fd5b505050506040513d602081101561231057600080fd5b810190808051906020019092919050505014151515612397576040517f08c379a000000000000000000000000000000000000000000000000000000000815260040180806020018281038252601f8152602001807f427573696e657373206f776e6572206973206e6f7420636f6e6669726d65640081525060200191505060405180910390fd5b60006123a386866130c3565b905060006123b187876130ea565b905060006123c083838861311e565b905060006123cf848489613393565b905081811015156123e8578181039550505050506123f5565b8082036000039550505050505b509392505050565b336002603460009054906101000a900473ffffffffffffffffffffffffffffffffffffffff1673ffffffffffffffffffffffffffffffffffffffff1663c3c5a547836040518263ffffffff167c0100000000000000000000000000000000000000000000000000000000028152600401808273ffffffffffffffffffffffffffffffffffffffff1673ffffffffffffffffffffffffffffffffffffffff16815260200191505060206040518083038186803b1580156124bb57600080fd5b505afa1580156124cf573d6000803e3d6000fd5b505050506040513d60208110156124e557600080fd5b8101908080519060200190929190505050600381111561250157fe5b141515612576576040517f08c379a00000000000000000000000000000000000000000000000000000000081526004018080602001828103825260208152602001807f427573696e657373206f776e6572206973206e6f74207265676973746572656481525060200191505060405180910390fd5b6000603460009054906101000a900473ffffffffffffffffffffffffffffffffffffffff1673ffffffffffffffffffffffffffffffffffffffff166392e5c9c9836040518263ffffffff167c0100000000000000000000000000000000000000000000000000000000028152600401808273ffffffffffffffffffffffffffffffffffffffff1673ffffffffffffffffffffffffffffffffffffffff16815260200191505060206040518083038186803b15801561263357600080fd5b505afa158015612647573d6000803e3d6000fd5b505050506040513d602081101561265d57600080fd5b8101908080519060200190929190505050141515156126e4576040517f08c379a000000000000000000000000000000000000000000000000000000000815260040180806020018281038252601f8152602001807f427573696e657373206f776e6572206973206e6f7420636f6e6669726d65640081525060200191505060405180910390fd5b60006126f18484336120ae565b9050600061270085853361088c565b5090506002600581111561271057fe5b81600581111561271c57fe5b1415156127b7576040517f08c379a00000000000000000000000000000000000000000000000000000000081526004018080602001828103825260298152602001807f43616e2774207061792056415420696620796f7520646f6e277420686176652081526020017f746f20706179206974000000000000000000000000000000000000000000000081525060400191505060405180910390fd5b603360009054906101000a900473ffffffffffffffffffffffffffffffffffffffff1673ffffffffffffffffffffffffffffffffffffffff166323b872dd33603460009054906101000a900473ffffffffffffffffffffffffffffffffffffffff1673ffffffffffffffffffffffffffffffffffffffff1663870c80796040518163ffffffff167c010000000000000000000000000000000000000000000000000000000002815260040160206040518083038186803b15801561287a57600080fd5b505afa15801561288e573d6000803e3d6000fd5b505050506040513d60208110156128a457600080fd5b8101908080519060200190929190505050856000036040518463ffffffff167c0100000000000000000000000000000000000000000000000000000000028152600401808473ffffffffffffffffffffffffffffffffffffffff1673ffffffffffffffffffffffffffffffffffffffff1681526020018373ffffffffffffffffffffffffffffffffffffffff1673ffffffffffffffffffffffffffffffffffffffff1681526020018281526020019350505050602060405180830381600087803b15801561297157600080fd5b505af1158015612985573d6000803e3d6000fd5b505050506040513d602081101561299b57600080fd5b810190808051906020019092919050505050603560009054906101000a900473ffffffffffffffffffffffffffffffffffffffff1673ffffffffffffffffffffffffffffffffffffffff16630705028c8360000333603460009054906101000a900473ffffffffffffffffffffffffffffffffffffffff1673ffffffffffffffffffffffffffffffffffffffff1663870c80796040518163ffffffff167c010000000000000000000000000000000000000000000000000000000002815260040160206040518083038186803b158015612a7457600080fd5b505afa158015612a88573d6000803e3d6000fd5b505050506040513d6020811015612a9e57600080fd5b810190808051906020019092919050505060008a8a6040518763ffffffff167c0100000000000000000000000000000000000000000000000000000000028152600401808781526020018673ffffffffffffffffffffffffffffffffffffffff1673ffffffffffffffffffffffffffffffffffffffff1681526020018573ffffffffffffffffffffffffffffffffffffffff1673ffffffffffffffffffffffffffffffffffffffff168152602001841515151581526020018381526020018260ff1660ff1681526020019650505050505050600060405180830381600087803b158015612b8a57600080fd5b505af1158015612b9e573d6000803e3d6000fd5b505050505050505050565b6000612bb6848484613393565b90509392505050565b6000612bcc84848461311e565b90509392505050565b6060603660009054906101000a900473ffffffffffffffffffffffffffffffffffffffff1673ffffffffffffffffffffffffffffffffffffffff166360c1e4338585856040518463ffffffff167c0100000000000000000000000000000000000000000000000000000000028152600401808473ffffffffffffffffffffffffffffffffffffffff1673ffffffffffffffffffffffffffffffffffffffff168152602001838152602001828152602001935050505060006040518083038186803b158015612ca257600080fd5b505afa158015612cb6573d6000803e3d6000fd5b505050506040513d6000823e3d601f19601f820116820180604052506020811015612ce057600080fd5b810190808051640100000000811115612cf857600080fd5b82810190506020810184811115612d0e57600080fd5b8151856020820283011164010000000082111715612d2b57600080fd5b505092919050505090509392505050565b603560009054906101000a900473ffffffffffffffffffffffffffffffffffffffff1673ffffffffffffffffffffffffffffffffffffffff16630705028c8787878787876040518763ffffffff167c0100000000000000000000000000000000000000000000000000000000028152600401808781526020018673ffffffffffffffffffffffffffffffffffffffff1673ffffffffffffffffffffffffffffffffffffffff1681526020018573ffffffffffffffffffffffffffffffffffffffff1673ffffffffffffffffffffffffffffffffffffffff168152602001841515151581526020018381526020018260ff1660ff1681526020019650505050505050600060405180830381600087803b158015612e5757600080fd5b505af1158015612e6b573d6000803e3d6000fd5b50505050505050505050565b600060019054906101000a900460ff1680612e965750612e95613608565b5b80612ead57506000809054906101000a900460ff16155b1515612f47576040517f08c379a000000000000000000000000000000000000000000000000000000000815260040180806020018281038252602e8152602001807f436f6e747261637420696e7374616e63652068617320616c726561647920626581526020017f656e20696e697469616c697a656400000000000000000000000000000000000081525060400191505060405180910390fd5b60008060019054906101000a900460ff161590508015612f97576001600060016101000a81548160ff02191690831515021790555060016000806101000a81548160ff0219169083151502179055505b84603360006101000a81548173ffffffffffffffffffffffffffffffffffffffff021916908373ffffffffffffffffffffffffffffffffffffffff16021790555083603460006101000a81548173ffffffffffffffffffffffffffffffffffffffff021916908373ffffffffffffffffffffffffffffffffffffffff16021790555082603560006101000a81548173ffffffffffffffffffffffffffffffffffffffff021916908373ffffffffffffffffffffffffffffffffffffffff16021790555081603660006101000a81548173ffffffffffffffffffffffffffffffffffffffff021916908373ffffffffffffffffffffffffffffffffffffffff16021790555080156130bc5760008060016101000a81548160ff0219169083151502179055505b5050505050565b6000806001600360018503020160ff1690506130e184826001613619565b91505092915050565b6000806003830260ff16905060006131028583613634565b905062015180613113868484613619565b019250505092915050565b60006060603660009054906101000a900473ffffffffffffffffffffffffffffffffffffffff1673ffffffffffffffffffffffffffffffffffffffff166360c1e4338487876040518463ffffffff167c0100000000000000000000000000000000000000000000000000000000028152600401808473ffffffffffffffffffffffffffffffffffffffff1673ffffffffffffffffffffffffffffffffffffffff168152602001838152602001828152602001935050505060006040518083038186803b1580156131ed57600080fd5b505afa158015613201573d6000803e3d6000fd5b505050506040513d6000823e3d601f19601f82011682018060405250602081101561322b57600080fd5b81019080805164010000000081111561324357600080fd5b8281019050602081018481111561325957600080fd5b815185602082028301116401000000008211171561327657600080fd5b50509291905050509050600080905060008090505b825181101561338657603660009054906101000a900473ffffffffffffffffffffffffffffffffffffffff1673ffffffffffffffffffffffffffffffffffffffff1663b4f7451b84838151811015156132e057fe5b906020019060200201516040518263ffffffff167c01000000000000000000000000000000000000000000000000000000000281526004018082815260200191505060206040518083038186803b15801561333a57600080fd5b505afa15801561334e573d6000803e3d6000fd5b505050506040513d602081101561336457600080fd5b810190808051906020019092919050505082019150808060010191505061328b565b5080925050509392505050565b60006060603660009054906101000a900473ffffffffffffffffffffffffffffffffffffffff1673ffffffffffffffffffffffffffffffffffffffff16639e1e93388487876040518463ffffffff167c0100000000000000000000000000000000000000000000000000000000028152600401808473ffffffffffffffffffffffffffffffffffffffff1673ffffffffffffffffffffffffffffffffffffffff168152602001838152602001828152602001935050505060006040518083038186803b15801561346257600080fd5b505afa158015613476573d6000803e3d6000fd5b505050506040513d6000823e3d601f19601f8201168201806040525060208110156134a057600080fd5b8101908080516401000000008111156134b857600080fd5b828101905060208101848111156134ce57600080fd5b81518560208202830111640100000000821117156134eb57600080fd5b50509291905050509050600080905060008090505b82518110156135fb57603660009054906101000a900473ffffffffffffffffffffffffffffffffffffffff1673ffffffffffffffffffffffffffffffffffffffff1663b4f7451b848381518110151561355557fe5b906020019060200201516040518263ffffffff167c01000000000000000000000000000000000000000000000000000000000281526004018082815260200191505060206040518083038186803b1580156135af57600080fd5b505afa1580156135c3573d6000803e3d6000fd5b505050506040513d60208110156135d957600080fd5b8101908080519060200190929190505050820191508080600101915050613500565b5080925050509392505050565b600080303b90506000811491505090565b60006201518061362a8585856136c1565b0290509392505050565b600060018214806136455750600382145b806136505750600582145b8061365b5750600782145b806136665750600882145b806136715750600a82145b8061367c5750600c82145b1561368a57601f90506136bb565b60028214151561369d57601e90506136ba565b6136a683613780565b6136b157601c6136b4565b601d5b60ff1690505b5b92915050565b60006107b284101515156136d457600080fd5b600084905060008490506000849050600062253d8c60046064600c600e87038115156136fc57fe5b0561132488010181151561370c57fe5b0560030281151561371957fe5b05600c80600c600e880381151561372c57fe5b0502600287030361016f0281151561374057fe5b056004600c600e880381151561375257fe5b056112c08901016105b50281151561376657fe5b05617d4b8603010103039050809450505050509392505050565b60008060048381151561378f57fe5b061480156137aa575060006064838115156137a657fe5b0614155b806137c257506000610190838115156137bf57fe5b06145b905091905056fea165627a7a723058204767efe2600983462d53678b91cdcb8c28fcb5df9e6382f50f0449126d9a259c0029",
  "source": "pragma solidity >= 0.5.0;\n\nimport \"../VAT.sol\";\n\ncontract VATMock is VAT{\n    function initializeMock(address _cubit, address _userManager, address _vatTransaction, address _productTransaction)\n    public {\n        VAT.initialize(_cubit, _userManager, _vatTransaction, _productTransaction);\n    }\n\n    function getVATToPay(uint256 _fromDate, uint256 _toDate, address _businessOwner) view public returns(uint) {\n        return VAT._getVATToPay(_fromDate, _toDate, _businessOwner);\n    }\n\n    function getVATToCollect(uint256 _fromDate, uint256 _toDate, address _businessOwner) view public returns(uint) {\n        return VAT._getVATToCollect(_fromDate, _toDate, _businessOwner);\n    }\n\n    function callVATTransactionAddTransaction(uint256 _amount, address _addresser, address _addressee, bool _refused, uint256 _year, uint8 _quarter) public {\n        vatTransaction.addTransaction(_amount, _addresser, _addressee, _refused, _year, _quarter);\n    }\n\n    function callProductTransactionGetSellerTransaction(address _seller) view public returns(uint256[] memory) {\n        return productTransaction.getSellerTransaction(_seller);\n    }\n\n    function callProductTransactionGetSellerTransactionFromDateToDate(address _seller, uint256 _fromDate, uint256 _toDate) view public returns(uint256[] memory) {\n        return productTransaction.getSellerTransaction(_seller, _fromDate, _toDate);\n    }\n\n    function callProductTransactionGetBuyerTransaction(address _buyer) view public returns(uint256[] memory) {\n        return productTransaction.getBuyerTransaction(_buyer);\n    }\n\n    function callProductTransactionGetBuyerTransactionFromDateToDate(address _buyer, uint256 _fromDate, uint256 _toDate) view public returns(uint256[] memory) {\n        return productTransaction.getBuyerTransaction(_buyer, _fromDate, _toDate);\n    }\n}\n",
  "sourcePath": "/home/nicolabba/WebstormProjects/The-Walking-Bug/Soldino/contracts/mocks/VATMock.sol",
  "compiler": {
    "name": "solc",
    "version": "0.5.0+commit.1d4f565a.Emscripten.clang"
  },
  "schemaVersion": "3.0.6",
  "updatedAt": "2019-05-16T08:07:59.705Z",
  "devdoc": {
    "methods": {
      "getBusinessVATStatus(uint256,uint8,address)": {
        "details": "Returns the status of the payment of the VAT for a given business owner in a given quarter and eventually the transaction associated with the payment",
        "params": {
          "_businessOwner": "The address of the business owner",
          "_quarter": "The quarter (1-4) in the given year",
          "_year": "The year of the quarter"
        }
      },
      "getQuarterVATBalance(uint256,uint8,address)": {
        "details": "Returns the vat balance for a given user in a given quarter",
        "params": {
          "_businessOwner": "The address of the business owner whose balance to get",
          "_quarter": "The quarter (1-4) check in which to check the balance of the business owner",
          "_year": "The year of the quarter"
        }
      },
      "initialize(address,address,address,address)": {
        "details": "Initializes the contract saving the instances of the proxies of the contracts used by this contract",
        "params": {
          "_cubit": "The instance of the proxy of the Cubit contract of this project",
          "_productTransaction": "The instance of the proxy of the ProductTransaction contract of this project",
          "_userManager": "The instance of the proxy of the UserManager contract of this project",
          "_vatTransaction": "The instance of the proxy of the VATTransaction contract of this project"
        }
      },
      "payVATToBusinessOwner(uint256,uint8,address)": {
        "details": "Allows the government to pay the VAT of a given quarter to a given business owner",
        "params": {
          "_quarter": "The quarter (1-4) in the given year to pay",
          "_year": "The year of the quarter to pay"
        }
      },
      "payVATToGovernment(uint256,uint8)": {
        "details": "Allows a business owner to pay the VAT of a given quarter to the government",
        "params": {
          "_quarter": "The quarter (1-4) in the given year to pay",
          "_year": "The year of the quarter to pay"
        }
      },
      "refusePayment(uint256,uint8)": {
        "details": "Allows a business owner to refuse the payment of the VAT of a given quarter to the government",
        "params": {
          "_quarter": "The quarter (1-4) in the given year to refuse",
          "_year": "The year of the quarter to refuse"
        }
      }
    }
  },
  "userdoc": {
    "methods": {}
  }
}