{
  "contractName": "VATTransactionMock",
  "abi": [
    {
      "constant": false,
      "inputs": [
        {
          "name": "_amount",
          "type": "uint256"
        },
        {
          "name": "_addresser",
          "type": "address"
        },
        {
          "name": "_addressee",
          "type": "address"
        },
        {
          "name": "_refused",
          "type": "bool"
        },
        {
          "name": "_year",
          "type": "uint256"
        },
        {
          "name": "_quarter",
          "type": "uint8"
        }
      ],
      "name": "addTransaction",
      "outputs": [],
      "payable": false,
      "stateMutability": "nonpayable",
      "type": "function"
    },
    {
      "constant": true,
      "inputs": [
        {
          "name": "_transactionID",
          "type": "uint256"
        }
      ],
      "name": "getVATTransactionData",
      "outputs": [
        {
          "name": "",
          "type": "uint256"
        },
        {
          "name": "",
          "type": "uint256"
        },
        {
          "name": "",
          "type": "address"
        },
        {
          "name": "",
          "type": "address"
        },
        {
          "name": "",
          "type": "bool"
        }
      ],
      "payable": false,
      "stateMutability": "view",
      "type": "function"
    },
    {
      "constant": false,
      "inputs": [
        {
          "name": "_userManager",
          "type": "address"
        },
        {
          "name": "_vat",
          "type": "address"
        }
      ],
      "name": "initialize",
      "outputs": [],
      "payable": false,
      "stateMutability": "nonpayable",
      "type": "function"
    },
    {
      "constant": true,
      "inputs": [
        {
          "name": "_year",
          "type": "uint256"
        },
        {
          "name": "_quarter",
          "type": "uint8"
        },
        {
          "name": "_businessOwner",
          "type": "address"
        }
      ],
      "name": "getCompensation",
      "outputs": [
        {
          "name": "",
          "type": "uint256"
        }
      ],
      "payable": false,
      "stateMutability": "view",
      "type": "function"
    },
    {
      "constant": true,
      "inputs": [
        {
          "name": "_fromYear",
          "type": "uint256"
        },
        {
          "name": "_fromQuarter",
          "type": "uint8"
        },
        {
          "name": "_toYear",
          "type": "uint256"
        },
        {
          "name": "_toQuarter",
          "type": "uint8"
        }
      ],
      "name": "getVATCompensations",
      "outputs": [
        {
          "name": "",
          "type": "uint256[]"
        }
      ],
      "payable": false,
      "stateMutability": "view",
      "type": "function"
    },
    {
      "constant": true,
      "inputs": [
        {
          "name": "_year",
          "type": "uint256"
        },
        {
          "name": "_quarter",
          "type": "uint8"
        },
        {
          "name": "_businessOwner",
          "type": "address"
        }
      ],
      "name": "getDeduction",
      "outputs": [
        {
          "name": "",
          "type": "uint256"
        }
      ],
      "payable": false,
      "stateMutability": "view",
      "type": "function"
    },
    {
      "constant": true,
      "inputs": [
        {
          "name": "_fromYear",
          "type": "uint256"
        },
        {
          "name": "_fromQuarter",
          "type": "uint8"
        },
        {
          "name": "_toYear",
          "type": "uint256"
        },
        {
          "name": "_toQuarter",
          "type": "uint8"
        }
      ],
      "name": "getVATDeductions",
      "outputs": [
        {
          "name": "",
          "type": "uint256[]"
        }
      ],
      "payable": false,
      "stateMutability": "view",
      "type": "function"
    },
    {
      "constant": false,
      "inputs": [
        {
          "name": "_userManager",
          "type": "address"
        },
        {
          "name": "_vat",
          "type": "address"
        }
      ],
      "name": "initializeMock",
      "outputs": [],
      "payable": false,
      "stateMutability": "nonpayable",
      "type": "function"
    }
  ],
  "bytecode": "0x608060405234801561001057600080fd5b5061188b806100206000396000f3fe60806040526004361061008e576000357c0100000000000000000000000000000000000000000000000000000000900463ffffffff1680630705028c1461009357806318cadf3014610131578063485cc955146101f85780634888bc11146102695780636c1ed5a3146102e5578063710164e714610356578063842bd2db1461040a578063a7c9771b14610486575b600080fd5b34801561009f57600080fd5b5061012f600480360360c08110156100b657600080fd5b8101908080359060200190929190803573ffffffffffffffffffffffffffffffffffffffff169060200190929190803573ffffffffffffffffffffffffffffffffffffffff16906020019092919080351515906020019092919080359060200190929190803560ff16906020019092919050505061053a565b005b34801561013d57600080fd5b5061016a6004803603602081101561015457600080fd5b8101908080359060200190929190505050610d91565b604051808681526020018581526020018473ffffffffffffffffffffffffffffffffffffffff1673ffffffffffffffffffffffffffffffffffffffff1681526020018373ffffffffffffffffffffffffffffffffffffffff1673ffffffffffffffffffffffffffffffffffffffff168152602001821515151581526020019550505050505060405180910390f35b34801561020457600080fd5b506102676004803603604081101561021b57600080fd5b81019080803573ffffffffffffffffffffffffffffffffffffffff169060200190929190803573ffffffffffffffffffffffffffffffffffffffff169060200190929190505050610e6c565b005b34801561027557600080fd5b506102cf6004803603606081101561028c57600080fd5b8101908080359060200190929190803560ff169060200190929190803573ffffffffffffffffffffffffffffffffffffffff16906020019092919050505061103c565b6040518082815260200191505060405180910390f35b3480156102f157600080fd5b506103546004803603604081101561030857600080fd5b81019080803573ffffffffffffffffffffffffffffffffffffffff169060200190929190803573ffffffffffffffffffffffffffffffffffffffff1690602001909291905050506110af565b005b34801561036257600080fd5b506103b36004803603608081101561037957600080fd5b8101908080359060200190929190803560ff16906020019092919080359060200190929190803560ff1690602001909291905050506110bd565b6040518080602001828103825283818151815260200191508051906020019060200280838360005b838110156103f65780820151818401526020810190506103db565b505050509050019250505060405180910390f35b34801561041657600080fd5b506104706004803603606081101561042d57600080fd5b8101908080359060200190929190803560ff169060200190929190803573ffffffffffffffffffffffffffffffffffffffff16906020019092919050505061144c565b6040518082815260200191505060405180910390f35b34801561049257600080fd5b506104e3600480360360808110156104a957600080fd5b8101908080359060200190929190803560ff16906020019092919080359060200190929190803560ff1690602001909291905050506114bf565b6040518080602001828103825283818151815260200191508051906020019060200280838360005b8381101561052657808201518184015260208101905061050b565b505050509050019250505060405180910390f35b603860009054906101000a900473ffffffffffffffffffffffffffffffffffffffff1673ffffffffffffffffffffffffffffffffffffffff163373ffffffffffffffffffffffffffffffffffffffff1614151561059657600080fd5b426034600060335481526020019081526020016000206000018190555085603460006033548152602001908152602001600020600101819055508460346000603354815260200190815260200160002060020160006101000a81548173ffffffffffffffffffffffffffffffffffffffff021916908373ffffffffffffffffffffffffffffffffffffffff1602179055508360346000603354815260200190815260200160002060030160006101000a81548173ffffffffffffffffffffffffffffffffffffffff021916908373ffffffffffffffffffffffffffffffffffffffff1602179055508260346000603354815260200190815260200160002060030160146101000a81548160ff0219169083151502179055506003603760009054906101000a900473ffffffffffffffffffffffffffffffffffffffff1673ffffffffffffffffffffffffffffffffffffffff1663c3c5a547876040518263ffffffff167c0100000000000000000000000000000000000000000000000000000000028152600401808273ffffffffffffffffffffffffffffffffffffffff1673ffffffffffffffffffffffffffffffffffffffff16815260200191505060206040518083038186803b15801561076b57600080fd5b505afa15801561077f573d6000803e3d6000fd5b505050506040513d602081101561079557600080fd5b810190808051906020019092919050505060038111156107b157fe5b14156109c8576002603760009054906101000a900473ffffffffffffffffffffffffffffffffffffffff1673ffffffffffffffffffffffffffffffffffffffff1663c3c5a547866040518263ffffffff167c0100000000000000000000000000000000000000000000000000000000028152600401808273ffffffffffffffffffffffffffffffffffffffff1673ffffffffffffffffffffffffffffffffffffffff16815260200191505060206040518083038186803b15801561087457600080fd5b505afa158015610888573d6000803e3d6000fd5b505050506040513d602081101561089e57600080fd5b810190808051906020019092919050505060038111156108ba57fe5b141515610955576040517f08c379a00000000000000000000000000000000000000000000000000000000081526004018080602001828103825260238152602001807f4f6e6c7920627573696e6573732063616e2070617920717561727465726c792081526020017f564154000000000000000000000000000000000000000000000000000000000081525060400191505060405180910390fd5b6033546036600084815260200190815260200160002060008360ff1660ff16815260200190815260200160002060008673ffffffffffffffffffffffffffffffffffffffff1673ffffffffffffffffffffffffffffffffffffffff16815260200190815260200160002081905550610d77565b6003603760009054906101000a900473ffffffffffffffffffffffffffffffffffffffff1673ffffffffffffffffffffffffffffffffffffffff1663c3c5a547866040518263ffffffff167c0100000000000000000000000000000000000000000000000000000000028152600401808273ffffffffffffffffffffffffffffffffffffffff1673ffffffffffffffffffffffffffffffffffffffff16815260200191505060206040518083038186803b158015610a8557600080fd5b505afa158015610a99573d6000803e3d6000fd5b505050506040513d6020811015610aaf57600080fd5b81019080805190602001909291905050506003811115610acb57fe5b1415610ce2576002603760009054906101000a900473ffffffffffffffffffffffffffffffffffffffff1673ffffffffffffffffffffffffffffffffffffffff1663c3c5a547876040518263ffffffff167c0100000000000000000000000000000000000000000000000000000000028152600401808273ffffffffffffffffffffffffffffffffffffffff1673ffffffffffffffffffffffffffffffffffffffff16815260200191505060206040518083038186803b158015610b8e57600080fd5b505afa158015610ba2573d6000803e3d6000fd5b505050506040513d6020811015610bb857600080fd5b81019080805190602001909291905050506003811115610bd457fe5b141515610c6f576040517f08c379a00000000000000000000000000000000000000000000000000000000081526004018080602001828103825260238152602001807f4f6e6c7920627573696e6573732063616e2070617920717561727465726c792081526020017f564154000000000000000000000000000000000000000000000000000000000081525060400191505060405180910390fd5b6033546035600084815260200190815260200160002060008360ff1660ff16815260200190815260200160002060008773ffffffffffffffffffffffffffffffffffffffff1673ffffffffffffffffffffffffffffffffffffffff16815260200190815260200160002081905550610d76565b6040517f08c379a00000000000000000000000000000000000000000000000000000000081526004018080602001828103825260398152602001807f4e6569746865722074686520616464726573736572206e6f722074686520616481526020017f647265737365652069732074686520676f7665726e6d656e740000000000000081525060400191505060405180910390fd5b5b603360008154809291906001019190505550505050505050565b6000806000806000603460008781526020019081526020016000206001015460346000888152602001908152602001600020600001546034600089815260200190815260200160002060020160009054906101000a900473ffffffffffffffffffffffffffffffffffffffff16603460008a815260200190815260200160002060030160009054906101000a900473ffffffffffffffffffffffffffffffffffffffff16603460008b815260200190815260200160002060030160149054906101000a900460ff169450945094509450945091939590929450565b600060019054906101000a900460ff1680610e8b5750610e8a61184e565b5b80610ea257506000809054906101000a900460ff16155b1515610f3c576040517f08c379a000000000000000000000000000000000000000000000000000000000815260040180806020018281038252602e8152602001807f436f6e747261637420696e7374616e63652068617320616c726561647920626581526020017f656e20696e697469616c697a656400000000000000000000000000000000000081525060400191505060405180910390fd5b60008060019054906101000a900460ff161590508015610f8c576001600060016101000a81548160ff02191690831515021790555060016000806101000a81548160ff0219169083151502179055505b82603760006101000a81548173ffffffffffffffffffffffffffffffffffffffff021916908373ffffffffffffffffffffffffffffffffffffffff16021790555081603860006101000a81548173ffffffffffffffffffffffffffffffffffffffff021916908373ffffffffffffffffffffffffffffffffffffffff160217905550600160338190555080156110375760008060016101000a81548160ff0219169083151502179055505b505050565b60006036600085815260200190815260200160002060008460ff1660ff16815260200190815260200160002060008373ffffffffffffffffffffffffffffffffffffffff1673ffffffffffffffffffffffffffffffffffffffff1681526020019081526020016000205490509392505050565b6110b98282610e6c565b5050565b606060008490506000600490506060603760009054906101000a900473ffffffffffffffffffffffffffffffffffffffff1673ffffffffffffffffffffffffffffffffffffffff1663bb4a7f186040518163ffffffff167c010000000000000000000000000000000000000000000000000000000002815260040160006040518083038186803b15801561115057600080fd5b505afa158015611164573d6000803e3d6000fd5b505050506040513d6000823e3d601f19601f82011682018060405250602081101561118e57600080fd5b8101908080516401000000008111156111a657600080fd5b828101905060208101848111156111bc57600080fd5b81518560208202830111640100000000821117156111d957600080fd5b5050929190505050905060606033546040519080825280602002602001820160405280156112165781602001602082028038833980820191505090505b509050600080905060008a90505b88811115156113b65788811415611239578794505b60008690505b8560ff168160ff161115156113a45760008090505b85518110156113965760006036600085815260200190815260200160002060008460ff1660ff1681526020019081526020016000206000888481518110151561129957fe5b9060200190602002015173ffffffffffffffffffffffffffffffffffffffff1673ffffffffffffffffffffffffffffffffffffffff16815260200190815260200160002054141515611389576036600084815260200190815260200160002060008360ff1660ff1681526020019081526020016000206000878381518110151561131f57fe5b9060200190602002015173ffffffffffffffffffffffffffffffffffffffff1673ffffffffffffffffffffffffffffffffffffffff16815260200190815260200160002054858581518110151561137257fe5b906020019060200201818152505083806001019450505b8080600101915050611254565b50808060010191505061123f565b50600195508080600101915050611224565b506060816040519080825280602002602001820160405280156113e85781602001602082028038833980820191505090505b50905060008090505b8281101561143a57838181518110151561140757fe5b90602001906020020151828281518110151561141f57fe5b906020019060200201818152505080806001019150506113f1565b50809650505050505050949350505050565b60006035600085815260200190815260200160002060008460ff1660ff16815260200190815260200160002060008373ffffffffffffffffffffffffffffffffffffffff1673ffffffffffffffffffffffffffffffffffffffff1681526020019081526020016000205490509392505050565b606060008490506000600490506060603760009054906101000a900473ffffffffffffffffffffffffffffffffffffffff1673ffffffffffffffffffffffffffffffffffffffff1663bb4a7f186040518163ffffffff167c010000000000000000000000000000000000000000000000000000000002815260040160006040518083038186803b15801561155257600080fd5b505afa158015611566573d6000803e3d6000fd5b505050506040513d6000823e3d601f19601f82011682018060405250602081101561159057600080fd5b8101908080516401000000008111156115a857600080fd5b828101905060208101848111156115be57600080fd5b81518560208202830111640100000000821117156115db57600080fd5b5050929190505050905060606033546040519080825280602002602001820160405280156116185781602001602082028038833980820191505090505b509050600080905060008a90505b88811115156117b8578881141561163b578794505b60008690505b8560ff168160ff161115156117a65760008090505b85518110156117985760006035600085815260200190815260200160002060008460ff1660ff1681526020019081526020016000206000888481518110151561169b57fe5b9060200190602002015173ffffffffffffffffffffffffffffffffffffffff1673ffffffffffffffffffffffffffffffffffffffff1681526020019081526020016000205414151561178b576035600084815260200190815260200160002060008360ff1660ff1681526020019081526020016000206000878381518110151561172157fe5b9060200190602002015173ffffffffffffffffffffffffffffffffffffffff1673ffffffffffffffffffffffffffffffffffffffff16815260200190815260200160002054858581518110151561177457fe5b906020019060200201818152505083806001019450505b8080600101915050611656565b508080600101915050611641565b50600195508080600101915050611626565b506060816040519080825280602002602001820160405280156117ea5781602001602082028038833980820191505090505b50905060008090505b8281101561183c57838181518110151561180957fe5b90602001906020020151828281518110151561182157fe5b906020019060200201818152505080806001019150506117f3565b50809650505050505050949350505050565b600080303b9050600081149150509056fea165627a7a7230582094cb1ff0b4f501692d4c840de9f1ba2e5a52cbd80c7a33e4482e132499c514c70029",
  "source": "pragma solidity >= 0.5.0;\n\nimport \"../VATTransaction.sol\";\n\ncontract VATTransactionMock is VATTransaction{\n    function initializeMock(address _userManager, address _vat) public {\n        VATTransaction.initialize(_userManager, _vat);\n    }\n}\n",
  "sourcePath": "/home/nicolabba/WebstormProjects/The-Walking-Bug/Soldino/contracts/mocks/VATTransactionMock.sol",
  "compiler": {
    "name": "solc",
    "version": "0.5.0+commit.1d4f565a.Emscripten.clang"
  },
  "schemaVersion": "3.0.6",
  "updatedAt": "2019-05-16T08:07:59.708Z",
  "devdoc": {
    "methods": {
      "addTransaction(uint256,address,address,bool,uint256,uint8)": {
        "details": "Stores the data of a new transaction associated with the paying of the VAT of a single business owner in given quarter",
        "params": {
          "_addressee": "The address of the payed user",
          "_addresser": "The address of the paying user",
          "_amount": "The amount in Cubit cents that was payed",
          "_quarter": "The quarter (1-4) in the given year",
          "_refused": "A boolean value that indicates if the transaction stands for the refusal of a payment",
          "_year": "The year of the quarter"
        }
      },
      "getCompensation(uint256,uint8,address)": {
        "details": "Returns the id of the compensation in a given quarter for a given business address",
        "params": {
          "_quarter": "The quarter (1-4) in the given year",
          "_year": "The year of the quarter"
        }
      },
      "getDeduction(uint256,uint8,address)": {
        "details": "Returns the id of the deduction in a given quarter for a given business address",
        "params": {
          "_quarter": "The quarter (1-4) in the given year",
          "_year": "The year of the quarter"
        }
      },
      "getVATCompensations(uint256,uint8,uint256,uint8)": {
        "details": "Returns all the vat compensations in a given period of time (for all users)",
        "params": {
          "_fromQuarter": "The starting quarter (1-4) in the given year",
          "_fromYear": "The year of the starting quarter",
          "_toQuarter": "The ending quarter (1-4) in the given year",
          "_toYear": "The year of the ending quarter"
        }
      },
      "getVATDeductions(uint256,uint8,uint256,uint8)": {
        "details": "Returns all the vat deductions in a given period of time (for all users)",
        "params": {
          "_fromQuarter": "The starting quarter (1-4) in the given year",
          "_fromYear": "The year of the starting quarter",
          "_toQuarter": "The ending quarter (1-4) in the given year",
          "_toYear": "The year of the ending quarter"
        }
      },
      "getVATTransactionData(uint256)": {
        "details": "Returns the data of a given transaction given the id",
        "params": {
          "_transactionID": "The id of the transaction"
        }
      },
      "initialize(address,address)": {
        "details": "Initializes the contract saving the instances of the proxies of the contracts used by this contract",
        "params": {
          "_userManager": "The instance of the proxy of the UserManager contract of this project",
          "_vat": "The instance of the proxy of the VAT contract of this project"
        }
      }
    }
  },
  "userdoc": {
    "methods": {}
  }
}