{
  "contractName": "BusinessOwner",
  "abi": [
    {
      "constant": false,
      "inputs": [
        {
          "name": "_userManager",
          "type": "address"
        }
      ],
      "name": "initialize",
      "outputs": [],
      "payable": false,
      "stateMutability": "nonpayable",
      "type": "function"
    },
    {
      "constant": false,
      "inputs": [
        {
          "name": "_hash",
          "type": "bytes32"
        },
        {
          "name": "_user",
          "type": "address"
        }
      ],
      "name": "registerBusinessOwner",
      "outputs": [],
      "payable": false,
      "stateMutability": "nonpayable",
      "type": "function"
    },
    {
      "constant": true,
      "inputs": [
        {
          "name": "_user",
          "type": "address"
        }
      ],
      "name": "login",
      "outputs": [
        {
          "name": "",
          "type": "bytes32"
        }
      ],
      "payable": false,
      "stateMutability": "view",
      "type": "function"
    },
    {
      "constant": true,
      "inputs": [],
      "name": "getAllBusinessOwners",
      "outputs": [
        {
          "name": "",
          "type": "address[]"
        }
      ],
      "payable": false,
      "stateMutability": "view",
      "type": "function"
    },
    {
      "constant": true,
      "inputs": [
        {
          "name": "_businessOwner",
          "type": "address"
        }
      ],
      "name": "isConfirmed",
      "outputs": [
        {
          "name": "",
          "type": "uint256"
        }
      ],
      "payable": false,
      "stateMutability": "view",
      "type": "function"
    },
    {
      "constant": false,
      "inputs": [
        {
          "name": "_businessOwner",
          "type": "address"
        }
      ],
      "name": "confirmBusiness",
      "outputs": [],
      "payable": false,
      "stateMutability": "nonpayable",
      "type": "function"
    },
    {
      "constant": false,
      "inputs": [
        {
          "name": "_businessOwner",
          "type": "address"
        }
      ],
      "name": "removeBusiness",
      "outputs": [],
      "payable": false,
      "stateMutability": "nonpayable",
      "type": "function"
    }
  ],
  "bytecode": "0x608060405234801561001057600080fd5b50610de5806100206000396000f3fe608060405260043610610083576000357c0100000000000000000000000000000000000000000000000000000000900463ffffffff16806318e4ac351461008857806335a6861a146100ed578063419b96fa14610152578063bb4a7f18146101a3578063c4d66de81461020f578063f111502414610260578063f3cb4aae146102bb575b600080fd5b34801561009457600080fd5b506100d7600480360360208110156100ab57600080fd5b81019080803573ffffffffffffffffffffffffffffffffffffffff16906020019092919050505061030c565b6040518082815260200191505060405180910390f35b3480156100f957600080fd5b5061013c6004803603602081101561011057600080fd5b81019080803573ffffffffffffffffffffffffffffffffffffffff16906020019092919050505061041a565b6040518082815260200191505060405180910390f35b34801561015e57600080fd5b506101a16004803603602081101561017557600080fd5b81019080803573ffffffffffffffffffffffffffffffffffffffff169060200190929190505050610528565b005b3480156101af57600080fd5b506101b86107ff565b6040518080602001828103825283818151815260200191508051906020019060200280838360005b838110156101fb5780820151818401526020810190506101e0565b505050509050019250505060405180910390f35b34801561021b57600080fd5b5061025e6004803603602081101561023257600080fd5b81019080803573ffffffffffffffffffffffffffffffffffffffff169060200190929190505050610952565b005b34801561026c57600080fd5b506102b96004803603604081101561028357600080fd5b8101908080359060200190929190803573ffffffffffffffffffffffffffffffffffffffff169060200190929190505050610ad8565b005b3480156102c757600080fd5b5061030a600480360360208110156102de57600080fd5b81019080803573ffffffffffffffffffffffffffffffffffffffff169060200190929190505050610c4b565b005b6000603660009054906101000a900473ffffffffffffffffffffffffffffffffffffffff1673ffffffffffffffffffffffffffffffffffffffff163373ffffffffffffffffffffffffffffffffffffffff161415156103d3576040517f08c379a00000000000000000000000000000000000000000000000000000000081526004018080602001828103825260108152602001807f4f6e6c7920757365724d616e616765720000000000000000000000000000000081525060200191505060405180910390fd5b603560008373ffffffffffffffffffffffffffffffffffffffff1673ffffffffffffffffffffffffffffffffffffffff168152602001908152602001600020549050919050565b6000603660009054906101000a900473ffffffffffffffffffffffffffffffffffffffff1673ffffffffffffffffffffffffffffffffffffffff163373ffffffffffffffffffffffffffffffffffffffff161415156104e1576040517f08c379a00000000000000000000000000000000000000000000000000000000081526004018080602001828103825260108152602001807f4f6e6c7920757365724d616e616765720000000000000000000000000000000081525060200191505060405180910390fd5b603460008373ffffffffffffffffffffffffffffffffffffffff1673ffffffffffffffffffffffffffffffffffffffff168152602001908152602001600020549050919050565b603660009054906101000a900473ffffffffffffffffffffffffffffffffffffffff1673ffffffffffffffffffffffffffffffffffffffff163373ffffffffffffffffffffffffffffffffffffffff161415156105ed576040517f08c379a00000000000000000000000000000000000000000000000000000000081526004018080602001828103825260108152602001807f4f6e6c7920757365724d616e616765720000000000000000000000000000000081525060200191505060405180910390fd5b6000603560008373ffffffffffffffffffffffffffffffffffffffff1673ffffffffffffffffffffffffffffffffffffffff168152602001908152602001600020819055506000600102603460008373ffffffffffffffffffffffffffffffffffffffff1673ffffffffffffffffffffffffffffffffffffffff1681526020019081526020016000208190555060008090505b6033805490508110156107fb578173ffffffffffffffffffffffffffffffffffffffff166033828154811015156106b357fe5b9060005260206000200160009054906101000a900473ffffffffffffffffffffffffffffffffffffffff1673ffffffffffffffffffffffffffffffffffffffff1614156107ee57603360016033805490500381548110151561071157fe5b9060005260206000200160009054906101000a900473ffffffffffffffffffffffffffffffffffffffff1660338281548110151561074b57fe5b9060005260206000200160006101000a81548173ffffffffffffffffffffffffffffffffffffffff021916908373ffffffffffffffffffffffffffffffffffffffff16021790555060336001603380549050038154811015156107aa57fe5b9060005260206000200160006101000a81549073ffffffffffffffffffffffffffffffffffffffff021916905560338054809190600190036107ec9190610d68565b505b8080600101915050610680565b5050565b6060603660009054906101000a900473ffffffffffffffffffffffffffffffffffffffff1673ffffffffffffffffffffffffffffffffffffffff163373ffffffffffffffffffffffffffffffffffffffff161415156108c6576040517f08c379a00000000000000000000000000000000000000000000000000000000081526004018080602001828103825260108152602001807f4f6e6c7920757365724d616e616765720000000000000000000000000000000081525060200191505060405180910390fd5b603380548060200260200160405190810160405280929190818152602001828054801561094857602002820191906000526020600020905b8160009054906101000a900473ffffffffffffffffffffffffffffffffffffffff1673ffffffffffffffffffffffffffffffffffffffff16815260200190600101908083116108fe575b5050505050905090565b600060019054906101000a900460ff16806109715750610970610d57565b5b8061098857506000809054906101000a900460ff16155b1515610a22576040517f08c379a000000000000000000000000000000000000000000000000000000000815260040180806020018281038252602e8152602001807f436f6e747261637420696e7374616e63652068617320616c726561647920626581526020017f656e20696e697469616c697a656400000000000000000000000000000000000081525060400191505060405180910390fd5b60008060019054906101000a900460ff161590508015610a72576001600060016101000a81548160ff02191690831515021790555060016000806101000a81548160ff0219169083151502179055505b81603660006101000a81548173ffffffffffffffffffffffffffffffffffffffff021916908373ffffffffffffffffffffffffffffffffffffffff1602179055508015610ad45760008060016101000a81548160ff0219169083151502179055505b5050565b603660009054906101000a900473ffffffffffffffffffffffffffffffffffffffff1673ffffffffffffffffffffffffffffffffffffffff163373ffffffffffffffffffffffffffffffffffffffff16141515610b9d576040517f08c379a00000000000000000000000000000000000000000000000000000000081526004018080602001828103825260108152602001807f4f6e6c7920757365724d616e616765720000000000000000000000000000000081525060200191505060405180910390fd5b81603460008373ffffffffffffffffffffffffffffffffffffffff1673ffffffffffffffffffffffffffffffffffffffff1681526020019081526020016000208190555060338190806001815401808255809150509060018203906000526020600020016000909192909190916101000a81548173ffffffffffffffffffffffffffffffffffffffff021916908373ffffffffffffffffffffffffffffffffffffffff160217905550505050565b603660009054906101000a900473ffffffffffffffffffffffffffffffffffffffff1673ffffffffffffffffffffffffffffffffffffffff163373ffffffffffffffffffffffffffffffffffffffff16141515610d10576040517f08c379a00000000000000000000000000000000000000000000000000000000081526004018080602001828103825260108152602001807f4f6e6c7920757365724d616e616765720000000000000000000000000000000081525060200191505060405180910390fd5b42603560008373ffffffffffffffffffffffffffffffffffffffff1673ffffffffffffffffffffffffffffffffffffffff1681526020019081526020016000208190555050565b600080303b90506000811491505090565b815481835581811115610d8f57818360005260206000209182019101610d8e9190610d94565b5b505050565b610db691905b80821115610db2576000816000905550600101610d9a565b5090565b9056fea165627a7a72305820e4747f5191828c19de1c43cb46f7b0ed7f0c73df4c48271d251cf1ee9be80a8c0029",
  "source": "pragma solidity ^0.5.0;\n\nimport \"zos-lib/contracts/Initializable.sol\";\n\nimport \"./UserManager.sol\";\n\n/// @title Business Owner\ncontract BusinessOwner is Initializable{\n\n    address[] private registeredBusinessOwners;\n    mapping(address => bytes32) private businessHashes;\n    mapping(address => uint256) private confirmedBusinesses;\n    UserManager internal userManager;\n\n    /**\n    * @dev Initializes the contract saving the instances of the proxies of the contracts used by this contract\n    * @param _userManager The instance of the proxy of the UserManager contract of this project\n    */\n    function initialize(address _userManager) initializer public {\n        userManager = UserManager(_userManager);\n    }\n\n    /**\n    * @dev A modifier that assures that the function is called only by the UserManager contract\n    */\n    modifier onlyUserManager() {\n        require(msg.sender == address(userManager), \"Only userManager\");\n        _;\n    }\n\n    /**\n    * @dev Registers the given user as a business owner\n    * @param _hash the hash of the data of the citizen present in ipfs\n    * @param _user the address of the business owner to be registered\n    */\n    function registerBusinessOwner (bytes32 _hash, address _user) public onlyUserManager {\n        businessHashes[_user] = _hash;\n        registeredBusinessOwners.push(_user);\n    }\n\n    /**\n    * @dev Returns the hash of the data of a specific user\n    * @param _user The address of the business owner whose data to return\n    */\n    function login(address _user) public onlyUserManager view returns(bytes32)  {\n        return businessHashes[_user];\n    }\n\n    /**\n    * @dev Returns a dynamic array containing all registered business owners' addresses\n    */\n    function getAllBusinessOwners() public onlyUserManager view returns(address[] memory) {\n        return registeredBusinessOwners;\n    }\n\n    /**\n    * @dev Returns true if the given business owner is confirmed\n    * @param _businessOwner The address of the business owner to check\n    */\n    function isConfirmed(address _businessOwner) public onlyUserManager view returns(uint256) {\n        return confirmedBusinesses[_businessOwner];\n    }\n\n    /**\n    * @dev Confirms the given business owner\n    * @param _businessOwner The address of the business owner to confirm\n    */\n    function confirmBusiness(address _businessOwner) public onlyUserManager {\n        confirmedBusinesses[_businessOwner] = now;\n    }\n\n    /**\n    * @dev Removes the given business owner\n    * @param _businessOwner The address of the business owner to remove\n    */\n    function removeBusiness(address _businessOwner) public onlyUserManager {\n        confirmedBusinesses[_businessOwner] = 0;\n        businessHashes[_businessOwner] = 0x0;\n        for (uint256 i = 0; i < registeredBusinessOwners.length; i++) {\n            if (registeredBusinessOwners[i] == _businessOwner) {\n                registeredBusinessOwners[i] = registeredBusinessOwners[registeredBusinessOwners.length - 1];\n                delete registeredBusinessOwners[registeredBusinessOwners.length - 1];\n                registeredBusinessOwners.length--;\n            }\n        }\n    }\n}\n",
  "sourcePath": "/home/nicolabba/WebstormProjects/The-Walking-Bug/Soldino/contracts/BusinessOwner.sol",
  "compiler": {
    "name": "solc",
    "version": "0.5.0+commit.1d4f565a.Emscripten.clang"
  },
  "schemaVersion": "3.0.6",
  "updatedAt": "2019-05-16T08:34:01.557Z",
  "devdoc": {
    "methods": {
      "confirmBusiness(address)": {
        "details": "Confirms the given business owner",
        "params": {
          "_businessOwner": "The address of the business owner to confirm"
        }
      },
      "getAllBusinessOwners()": {
        "details": "Returns a dynamic array containing all registered business owners' addresses"
      },
      "initialize(address)": {
        "details": "Initializes the contract saving the instances of the proxies of the contracts used by this contract",
        "params": {
          "_userManager": "The instance of the proxy of the UserManager contract of this project"
        }
      },
      "isConfirmed(address)": {
        "details": "Returns true if the given business owner is confirmed",
        "params": {
          "_businessOwner": "The address of the business owner to check"
        }
      },
      "login(address)": {
        "details": "Returns the hash of the data of a specific user",
        "params": {
          "_user": "The address of the business owner whose data to return"
        }
      },
      "registerBusinessOwner(bytes32,address)": {
        "details": "Registers the given user as a business owner",
        "params": {
          "_hash": "the hash of the data of the citizen present in ipfs",
          "_user": "the address of the business owner to be registered"
        }
      },
      "removeBusiness(address)": {
        "details": "Removes the given business owner",
        "params": {
          "_businessOwner": "The address of the business owner to remove"
        }
      }
    },
    "title": "Business Owner"
  },
  "userdoc": {
    "methods": {}
  }
}