{
  "contractName": "Citizen",
  "abi": [
    {
      "constant": false,
      "inputs": [
        {
          "name": "_userManager",
          "type": "address"
        }
      ],
      "name": "initialize",
      "outputs": [],
      "payable": false,
      "stateMutability": "nonpayable",
      "type": "function"
    },
    {
      "constant": false,
      "inputs": [
        {
          "name": "_hash",
          "type": "bytes32"
        },
        {
          "name": "_user",
          "type": "address"
        }
      ],
      "name": "registerCitizen",
      "outputs": [],
      "payable": false,
      "stateMutability": "nonpayable",
      "type": "function"
    },
    {
      "constant": true,
      "inputs": [
        {
          "name": "_user",
          "type": "address"
        }
      ],
      "name": "login",
      "outputs": [
        {
          "name": "",
          "type": "bytes32"
        }
      ],
      "payable": false,
      "stateMutability": "view",
      "type": "function"
    },
    {
      "constant": true,
      "inputs": [],
      "name": "getAllCitizens",
      "outputs": [
        {
          "name": "",
          "type": "address[]"
        }
      ],
      "payable": false,
      "stateMutability": "view",
      "type": "function"
    }
  ],
  "bytecode": "0x608060405234801561001057600080fd5b5061077b806100206000396000f3fe608060405260043610610062576000357c0100000000000000000000000000000000000000000000000000000000900463ffffffff16806302dadf8e1461006757806335a6861a146100c25780636c0e1ccd14610127578063c4d66de814610193575b600080fd5b34801561007357600080fd5b506100c06004803603604081101561008a57600080fd5b8101908080359060200190929190803573ffffffffffffffffffffffffffffffffffffffff1690602001909291905050506101e4565b005b3480156100ce57600080fd5b50610111600480360360208110156100e557600080fd5b81019080803573ffffffffffffffffffffffffffffffffffffffff169060200190929190505050610357565b6040518082815260200191505060405180910390f35b34801561013357600080fd5b5061013c610465565b6040518080602001828103825283818151815260200191508051906020019060200280838360005b8381101561017f578082015181840152602081019050610164565b505050509050019250505060405180910390f35b34801561019f57600080fd5b506101e2600480360360208110156101b657600080fd5b81019080803573ffffffffffffffffffffffffffffffffffffffff1690602001909291905050506105b8565b005b603560009054906101000a900473ffffffffffffffffffffffffffffffffffffffff1673ffffffffffffffffffffffffffffffffffffffff163373ffffffffffffffffffffffffffffffffffffffff161415156102a9576040517f08c379a00000000000000000000000000000000000000000000000000000000081526004018080602001828103825260108152602001807f4f6e6c7920757365724d616e616765720000000000000000000000000000000081525060200191505060405180910390fd5b81603460008373ffffffffffffffffffffffffffffffffffffffff1673ffffffffffffffffffffffffffffffffffffffff1681526020019081526020016000208190555060338190806001815401808255809150509060018203906000526020600020016000909192909190916101000a81548173ffffffffffffffffffffffffffffffffffffffff021916908373ffffffffffffffffffffffffffffffffffffffff160217905550505050565b6000603560009054906101000a900473ffffffffffffffffffffffffffffffffffffffff1673ffffffffffffffffffffffffffffffffffffffff163373ffffffffffffffffffffffffffffffffffffffff1614151561041e576040517f08c379a00000000000000000000000000000000000000000000000000000000081526004018080602001828103825260108152602001807f4f6e6c7920757365724d616e616765720000000000000000000000000000000081525060200191505060405180910390fd5b603460008373ffffffffffffffffffffffffffffffffffffffff1673ffffffffffffffffffffffffffffffffffffffff168152602001908152602001600020549050919050565b6060603560009054906101000a900473ffffffffffffffffffffffffffffffffffffffff1673ffffffffffffffffffffffffffffffffffffffff163373ffffffffffffffffffffffffffffffffffffffff1614151561052c576040517f08c379a00000000000000000000000000000000000000000000000000000000081526004018080602001828103825260108152602001807f4f6e6c7920757365724d616e616765720000000000000000000000000000000081525060200191505060405180910390fd5b60338054806020026020016040519081016040528092919081815260200182805480156105ae57602002820191906000526020600020905b8160009054906101000a900473ffffffffffffffffffffffffffffffffffffffff1673ffffffffffffffffffffffffffffffffffffffff1681526020019060010190808311610564575b5050505050905090565b600060019054906101000a900460ff16806105d757506105d661073e565b5b806105ee57506000809054906101000a900460ff16155b1515610688576040517f08c379a000000000000000000000000000000000000000000000000000000000815260040180806020018281038252602e8152602001807f436f6e747261637420696e7374616e63652068617320616c726561647920626581526020017f656e20696e697469616c697a656400000000000000000000000000000000000081525060400191505060405180910390fd5b60008060019054906101000a900460ff1615905080156106d8576001600060016101000a81548160ff02191690831515021790555060016000806101000a81548160ff0219169083151502179055505b81603560006101000a81548173ffffffffffffffffffffffffffffffffffffffff021916908373ffffffffffffffffffffffffffffffffffffffff160217905550801561073a5760008060016101000a81548160ff0219169083151502179055505b5050565b600080303b9050600081149150509056fea165627a7a7230582014608bd1940fef3efdb66f5ab0c5e2d64337bd8ce52607a95ec3b278b33356a70029",
  "source": "pragma solidity ^0.5.0;\n\nimport \"zos-lib/contracts/Initializable.sol\";\nimport \"zos-lib/contracts/application/App.sol\";\n\nimport \"./UserManager.sol\";\n\n/// @title Citizen\ncontract Citizen is Initializable {\n\n    address[] private registeredCitizens;\n    mapping(address => bytes32) private citizenHashes;\n    UserManager internal userManager;\n\n    /**\n    * @dev Initializes the contract saving the instances of the proxies of the contracts used by this contract\n    * @param _userManager The instance of the proxy of the UserManager contract of this project\n    */\n    function initialize(address _userManager) initializer public {\n        userManager = UserManager(_userManager);\n    }\n\n    /**\n    * @dev A modifier that assures that the function is called only by the UserManager contract\n    */\n    modifier onlyUserManager() {\n        require(msg.sender == address(userManager), \"Only userManager\");\n        _;\n    }\n\n    /**\n    * @dev Registers the given user as a citizen\n    * @param _hash the hash of the data of the citizen present in ipfs\n    * @param _user the address of the citizen to be registered\n    */\n    function registerCitizen(bytes32 _hash, address _user) public onlyUserManager {\n        citizenHashes[_user] = _hash;\n        registeredCitizens.push(_user);\n    }\n\n    /**\n    * @dev Returns the hash of the data of a specific citizen\n    * @param _user The address of the citizen whose data to return\n    */\n    function login(address _user) public onlyUserManager view returns(bytes32) {\n        return citizenHashes[_user];\n    }\n\n    /**\n    * @dev Returns a dynamic array containing all registered citizens' addresses\n    */\n    function getAllCitizens() public onlyUserManager view returns(address[] memory) {\n        return registeredCitizens;\n    }\n}\n",
  "sourcePath": "/home/nicolabba/WebstormProjects/The-Walking-Bug/Soldino/contracts/Citizen.sol",
  "compiler": {
    "name": "solc",
    "version": "0.5.0+commit.1d4f565a.Emscripten.clang"
  },
  "schemaVersion": "3.0.6",
  "updatedAt": "2019-05-16T08:34:01.552Z",
  "devdoc": {
    "methods": {
      "getAllCitizens()": {
        "details": "Returns a dynamic array containing all registered citizens' addresses"
      },
      "initialize(address)": {
        "details": "Initializes the contract saving the instances of the proxies of the contracts used by this contract",
        "params": {
          "_userManager": "The instance of the proxy of the UserManager contract of this project"
        }
      },
      "login(address)": {
        "details": "Returns the hash of the data of a specific citizen",
        "params": {
          "_user": "The address of the citizen whose data to return"
        }
      },
      "registerCitizen(bytes32,address)": {
        "details": "Registers the given user as a citizen",
        "params": {
          "_hash": "the hash of the data of the citizen present in ipfs",
          "_user": "the address of the citizen to be registered"
        }
      }
    },
    "title": "Citizen"
  },
  "userdoc": {
    "methods": {}
  }
}