{
  "contractName": "GovernmentMock",
  "abi": [
    {
      "constant": true,
      "inputs": [
        {
          "name": "_user",
          "type": "address"
        }
      ],
      "name": "isGovernment",
      "outputs": [
        {
          "name": "",
          "type": "bool"
        }
      ],
      "payable": false,
      "stateMutability": "view",
      "type": "function"
    },
    {
      "constant": true,
      "inputs": [],
      "name": "getGovernmentAddress",
      "outputs": [
        {
          "name": "",
          "type": "address"
        }
      ],
      "payable": false,
      "stateMutability": "view",
      "type": "function"
    },
    {
      "constant": false,
      "inputs": [
        {
          "name": "_userManager",
          "type": "address"
        },
        {
          "name": "_cubit",
          "type": "address"
        },
        {
          "name": "_governmentAddress",
          "type": "address"
        }
      ],
      "name": "initialize",
      "outputs": [],
      "payable": false,
      "stateMutability": "nonpayable",
      "type": "function"
    },
    {
      "constant": false,
      "inputs": [
        {
          "name": "_amount",
          "type": "uint256"
        }
      ],
      "name": "distributeToAll",
      "outputs": [],
      "payable": false,
      "stateMutability": "nonpayable",
      "type": "function"
    },
    {
      "constant": false,
      "inputs": [
        {
          "name": "_to",
          "type": "address[]"
        },
        {
          "name": "_amount",
          "type": "uint256"
        }
      ],
      "name": "distributeToUsers",
      "outputs": [],
      "payable": false,
      "stateMutability": "nonpayable",
      "type": "function"
    },
    {
      "constant": false,
      "inputs": [
        {
          "name": "_userManager",
          "type": "address"
        },
        {
          "name": "_cubit",
          "type": "address"
        },
        {
          "name": "_governmentAddress",
          "type": "address"
        }
      ],
      "name": "initializeMock",
      "outputs": [],
      "payable": false,
      "stateMutability": "nonpayable",
      "type": "function"
    },
    {
      "constant": false,
      "inputs": [
        {
          "name": "_to",
          "type": "address[]"
        },
        {
          "name": "_amount",
          "type": "uint256"
        }
      ],
      "name": "distribute",
      "outputs": [],
      "payable": false,
      "stateMutability": "nonpayable",
      "type": "function"
    }
  ],
  "bytecode": "0x608060405234801561001057600080fd5b506110a7806100206000396000f3fe608060405260043610610083576000357c0100000000000000000000000000000000000000000000000000000000900463ffffffff1680631826c119146100885780636c2b04fd14610157578063870c8079146101c0578063c0c53b8b14610217578063d96baee3146102a8578063e284f21714610339578063ee7cdfc014610374575b600080fd5b34801561009457600080fd5b50610155600480360360408110156100ab57600080fd5b81019080803590602001906401000000008111156100c857600080fd5b8201836020820111156100da57600080fd5b803590602001918460208302840111640100000000831117156100fc57600080fd5b919080806020026020016040519081016040528093929190818152602001838360200280828437600081840152601f19601f82011690508083019250505050505050919291929080359060200190929190505050610443565b005b34801561016357600080fd5b506101a66004803603602081101561017a57600080fd5b81019080803573ffffffffffffffffffffffffffffffffffffffff169060200190929190505050610451565b604051808215151515815260200191505060405180910390f35b3480156101cc57600080fd5b506101d56104ab565b604051808273ffffffffffffffffffffffffffffffffffffffff1673ffffffffffffffffffffffffffffffffffffffff16815260200191505060405180910390f35b34801561022357600080fd5b506102a66004803603606081101561023a57600080fd5b81019080803573ffffffffffffffffffffffffffffffffffffffff169060200190929190803573ffffffffffffffffffffffffffffffffffffffff169060200190929190803573ffffffffffffffffffffffffffffffffffffffff1690602001909291905050506104d5565b005b3480156102b457600080fd5b50610337600480360360608110156102cb57600080fd5b81019080803573ffffffffffffffffffffffffffffffffffffffff169060200190929190803573ffffffffffffffffffffffffffffffffffffffff169060200190929190803573ffffffffffffffffffffffffffffffffffffffff1690602001909291905050506106df565b005b34801561034557600080fd5b506103726004803603602081101561035c57600080fd5b81019080803590602001909291905050506106ef565b005b34801561038057600080fd5b506104416004803603604081101561039757600080fd5b81019080803590602001906401000000008111156103b457600080fd5b8201836020820111156103c657600080fd5b803590602001918460208302840111640100000000831117156103e857600080fd5b919080806020026020016040519081016040528093929190818152602001838360200280828437600081840152601f19601f82011690508083019250505050505050919291929080359060200190929190505050610a4b565b005b61044d8282610c8e565b5050565b60008173ffffffffffffffffffffffffffffffffffffffff16603360009054906101000a900473ffffffffffffffffffffffffffffffffffffffff1673ffffffffffffffffffffffffffffffffffffffff16149050919050565b6000603360009054906101000a900473ffffffffffffffffffffffffffffffffffffffff16905090565b600060019054906101000a900460ff16806104f457506104f361106a565b5b8061050b57506000809054906101000a900460ff16155b15156105a5576040517f08c379a000000000000000000000000000000000000000000000000000000000815260040180806020018281038252602e8152602001807f436f6e747261637420696e7374616e63652068617320616c726561647920626581526020017f656e20696e697469616c697a656400000000000000000000000000000000000081525060400191505060405180910390fd5b60008060019054906101000a900460ff1615905080156105f5576001600060016101000a81548160ff02191690831515021790555060016000806101000a81548160ff0219169083151502179055505b83603460006101000a81548173ffffffffffffffffffffffffffffffffffffffff021916908373ffffffffffffffffffffffffffffffffffffffff16021790555082603560006101000a81548173ffffffffffffffffffffffffffffffffffffffff021916908373ffffffffffffffffffffffffffffffffffffffff16021790555081603360006101000a81548173ffffffffffffffffffffffffffffffffffffffff021916908373ffffffffffffffffffffffffffffffffffffffff16021790555080156106d95760008060016101000a81548160ff0219169083151502179055505b50505050565b6106ea8383836104d5565b505050565b3373ffffffffffffffffffffffffffffffffffffffff16603360009054906101000a900473ffffffffffffffffffffffffffffffffffffffff1673ffffffffffffffffffffffffffffffffffffffff161415156107b4576040517f08c379a00000000000000000000000000000000000000000000000000000000081526004018080602001828103825260198152602001807f4e6f742061207265676973746572656420636974697a656e210000000000000081525060200191505060405180910390fd5b6060603460009054906101000a900473ffffffffffffffffffffffffffffffffffffffff1673ffffffffffffffffffffffffffffffffffffffff1663397388af6040518163ffffffff167c010000000000000000000000000000000000000000000000000000000002815260040160006040518083038186803b15801561083a57600080fd5b505afa15801561084e573d6000803e3d6000fd5b505050506040513d6000823e3d601f19601f82011682018060405250602081101561087857600080fd5b81019080805164010000000081111561089057600080fd5b828101905060208101848111156108a657600080fd5b81518560208202830111640100000000821117156108c357600080fd5b50509291905050509050603560009054906101000a900473ffffffffffffffffffffffffffffffffffffffff1673ffffffffffffffffffffffffffffffffffffffff166370a08231336040518263ffffffff167c0100000000000000000000000000000000000000000000000000000000028152600401808273ffffffffffffffffffffffffffffffffffffffff1673ffffffffffffffffffffffffffffffffffffffff16815260200191505060206040518083038186803b15801561098857600080fd5b505afa15801561099c573d6000803e3d6000fd5b505050506040513d60208110156109b257600080fd5b81019080805190602001909291905050508282510211151515610a3d576040517f08c379a00000000000000000000000000000000000000000000000000000000081526004018080602001828103825260118152602001807f4e6f7420656e6f75676820746f6b656e7300000000000000000000000000000081525060200191505060405180910390fd5b610a478183610c8e565b5050565b3373ffffffffffffffffffffffffffffffffffffffff16603360009054906101000a900473ffffffffffffffffffffffffffffffffffffffff1673ffffffffffffffffffffffffffffffffffffffff16141515610b10576040517f08c379a00000000000000000000000000000000000000000000000000000000081526004018080602001828103825260198152602001807f4e6f742061207265676973746572656420636974697a656e210000000000000081525060200191505060405180910390fd5b603560009054906101000a900473ffffffffffffffffffffffffffffffffffffffff1673ffffffffffffffffffffffffffffffffffffffff166370a08231336040518263ffffffff167c0100000000000000000000000000000000000000000000000000000000028152600401808273ffffffffffffffffffffffffffffffffffffffff1673ffffffffffffffffffffffffffffffffffffffff16815260200191505060206040518083038186803b158015610bcb57600080fd5b505afa158015610bdf573d6000803e3d6000fd5b505050506040513d6020811015610bf557600080fd5b81019080805190602001909291905050508183510211151515610c80576040517f08c379a00000000000000000000000000000000000000000000000000000000081526004018080602001828103825260118152602001807f4e6f7420656e6f75676820746f6b656e7300000000000000000000000000000081525060200191505060405180910390fd5b610c8a8282610c8e565b5050565b600080600090505b835181101561106457603460009054906101000a900473ffffffffffffffffffffffffffffffffffffffff1673ffffffffffffffffffffffffffffffffffffffff1663c3c5a5478583815181101515610ceb57fe5b906020019060200201516040518263ffffffff167c0100000000000000000000000000000000000000000000000000000000028152600401808273ffffffffffffffffffffffffffffffffffffffff1673ffffffffffffffffffffffffffffffffffffffff16815260200191505060206040518083038186803b158015610d7157600080fd5b505afa158015610d85573d6000803e3d6000fd5b505050506040513d6020811015610d9b57600080fd5b81019080805190602001909291905050506003811115610db757fe5b915060018214158015610ee25750600282141580610ee157506000603460009054906101000a900473ffffffffffffffffffffffffffffffffffffffff1673ffffffffffffffffffffffffffffffffffffffff166392e5c9c98684815181101515610e1e57fe5b906020019060200201516040518263ffffffff167c0100000000000000000000000000000000000000000000000000000000028152600401808273ffffffffffffffffffffffffffffffffffffffff1673ffffffffffffffffffffffffffffffffffffffff16815260200191505060206040518083038186803b158015610ea457600080fd5b505afa158015610eb8573d6000803e3d6000fd5b505050506040513d6020811015610ece57600080fd5b8101908080519060200190929190505050145b5b151561105757603560009054906101000a900473ffffffffffffffffffffffffffffffffffffffff1673ffffffffffffffffffffffffffffffffffffffff166323b872dd603360009054906101000a900473ffffffffffffffffffffffffffffffffffffffff168684815181101515610f5757fe5b90602001906020020151866040518463ffffffff167c0100000000000000000000000000000000000000000000000000000000028152600401808473ffffffffffffffffffffffffffffffffffffffff1673ffffffffffffffffffffffffffffffffffffffff1681526020018373ffffffffffffffffffffffffffffffffffffffff1673ffffffffffffffffffffffffffffffffffffffff1681526020018281526020019350505050602060405180830381600087803b15801561101a57600080fd5b505af115801561102e573d6000803e3d6000fd5b505050506040513d602081101561104457600080fd5b8101908080519060200190929190505050505b8080600101915050610c96565b50505050565b600080303b9050600081149150509056fea165627a7a72305820fd280f3433304994a5df65b586885e1242c115291c3d0b813e342602fdcf06b60029",
  "source": "pragma solidity ^0.5.0;\n\nimport \"../Government.sol\";\n\n/// @title Government\ncontract GovernmentMock is Government{\n    function initializeMock(address _userManager, address _cubit, address _governmentAddress) public {\n        Government.initialize(_userManager, _cubit, _governmentAddress);\n    }\n\n    function distribute(address[] memory _to, uint256 _amount) public  {\n        Government._distribute(_to, _amount);\n    }\n}\n",
  "sourcePath": "/home/nicolabba/WebstormProjects/The-Walking-Bug/Soldino/contracts/mocks/GovernmentMock.sol",
  "compiler": {
    "name": "solc",
    "version": "0.5.0+commit.1d4f565a.Emscripten.clang"
  },
  "schemaVersion": "3.0.6",
  "updatedAt": "2019-05-16T08:34:01.693Z",
  "devdoc": {
    "methods": {
      "distributeToAll(uint256)": {
        "details": "Allows the government to distribute cubits to all citizens and business owners registered in the system",
        "params": {
          "_amount": "the amount of cubits to give to EACH of the users"
        }
      },
      "distributeToUsers(address[],uint256)": {
        "details": "Allows the government to distribute cubits to a specific set of users",
        "params": {
          "_amount": "the amount of cubits to give to EACH of the users",
          "_to": "An array containing the addresses of the users to whom send cubits"
        }
      },
      "getGovernmentAddress()": {
        "details": "Returns the address of the government user"
      },
      "initialize(address,address,address)": {
        "details": "Initializes the contract saving the instances of the proxies of the contracts used by this contract and the address of the government user",
        "params": {
          "_cubit": "The instance of the proxy of the Cubit contract of this project",
          "_governmentAddress": "The address of the government user",
          "_userManager": "The instance of the proxy of the UserManager contract of this project"
        }
      },
      "isGovernment(address)": {
        "details": "Returns true if the given user is the government",
        "params": {
          "_user": "The address of the user to check"
        }
      }
    },
    "title": "Government"
  },
  "userdoc": {
    "methods": {}
  }
}