{
  "contractName": "Government",
  "abi": [
    {
      "constant": false,
      "inputs": [
        {
          "name": "_userManager",
          "type": "address"
        },
        {
          "name": "_cubit",
          "type": "address"
        },
        {
          "name": "_governmentAddress",
          "type": "address"
        }
      ],
      "name": "initialize",
      "outputs": [],
      "payable": false,
      "stateMutability": "nonpayable",
      "type": "function"
    },
    {
      "constant": true,
      "inputs": [
        {
          "name": "_user",
          "type": "address"
        }
      ],
      "name": "isGovernment",
      "outputs": [
        {
          "name": "",
          "type": "bool"
        }
      ],
      "payable": false,
      "stateMutability": "view",
      "type": "function"
    },
    {
      "constant": false,
      "inputs": [
        {
          "name": "_to",
          "type": "address[]"
        },
        {
          "name": "_amount",
          "type": "uint256"
        }
      ],
      "name": "distributeToUsers",
      "outputs": [],
      "payable": false,
      "stateMutability": "nonpayable",
      "type": "function"
    },
    {
      "constant": false,
      "inputs": [
        {
          "name": "_amount",
          "type": "uint256"
        }
      ],
      "name": "distributeToAll",
      "outputs": [],
      "payable": false,
      "stateMutability": "nonpayable",
      "type": "function"
    },
    {
      "constant": true,
      "inputs": [],
      "name": "getGovernmentAddress",
      "outputs": [
        {
          "name": "",
          "type": "address"
        }
      ],
      "payable": false,
      "stateMutability": "view",
      "type": "function"
    }
  ],
  "bytecode": "0x608060405234801561001057600080fd5b50610f13806100206000396000f3fe60806040526004361061006d576000357c0100000000000000000000000000000000000000000000000000000000900463ffffffff1680636c2b04fd14610072578063870c8079146100db578063c0c53b8b14610132578063e284f217146101c3578063ee7cdfc0146101fe575b600080fd5b34801561007e57600080fd5b506100c16004803603602081101561009557600080fd5b81019080803573ffffffffffffffffffffffffffffffffffffffff1690602001909291905050506102cd565b604051808215151515815260200191505060405180910390f35b3480156100e757600080fd5b506100f0610327565b604051808273ffffffffffffffffffffffffffffffffffffffff1673ffffffffffffffffffffffffffffffffffffffff16815260200191505060405180910390f35b34801561013e57600080fd5b506101c16004803603606081101561015557600080fd5b81019080803573ffffffffffffffffffffffffffffffffffffffff169060200190929190803573ffffffffffffffffffffffffffffffffffffffff169060200190929190803573ffffffffffffffffffffffffffffffffffffffff169060200190929190505050610351565b005b3480156101cf57600080fd5b506101fc600480360360208110156101e657600080fd5b810190808035906020019092919050505061055b565b005b34801561020a57600080fd5b506102cb6004803603604081101561022157600080fd5b810190808035906020019064010000000081111561023e57600080fd5b82018360208201111561025057600080fd5b8035906020019184602083028401116401000000008311171561027257600080fd5b919080806020026020016040519081016040528093929190818152602001838360200280828437600081840152601f19601f820116905080830192505050505050509192919290803590602001909291905050506108b7565b005b60008173ffffffffffffffffffffffffffffffffffffffff16603360009054906101000a900473ffffffffffffffffffffffffffffffffffffffff1673ffffffffffffffffffffffffffffffffffffffff16149050919050565b6000603360009054906101000a900473ffffffffffffffffffffffffffffffffffffffff16905090565b600060019054906101000a900460ff1680610370575061036f610afa565b5b8061038757506000809054906101000a900460ff16155b1515610421576040517f08c379a000000000000000000000000000000000000000000000000000000000815260040180806020018281038252602e8152602001807f436f6e747261637420696e7374616e63652068617320616c726561647920626581526020017f656e20696e697469616c697a656400000000000000000000000000000000000081525060400191505060405180910390fd5b60008060019054906101000a900460ff161590508015610471576001600060016101000a81548160ff02191690831515021790555060016000806101000a81548160ff0219169083151502179055505b83603460006101000a81548173ffffffffffffffffffffffffffffffffffffffff021916908373ffffffffffffffffffffffffffffffffffffffff16021790555082603560006101000a81548173ffffffffffffffffffffffffffffffffffffffff021916908373ffffffffffffffffffffffffffffffffffffffff16021790555081603360006101000a81548173ffffffffffffffffffffffffffffffffffffffff021916908373ffffffffffffffffffffffffffffffffffffffff16021790555080156105555760008060016101000a81548160ff0219169083151502179055505b50505050565b3373ffffffffffffffffffffffffffffffffffffffff16603360009054906101000a900473ffffffffffffffffffffffffffffffffffffffff1673ffffffffffffffffffffffffffffffffffffffff16141515610620576040517f08c379a00000000000000000000000000000000000000000000000000000000081526004018080602001828103825260198152602001807f4e6f742061207265676973746572656420636974697a656e210000000000000081525060200191505060405180910390fd5b6060603460009054906101000a900473ffffffffffffffffffffffffffffffffffffffff1673ffffffffffffffffffffffffffffffffffffffff1663397388af6040518163ffffffff167c010000000000000000000000000000000000000000000000000000000002815260040160006040518083038186803b1580156106a657600080fd5b505afa1580156106ba573d6000803e3d6000fd5b505050506040513d6000823e3d601f19601f8201168201806040525060208110156106e457600080fd5b8101908080516401000000008111156106fc57600080fd5b8281019050602081018481111561071257600080fd5b815185602082028301116401000000008211171561072f57600080fd5b50509291905050509050603560009054906101000a900473ffffffffffffffffffffffffffffffffffffffff1673ffffffffffffffffffffffffffffffffffffffff166370a08231336040518263ffffffff167c0100000000000000000000000000000000000000000000000000000000028152600401808273ffffffffffffffffffffffffffffffffffffffff1673ffffffffffffffffffffffffffffffffffffffff16815260200191505060206040518083038186803b1580156107f457600080fd5b505afa158015610808573d6000803e3d6000fd5b505050506040513d602081101561081e57600080fd5b810190808051906020019092919050505082825102111515156108a9576040517f08c379a00000000000000000000000000000000000000000000000000000000081526004018080602001828103825260118152602001807f4e6f7420656e6f75676820746f6b656e7300000000000000000000000000000081525060200191505060405180910390fd5b6108b38183610b0b565b5050565b3373ffffffffffffffffffffffffffffffffffffffff16603360009054906101000a900473ffffffffffffffffffffffffffffffffffffffff1673ffffffffffffffffffffffffffffffffffffffff1614151561097c576040517f08c379a00000000000000000000000000000000000000000000000000000000081526004018080602001828103825260198152602001807f4e6f742061207265676973746572656420636974697a656e210000000000000081525060200191505060405180910390fd5b603560009054906101000a900473ffffffffffffffffffffffffffffffffffffffff1673ffffffffffffffffffffffffffffffffffffffff166370a08231336040518263ffffffff167c0100000000000000000000000000000000000000000000000000000000028152600401808273ffffffffffffffffffffffffffffffffffffffff1673ffffffffffffffffffffffffffffffffffffffff16815260200191505060206040518083038186803b158015610a3757600080fd5b505afa158015610a4b573d6000803e3d6000fd5b505050506040513d6020811015610a6157600080fd5b81019080805190602001909291905050508183510211151515610aec576040517f08c379a00000000000000000000000000000000000000000000000000000000081526004018080602001828103825260118152602001807f4e6f7420656e6f75676820746f6b656e7300000000000000000000000000000081525060200191505060405180910390fd5b610af68282610b0b565b5050565b600080303b90506000811491505090565b600080600090505b8351811015610ee157603460009054906101000a900473ffffffffffffffffffffffffffffffffffffffff1673ffffffffffffffffffffffffffffffffffffffff1663c3c5a5478583815181101515610b6857fe5b906020019060200201516040518263ffffffff167c0100000000000000000000000000000000000000000000000000000000028152600401808273ffffffffffffffffffffffffffffffffffffffff1673ffffffffffffffffffffffffffffffffffffffff16815260200191505060206040518083038186803b158015610bee57600080fd5b505afa158015610c02573d6000803e3d6000fd5b505050506040513d6020811015610c1857600080fd5b81019080805190602001909291905050506003811115610c3457fe5b915060018214158015610d5f5750600282141580610d5e57506000603460009054906101000a900473ffffffffffffffffffffffffffffffffffffffff1673ffffffffffffffffffffffffffffffffffffffff166392e5c9c98684815181101515610c9b57fe5b906020019060200201516040518263ffffffff167c0100000000000000000000000000000000000000000000000000000000028152600401808273ffffffffffffffffffffffffffffffffffffffff1673ffffffffffffffffffffffffffffffffffffffff16815260200191505060206040518083038186803b158015610d2157600080fd5b505afa158015610d35573d6000803e3d6000fd5b505050506040513d6020811015610d4b57600080fd5b8101908080519060200190929190505050145b5b1515610ed457603560009054906101000a900473ffffffffffffffffffffffffffffffffffffffff1673ffffffffffffffffffffffffffffffffffffffff166323b872dd603360009054906101000a900473ffffffffffffffffffffffffffffffffffffffff168684815181101515610dd457fe5b90602001906020020151866040518463ffffffff167c0100000000000000000000000000000000000000000000000000000000028152600401808473ffffffffffffffffffffffffffffffffffffffff1673ffffffffffffffffffffffffffffffffffffffff1681526020018373ffffffffffffffffffffffffffffffffffffffff1673ffffffffffffffffffffffffffffffffffffffff1681526020018281526020019350505050602060405180830381600087803b158015610e9757600080fd5b505af1158015610eab573d6000803e3d6000fd5b505050506040513d6020811015610ec157600080fd5b8101908080519060200190929190505050505b8080600101915050610b13565b5050505056fea165627a7a72305820762c23d0c64d3bbb24670e32fdefb48b96a2e3699d49298723402524a75cee510029",
  "source": "pragma solidity ^0.5.0;\n\nimport \"zos-lib/contracts/Initializable.sol\";\n\nimport \"./UserManager.sol\";\nimport \"./Cubit.sol\";\n\n/// @title Government\ncontract Government is Initializable{\n\n    address private governmentAddress;\n    UserManager internal userManager;\n    Cubit internal cubit;\n\n    /**\n    * @dev Initializes the contract saving the instances of the proxies of the contracts used by this contract and the address of the government user\n    * @param _userManager The instance of the proxy of the UserManager contract of this project\n    * @param _cubit The instance of the proxy of the Cubit contract of this project\n    * @param _governmentAddress The address of the government user\n    */\n    function initialize(address _userManager, address _cubit, address _governmentAddress)\n    initializer public {\n        userManager = UserManager(_userManager);\n        cubit = Cubit(_cubit);\n        governmentAddress = _governmentAddress;\n    }\n\n    /**\n    * @dev Checks if the user who calls this function is the government\n    */\n    modifier onlyGovernment {\n        require(governmentAddress == msg.sender, \"Not a registered citizen!\");\n        _;\n    }\n\n    /**\n    * @dev Returns true if the given user is the government\n    * @param _user The address of the user to check\n    */\n    function isGovernment(address _user) public view returns(bool) {\n        return governmentAddress == _user;\n    }\n\n    /**\n    * @dev Allows the government to distribute cubits to a specific set of users\n    * @param _to An array containing the addresses of the users to whom send cubits\n    * @param _amount the amount of cubits to give to EACH of the users\n    */\n    function distributeToUsers(address[] memory _to, uint256 _amount) onlyGovernment public {\n        require((_to.length * _amount <= cubit.balanceOf(msg.sender)),\n                \"Not enough tokens\");\n        _distribute(_to, _amount);\n    }\n\n    /**\n    * @dev Allows the government to distribute cubits to all citizens and business owners registered in the system\n    * @param _amount the amount of cubits to give to EACH of the users\n    */\n    function distributeToAll(uint256 _amount) public onlyGovernment { // TODO REMOVE IN FAVOR OF distributeToUsers\n        address[] memory users = userManager.getAllRegisteredUsers();\n        require(users.length * _amount <= cubit.balanceOf(msg.sender),\n            \"Not enough tokens\");\n\n        _distribute(users, _amount);\n    }\n\n    /**\n    * @dev Internal function that tries to distribute money to a specific set of users (no requires are used)\n    * @param _to An array containing the addresses of the users to whom send cubits\n    * @param _amount the amount of cubits to give to EACH of the users\n    */\n    function _distribute(address[] memory _to, uint256 _amount) internal  {\n\n        uint256 userType;\n        for(uint256 i = 0; i <  _to.length; i++){\n            userType = uint(userManager.isRegistered(_to[i]));\n            if(!(userType != 1 && (userType != 2 || userManager.isBusinessOwnerConfirmed(_to[i]) == 0)))\n                cubit.transferFrom(governmentAddress, _to[i], _amount);\n        }\n    }\n\n    /**\n    * @dev Returns the address of the government user\n    */\n    function getGovernmentAddress() view public returns(address) {\n        return governmentAddress;\n    }\n}\n",
  "sourcePath": "/home/nicolabba/WebstormProjects/The-Walking-Bug/Soldino/contracts/Government.sol",
  "compiler": {
    "name": "solc",
    "version": "0.5.0+commit.1d4f565a.Emscripten.clang"
  },
  "schemaVersion": "3.0.6",
  "updatedAt": "2019-05-16T08:34:01.628Z",
  "devdoc": {
    "methods": {
      "distributeToAll(uint256)": {
        "details": "Allows the government to distribute cubits to all citizens and business owners registered in the system",
        "params": {
          "_amount": "the amount of cubits to give to EACH of the users"
        }
      },
      "distributeToUsers(address[],uint256)": {
        "details": "Allows the government to distribute cubits to a specific set of users",
        "params": {
          "_amount": "the amount of cubits to give to EACH of the users",
          "_to": "An array containing the addresses of the users to whom send cubits"
        }
      },
      "getGovernmentAddress()": {
        "details": "Returns the address of the government user"
      },
      "initialize(address,address,address)": {
        "details": "Initializes the contract saving the instances of the proxies of the contracts used by this contract and the address of the government user",
        "params": {
          "_cubit": "The instance of the proxy of the Cubit contract of this project",
          "_governmentAddress": "The address of the government user",
          "_userManager": "The instance of the proxy of the UserManager contract of this project"
        }
      },
      "isGovernment(address)": {
        "details": "Returns true if the given user is the government",
        "params": {
          "_user": "The address of the user to check"
        }
      }
    },
    "title": "Government"
  },
  "userdoc": {
    "methods": {}
  }
}