{
  "contractName": "ProductTransaction",
  "abi": [
    {
      "constant": false,
      "inputs": [
        {
          "name": "_product",
          "type": "address"
        },
        {
          "name": "_vat",
          "type": "address"
        }
      ],
      "name": "initialize",
      "outputs": [],
      "payable": false,
      "stateMutability": "nonpayable",
      "type": "function"
    },
    {
      "constant": false,
      "inputs": [
        {
          "name": "_productIDs",
          "type": "uint256[]"
        },
        {
          "name": "_quantities",
          "type": "uint256[]"
        },
        {
          "name": "_buyer",
          "type": "address"
        },
        {
          "name": "_seller",
          "type": "address"
        }
      ],
      "name": "addTransaction",
      "outputs": [],
      "payable": false,
      "stateMutability": "nonpayable",
      "type": "function"
    },
    {
      "constant": true,
      "inputs": [
        {
          "name": "_seller",
          "type": "address"
        },
        {
          "name": "_fromDate",
          "type": "uint256"
        },
        {
          "name": "_toDate",
          "type": "uint256"
        }
      ],
      "name": "getSellerTransaction",
      "outputs": [
        {
          "name": "",
          "type": "uint256[]"
        }
      ],
      "payable": false,
      "stateMutability": "view",
      "type": "function"
    },
    {
      "constant": true,
      "inputs": [
        {
          "name": "_seller",
          "type": "address"
        }
      ],
      "name": "getSellerTransaction",
      "outputs": [
        {
          "name": "",
          "type": "uint256[]"
        }
      ],
      "payable": false,
      "stateMutability": "view",
      "type": "function"
    },
    {
      "constant": true,
      "inputs": [
        {
          "name": "_buyer",
          "type": "address"
        }
      ],
      "name": "getBuyerTransaction",
      "outputs": [
        {
          "name": "",
          "type": "uint256[]"
        }
      ],
      "payable": false,
      "stateMutability": "view",
      "type": "function"
    },
    {
      "constant": true,
      "inputs": [
        {
          "name": "_buyer",
          "type": "address"
        },
        {
          "name": "_fromDate",
          "type": "uint256"
        },
        {
          "name": "_toDate",
          "type": "uint256"
        }
      ],
      "name": "getBuyerTransaction",
      "outputs": [
        {
          "name": "",
          "type": "uint256[]"
        }
      ],
      "payable": false,
      "stateMutability": "view",
      "type": "function"
    },
    {
      "constant": true,
      "inputs": [
        {
          "name": "_transactionID",
          "type": "uint256"
        }
      ],
      "name": "getTransactionData",
      "outputs": [
        {
          "name": "",
          "type": "uint256[]"
        },
        {
          "name": "",
          "type": "uint256[]"
        },
        {
          "name": "",
          "type": "uint256"
        },
        {
          "name": "",
          "type": "address"
        }
      ],
      "payable": false,
      "stateMutability": "view",
      "type": "function"
    },
    {
      "constant": true,
      "inputs": [
        {
          "name": "_transactionID",
          "type": "uint256"
        }
      ],
      "name": "getTransactionVATTotal",
      "outputs": [
        {
          "name": "",
          "type": "uint256"
        }
      ],
      "payable": false,
      "stateMutability": "view",
      "type": "function"
    }
  ],
  "bytecode": "0x608060405234801561001057600080fd5b50611435806100206000396000f3fe60806040526004361061008e576000357c0100000000000000000000000000000000000000000000000000000000900463ffffffff1680630593813f146100935780633b24b54714610139578063485cc9551461024b57806360c1e433146102bc57806391019db2146103765780639e1e93381461041c578063b4f7451b146104d6578063d43db75c14610525575b600080fd5b34801561009f57600080fd5b506100e2600480360360208110156100b657600080fd5b81019080803573ffffffffffffffffffffffffffffffffffffffff1690602001909291905050506106be565b6040518080602001828103825283818151815260200191508051906020019060200280838360005b8381101561012557808201518184015260208101905061010a565b505050509050019250505060405180910390f35b34801561014557600080fd5b506101726004803603602081101561015c57600080fd5b8101908080359060200190929190505050610755565b6040518080602001806020018581526020018473ffffffffffffffffffffffffffffffffffffffff1673ffffffffffffffffffffffffffffffffffffffff168152602001838103835287818151815260200191508051906020019060200280838360005b838110156101f15780820151818401526020810190506101d6565b50505050905001838103825286818151815260200191508051906020019060200280838360005b83811015610233578082015181840152602081019050610218565b50505050905001965050505050505060405180910390f35b34801561025757600080fd5b506102ba6004803603604081101561026e57600080fd5b81019080803573ffffffffffffffffffffffffffffffffffffffff169060200190929190803573ffffffffffffffffffffffffffffffffffffffff169060200190929190505050610888565b005b3480156102c857600080fd5b5061031f600480360360608110156102df57600080fd5b81019080803573ffffffffffffffffffffffffffffffffffffffff1690602001909291908035906020019092919080359060200190929190505050610a58565b6040518080602001828103825283818151815260200191508051906020019060200280838360005b83811015610362578082015181840152602081019050610347565b505050509050019250505060405180910390f35b34801561038257600080fd5b506103c56004803603602081101561039957600080fd5b81019080803573ffffffffffffffffffffffffffffffffffffffff169060200190929190505050610bfb565b6040518080602001828103825283818151815260200191508051906020019060200280838360005b838110156104085780820151818401526020810190506103ed565b505050509050019250505060405180910390f35b34801561042857600080fd5b5061047f6004803603606081101561043f57600080fd5b81019080803573ffffffffffffffffffffffffffffffffffffffff1690602001909291908035906020019092919080359060200190929190505050610c92565b6040518080602001828103825283818151815260200191508051906020019060200280838360005b838110156104c25780820151818401526020810190506104a7565b505050509050019250505060405180910390f35b3480156104e257600080fd5b5061050f600480360360208110156104f957600080fd5b8101908080359060200190929190505050610e35565b6040518082815260200191505060405180910390f35b34801561053157600080fd5b506106bc6004803603608081101561054857600080fd5b810190808035906020019064010000000081111561056557600080fd5b82018360208201111561057757600080fd5b8035906020019184602083028401116401000000008311171561059957600080fd5b919080806020026020016040519081016040528093929190818152602001838360200280828437600081840152601f19601f820116905080830192505050505050509192919290803590602001906401000000008111156105f957600080fd5b82018360208201111561060b57600080fd5b8035906020019184602083028401116401000000008311171561062d57600080fd5b919080806020026020016040519081016040528093929190818152602001838360200280828437600081840152601f19601f820116905080830192505050505050509192919290803573ffffffffffffffffffffffffffffffffffffffff169060200190929190803573ffffffffffffffffffffffffffffffffffffffff169060200190929190505050611092565b005b6060603560008373ffffffffffffffffffffffffffffffffffffffff1673ffffffffffffffffffffffffffffffffffffffff16815260200190815260200160002080548060200260200160405190810160405280929190818152602001828054801561074957602002820191906000526020600020905b815481526020019060010190808311610735575b50505050509050919050565b606080600080603460008681526020019081526020016000206000016034600087815260200190815260200160002060010160346000888152602001908152602001600020600201546034600089815260200190815260200160002060030160009054906101000a900473ffffffffffffffffffffffffffffffffffffffff168380548060200260200160405190810160405280929190818152602001828054801561082057602002820191906000526020600020905b81548152602001906001019080831161080c575b505050505093508280548060200260200160405190810160405280929190818152602001828054801561087257602002820191906000526020600020905b81548152602001906001019080831161085e575b5050505050925093509350935093509193509193565b600060019054906101000a900460ff16806108a757506108a6611386565b5b806108be57506000809054906101000a900460ff16155b1515610958576040517f08c379a000000000000000000000000000000000000000000000000000000000815260040180806020018281038252602e8152602001807f436f6e747261637420696e7374616e63652068617320616c726561647920626581526020017f656e20696e697469616c697a656400000000000000000000000000000000000081525060400191505060405180910390fd5b60008060019054906101000a900460ff1615905080156109a8576001600060016101000a81548160ff02191690831515021790555060016000806101000a81548160ff0219169083151502179055505b82603860006101000a81548173ffffffffffffffffffffffffffffffffffffffff021916908373ffffffffffffffffffffffffffffffffffffffff16021790555081603760006101000a81548173ffffffffffffffffffffffffffffffffffffffff021916908373ffffffffffffffffffffffffffffffffffffffff16021790555060006033819055508015610a535760008060016101000a81548160ff0219169083151502179055505b505050565b606080610a6485610bfb565b905060608151604051908082528060200260200182016040528015610a985781602001602082028038833980820191505090505b509050600080905060008090505b8351811015610b685786603460008684815181101515610ac257fe5b9060200190602002015181526020019081526020016000206002015410158015610b19575085603460008684815181101515610afa57fe5b9060200190602002015181526020019081526020016000206002015411155b15610b5b578381815181101515610b2c57fe5b906020019060200201518383815181101515610b4457fe5b906020019060200201818152505081806001019250505b8080600101915050610aa6565b50606081604051908082528060200260200182016040528015610b9a5781602001602082028038833980820191505090505b50905060008090505b82811015610bec578381815181101515610bb957fe5b906020019060200201518282815181101515610bd157fe5b90602001906020020181815250508080600101915050610ba3565b50829450505050509392505050565b6060603660008373ffffffffffffffffffffffffffffffffffffffff1673ffffffffffffffffffffffffffffffffffffffff168152602001908152602001600020805480602002602001604051908101604052809291908181526020018280548015610c8657602002820191906000526020600020905b815481526020019060010190808311610c72575b50505050509050919050565b606080610c9e856106be565b905060608151604051908082528060200260200182016040528015610cd25781602001602082028038833980820191505090505b509050600080905060008090505b8351811015610da25786603460008684815181101515610cfc57fe5b9060200190602002015181526020019081526020016000206002015410158015610d53575085603460008684815181101515610d3457fe5b9060200190602002015181526020019081526020016000206002015411155b15610d95578381815181101515610d6657fe5b906020019060200201518383815181101515610d7e57fe5b906020019060200201818152505081806001019250505b8080600101915050610ce0565b50606081604051908082528060200260200182016040528015610dd45781602001602082028038833980820191505090505b50905060008090505b82811015610e26578381815181101515610df357fe5b906020019060200201518282815181101515610e0b57fe5b90602001906020020181815250508080600101915050610ddd565b50829450505050509392505050565b6000606060346000848152602001908152602001600020600001805480602002602001604051908101604052809291908181526020018280548015610e9957602002820191906000526020600020905b815481526020019060010190808311610e85575b50505050509050606060346000858152602001908152602001600020600101805480602002602001604051908101604052809291908181526020018280548015610f0257602002820191906000526020600020905b815481526020019060010190808311610eee575b50505050509050600080905060008060008090505b855181101561107557603860009054906101000a900473ffffffffffffffffffffffffffffffffffffffff1673ffffffffffffffffffffffffffffffffffffffff1663d6d0be9f8783815181101515610f6c57fe5b906020019060200201516040518263ffffffff167c01000000000000000000000000000000000000000000000000000000000281526004018082815260200191505060c06040518083038186803b158015610fc657600080fd5b505afa158015610fda573d6000803e3d6000fd5b505050506040513d60c0811015610ff057600080fd5b81019080805190602001909291908051906020019092919080519060200190929190805190602001909291908051906020019092919080519060200190929190505050909192509091509050508093508194505050848181518110151561105357fe5b906020019060200201518260ff16840202840193508080600101915050610f17565b5060648381151561108257fe5b0492508295505050505050919050565b603860009054906101000a900473ffffffffffffffffffffffffffffffffffffffff1673ffffffffffffffffffffffffffffffffffffffff163373ffffffffffffffffffffffffffffffffffffffff16141515611157576040517f08c379a000000000000000000000000000000000000000000000000000000000815260040180806020018281038252600b8152602001807f6e6f742050726f6475637400000000000000000000000000000000000000000081525060200191505060405180910390fd5b825184511415156111d0576040517f08c379a00000000000000000000000000000000000000000000000000000000081526004018080602001828103825260108152602001807f77726f6e6720706172616d65746572730000000000000000000000000000000081525060200191505060405180910390fd5b8360346000603354815260200190815260200160002060000190805190602001906111fc929190611397565b50826034600060335481526020019081526020016000206001019080519060200190611229929190611397565b5042603460006033548152602001908152602001600020600201819055508160346000603354815260200190815260200160002060030160006101000a81548173ffffffffffffffffffffffffffffffffffffffff021916908373ffffffffffffffffffffffffffffffffffffffff160217905550603560008373ffffffffffffffffffffffffffffffffffffffff1673ffffffffffffffffffffffffffffffffffffffff1681526020019081526020016000206033549080600181540180825580915050906001820390600052602060002001600090919290919091505550603660008273ffffffffffffffffffffffffffffffffffffffff1673ffffffffffffffffffffffffffffffffffffffff168152602001908152602001600020603354908060018154018082558091505090600182039060005260206000200160009091929091909150555060016033540160338190555050505050565b600080303b90506000811491505090565b8280548282559060005260206000209081019282156113d3579160200282015b828111156113d25782518255916020019190600101906113b7565b5b5090506113e091906113e4565b5090565b61140691905b808211156114025760008160009055506001016113ea565b5090565b9056fea165627a7a72305820e3f270b41fbb179add05afd9194b981d1103960c8471fb78b7a866ec308d621d0029",
  "source": "pragma solidity >=0.5.0;\n\nimport \"zos-lib/contracts/Initializable.sol\";\n\nimport \"./Product.sol\";\nimport \"./VAT.sol\";\n\ncontract ProductTransaction is Initializable {\n\n    struct productTransaction {\n        uint256[] products;\n        uint256[] productQuantity;\n        uint256 date;\n        address buyer;\n    }\n\n    uint256 private nextTransaction;\n    mapping(uint256 => productTransaction) private transactionData;\n    mapping(address => uint256[]) private buyerTransactions;\n    mapping(address => uint256[]) private sellerTransactions;\n    VAT internal vat;\n    Product internal product;\n\n    /**\n    * @dev Initializes the contract saving the instances of the proxies of the contracts used by this contract\n    */\n    function initialize(address _product, address _vat) initializer public {\n        product = Product(_product);\n        vat = VAT(_vat);\n        nextTransaction = 0;\n    }\n\n    /**\n    * @dev Checks that only the product contract can call a function\n    */\n    modifier onlyProductContract() {\n        require(msg.sender == address(product), \"not Product\");\n        _;\n    }\n\n    /**\n    * @dev Checks that only the VAT contract can call a function\n    */\n    modifier onlyVATContract() {\n        require(msg.sender == address(vat), \"not VAT\");\n        _;\n    }\n\n    /**\n    * @dev Stores the data of a new transaction associated with the selling of products of a single manufacturer\n    * @param _productIDs The IDs of the bought products\n    * @param _quantities The quantities of the bought products\n    * @param _buyer The address of the buyer\n    * @param _seller The address of the seller\n    */\n    function addTransaction(uint256[] memory _productIDs, uint256[] memory _quantities,\n        address _buyer, address _seller) public onlyProductContract {\n        require(_productIDs.length == _quantities.length, \"wrong parameters\");\n        transactionData[nextTransaction].products = _productIDs;\n        transactionData[nextTransaction].productQuantity = _quantities;\n        transactionData[nextTransaction].date = now;\n        transactionData[nextTransaction].buyer = _buyer;\n\n        buyerTransactions[_buyer].push(nextTransaction);\n        sellerTransactions[_seller].push(nextTransaction);\n\n        nextTransaction = nextTransaction + 1;\n\n    }\n\n    /**\n    * @dev Returns all the transactions in which products were sold by a given user\n    * @param _seller The address of the seller\n    */\n    function getSellerTransaction(address _seller) view public returns(uint256[] memory) {\n        return sellerTransactions[_seller];\n    }\n\n    /**\n    * @dev Returns all the transactions in which products were sold by a given user in a certain interval of time\n    * @param _seller The address of the seller\n    * @param _fromDate The date from which the interval starts\n    * @param _fromDate The date from which the interval ends\n    */\n    function getSellerTransaction(address _seller, uint256 _fromDate, uint256 _toDate) view public\n    returns(uint256[] memory) {\n        uint256[] memory allTransactions = getSellerTransaction(_seller);\n        uint256[] memory temporaryTransactions = new uint256[](allTransactions.length);\n        uint256 elements = 0;\n        for(uint256 i = 0; i < allTransactions.length; i++ )\n            if(transactionData[allTransactions[i]].date >= _fromDate && transactionData[allTransactions[i]].date <= _toDate) {\n                temporaryTransactions[elements] = allTransactions[i];\n                elements ++;\n            }\n        uint256[] memory returnTransactions = new uint256[](elements);\n        for(uint256 i = 0; i < elements; i++) {\n            returnTransactions[i] = temporaryTransactions[i];\n        }\n        return temporaryTransactions;\n    }\n\n    /**\n    * @dev Returns all the transactions in which products were bought by a given user\n    * @param _buyer The address of the buyer\n    */\n    function getBuyerTransaction(address _buyer) view public returns(uint256[] memory) {\n\n        return buyerTransactions[_buyer];\n    }\n\n    /**\n    * @dev Returns all the transactions in which products were bought by a given user in a certain interval of time\n    * @param _buyer The address of the buyer\n    * @param _fromDate The date from which the interval starts\n    * @param _fromDate The date from which the interval ends\n    */\n    function getBuyerTransaction(address _buyer, uint256 _fromDate, uint256 _toDate) view public\n    returns(uint256[] memory) {\n        uint256[] memory allTransactions = getBuyerTransaction(_buyer);\n        uint256[] memory temporaryTransactions = new uint256[](allTransactions.length);\n        uint256 elements = 0;\n        for(uint256 i = 0; i < allTransactions.length; i++ )\n            if(transactionData[allTransactions[i]].date >= _fromDate && transactionData[allTransactions[i]].date <= _toDate) {\n                temporaryTransactions[elements] = allTransactions[i];\n                elements ++;\n            }\n        uint256[] memory returnTransactions = new uint256[](elements);\n        for(uint256 i = 0; i < elements; i++) {\n            returnTransactions[i] = temporaryTransactions[i];\n        }\n        return temporaryTransactions;\n    }\n\n    /**\n    * @dev Returns the data of a specific transaction\n    * @param _transactionID The id of the transaction whose data to return\n    */\n    function getTransactionData(uint256 _transactionID) view public returns(uint256[] memory, uint256[] memory, uint, address) {\n        return (transactionData[_transactionID].products,\n                transactionData[_transactionID].productQuantity,\n                transactionData[_transactionID].date,\n                transactionData[_transactionID].buyer);\n    }\n\n    /**\n    * @dev Returns the amount of cubit spent as VAT in a given transaction\n    * @param _transactionID The id of the transaction whose data to return\n    */\n    function getTransactionVATTotal(uint256 _transactionID) view public returns(uint) {\n        uint256[] memory products = transactionData[_transactionID].products;\n        uint256[] memory quantities = transactionData[_transactionID].productQuantity;\n        uint256 vatAmount = 0;\n        uint256 currentProductPrice;\n        uint8 currentProductVAT;\n        for (uint256 i = 0; i < products.length; i++) {\n            (currentProductPrice, currentProductVAT, , , ,) = product.getProductData(products[i]);\n            vatAmount += currentProductPrice * currentProductVAT * quantities[i];\n        }\n        vatAmount = vatAmount / 100;\n\n        return vatAmount;\n    }\n}\n",
  "sourcePath": "/home/nicolabba/WebstormProjects/The-Walking-Bug/Soldino/contracts/ProductTransaction.sol",
  "compiler": {
    "name": "solc",
    "version": "0.5.0+commit.1d4f565a.Emscripten.clang"
  },
  "schemaVersion": "3.0.6",
  "updatedAt": "2019-05-16T08:34:01.571Z",
  "devdoc": {
    "methods": {
      "addTransaction(uint256[],uint256[],address,address)": {
        "details": "Stores the data of a new transaction associated with the selling of products of a single manufacturer",
        "params": {
          "_buyer": "The address of the buyer",
          "_productIDs": "The IDs of the bought products",
          "_quantities": "The quantities of the bought products",
          "_seller": "The address of the seller"
        }
      },
      "getBuyerTransaction(address)": {
        "details": "Returns all the transactions in which products were bought by a given user",
        "params": {
          "_buyer": "The address of the buyer"
        }
      },
      "getBuyerTransaction(address,uint256,uint256)": {
        "details": "Returns all the transactions in which products were bought by a given user in a certain interval of time",
        "params": {
          "_buyer": "The address of the buyer",
          "_fromDate": "The date from which the interval ends"
        }
      },
      "getSellerTransaction(address)": {
        "details": "Returns all the transactions in which products were sold by a given user",
        "params": {
          "_seller": "The address of the seller"
        }
      },
      "getSellerTransaction(address,uint256,uint256)": {
        "details": "Returns all the transactions in which products were sold by a given user in a certain interval of time",
        "params": {
          "_fromDate": "The date from which the interval ends",
          "_seller": "The address of the seller"
        }
      },
      "getTransactionData(uint256)": {
        "details": "Returns the data of a specific transaction",
        "params": {
          "_transactionID": "The id of the transaction whose data to return"
        }
      },
      "getTransactionVATTotal(uint256)": {
        "details": "Returns the amount of cubit spent as VAT in a given transaction",
        "params": {
          "_transactionID": "The id of the transaction whose data to return"
        }
      },
      "initialize(address,address)": {
        "details": "Initializes the contract saving the instances of the proxies of the contracts used by this contract"
      }
    }
  },
  "userdoc": {
    "methods": {}
  }
}