{
  "contractName": "ProductTransactionMock",
  "abi": [
    {
      "constant": true,
      "inputs": [
        {
          "name": "_buyer",
          "type": "address"
        }
      ],
      "name": "getBuyerTransaction",
      "outputs": [
        {
          "name": "",
          "type": "uint256[]"
        }
      ],
      "payable": false,
      "stateMutability": "view",
      "type": "function"
    },
    {
      "constant": true,
      "inputs": [
        {
          "name": "_transactionID",
          "type": "uint256"
        }
      ],
      "name": "getTransactionData",
      "outputs": [
        {
          "name": "",
          "type": "uint256[]"
        },
        {
          "name": "",
          "type": "uint256[]"
        },
        {
          "name": "",
          "type": "uint256"
        },
        {
          "name": "",
          "type": "address"
        }
      ],
      "payable": false,
      "stateMutability": "view",
      "type": "function"
    },
    {
      "constant": false,
      "inputs": [
        {
          "name": "_product",
          "type": "address"
        },
        {
          "name": "_vat",
          "type": "address"
        }
      ],
      "name": "initialize",
      "outputs": [],
      "payable": false,
      "stateMutability": "nonpayable",
      "type": "function"
    },
    {
      "constant": true,
      "inputs": [
        {
          "name": "_seller",
          "type": "address"
        },
        {
          "name": "_fromDate",
          "type": "uint256"
        },
        {
          "name": "_toDate",
          "type": "uint256"
        }
      ],
      "name": "getSellerTransaction",
      "outputs": [
        {
          "name": "",
          "type": "uint256[]"
        }
      ],
      "payable": false,
      "stateMutability": "view",
      "type": "function"
    },
    {
      "constant": true,
      "inputs": [
        {
          "name": "_seller",
          "type": "address"
        }
      ],
      "name": "getSellerTransaction",
      "outputs": [
        {
          "name": "",
          "type": "uint256[]"
        }
      ],
      "payable": false,
      "stateMutability": "view",
      "type": "function"
    },
    {
      "constant": true,
      "inputs": [
        {
          "name": "_buyer",
          "type": "address"
        },
        {
          "name": "_fromDate",
          "type": "uint256"
        },
        {
          "name": "_toDate",
          "type": "uint256"
        }
      ],
      "name": "getBuyerTransaction",
      "outputs": [
        {
          "name": "",
          "type": "uint256[]"
        }
      ],
      "payable": false,
      "stateMutability": "view",
      "type": "function"
    },
    {
      "constant": true,
      "inputs": [
        {
          "name": "_transactionID",
          "type": "uint256"
        }
      ],
      "name": "getTransactionVATTotal",
      "outputs": [
        {
          "name": "",
          "type": "uint256"
        }
      ],
      "payable": false,
      "stateMutability": "view",
      "type": "function"
    },
    {
      "constant": false,
      "inputs": [
        {
          "name": "_productIDs",
          "type": "uint256[]"
        },
        {
          "name": "_quantities",
          "type": "uint256[]"
        },
        {
          "name": "_buyer",
          "type": "address"
        },
        {
          "name": "_seller",
          "type": "address"
        }
      ],
      "name": "addTransaction",
      "outputs": [],
      "payable": false,
      "stateMutability": "nonpayable",
      "type": "function"
    },
    {
      "constant": false,
      "inputs": [
        {
          "name": "_product",
          "type": "address"
        },
        {
          "name": "_vat",
          "type": "address"
        }
      ],
      "name": "initializeMock",
      "outputs": [],
      "payable": false,
      "stateMutability": "nonpayable",
      "type": "function"
    }
  ],
  "bytecode": "0x608060405234801561001057600080fd5b506114bf806100206000396000f3fe608060405260043610610099576000357c0100000000000000000000000000000000000000000000000000000000900463ffffffff1680630593813f1461009e5780633b24b54714610144578063485cc9551461025657806360c1e433146102c75780636c1ed5a31461038157806391019db2146103f25780639e1e933814610498578063b4f7451b14610552578063d43db75c146105a1575b600080fd5b3480156100aa57600080fd5b506100ed600480360360208110156100c157600080fd5b81019080803573ffffffffffffffffffffffffffffffffffffffff16906020019092919050505061073a565b6040518080602001828103825283818151815260200191508051906020019060200280838360005b83811015610130578082015181840152602081019050610115565b505050509050019250505060405180910390f35b34801561015057600080fd5b5061017d6004803603602081101561016757600080fd5b81019080803590602001909291905050506107d1565b6040518080602001806020018581526020018473ffffffffffffffffffffffffffffffffffffffff1673ffffffffffffffffffffffffffffffffffffffff168152602001838103835287818151815260200191508051906020019060200280838360005b838110156101fc5780820151818401526020810190506101e1565b50505050905001838103825286818151815260200191508051906020019060200280838360005b8381101561023e578082015181840152602081019050610223565b50505050905001965050505050505060405180910390f35b34801561026257600080fd5b506102c56004803603604081101561027957600080fd5b81019080803573ffffffffffffffffffffffffffffffffffffffff169060200190929190803573ffffffffffffffffffffffffffffffffffffffff169060200190929190505050610904565b005b3480156102d357600080fd5b5061032a600480360360608110156102ea57600080fd5b81019080803573ffffffffffffffffffffffffffffffffffffffff1690602001909291908035906020019092919080359060200190929190505050610ad4565b6040518080602001828103825283818151815260200191508051906020019060200280838360005b8381101561036d578082015181840152602081019050610352565b505050509050019250505060405180910390f35b34801561038d57600080fd5b506103f0600480360360408110156103a457600080fd5b81019080803573ffffffffffffffffffffffffffffffffffffffff169060200190929190803573ffffffffffffffffffffffffffffffffffffffff169060200190929190505050610c77565b005b3480156103fe57600080fd5b506104416004803603602081101561041557600080fd5b81019080803573ffffffffffffffffffffffffffffffffffffffff169060200190929190505050610c85565b6040518080602001828103825283818151815260200191508051906020019060200280838360005b83811015610484578082015181840152602081019050610469565b505050509050019250505060405180910390f35b3480156104a457600080fd5b506104fb600480360360608110156104bb57600080fd5b81019080803573ffffffffffffffffffffffffffffffffffffffff1690602001909291908035906020019092919080359060200190929190505050610d1c565b6040518080602001828103825283818151815260200191508051906020019060200280838360005b8381101561053e578082015181840152602081019050610523565b505050509050019250505060405180910390f35b34801561055e57600080fd5b5061058b6004803603602081101561057557600080fd5b8101908080359060200190929190505050610ebf565b6040518082815260200191505060405180910390f35b3480156105ad57600080fd5b50610738600480360360808110156105c457600080fd5b81019080803590602001906401000000008111156105e157600080fd5b8201836020820111156105f357600080fd5b8035906020019184602083028401116401000000008311171561061557600080fd5b919080806020026020016040519081016040528093929190818152602001838360200280828437600081840152601f19601f8201169050808301925050505050505091929192908035906020019064010000000081111561067557600080fd5b82018360208201111561068757600080fd5b803590602001918460208302840111640100000000831117156106a957600080fd5b919080806020026020016040519081016040528093929190818152602001838360200280828437600081840152601f19601f820116905080830192505050505050509192919290803573ffffffffffffffffffffffffffffffffffffffff169060200190929190803573ffffffffffffffffffffffffffffffffffffffff16906020019092919050505061111c565b005b6060603560008373ffffffffffffffffffffffffffffffffffffffff1673ffffffffffffffffffffffffffffffffffffffff1681526020019081526020016000208054806020026020016040519081016040528092919081815260200182805480156107c557602002820191906000526020600020905b8154815260200190600101908083116107b1575b50505050509050919050565b606080600080603460008681526020019081526020016000206000016034600087815260200190815260200160002060010160346000888152602001908152602001600020600201546034600089815260200190815260200160002060030160009054906101000a900473ffffffffffffffffffffffffffffffffffffffff168380548060200260200160405190810160405280929190818152602001828054801561089c57602002820191906000526020600020905b815481526020019060010190808311610888575b50505050509350828054806020026020016040519081016040528092919081815260200182805480156108ee57602002820191906000526020600020905b8154815260200190600101908083116108da575b5050505050925093509350935093509193509193565b600060019054906101000a900460ff16806109235750610922611410565b5b8061093a57506000809054906101000a900460ff16155b15156109d4576040517f08c379a000000000000000000000000000000000000000000000000000000000815260040180806020018281038252602e8152602001807f436f6e747261637420696e7374616e63652068617320616c726561647920626581526020017f656e20696e697469616c697a656400000000000000000000000000000000000081525060400191505060405180910390fd5b60008060019054906101000a900460ff161590508015610a24576001600060016101000a81548160ff02191690831515021790555060016000806101000a81548160ff0219169083151502179055505b82603860006101000a81548173ffffffffffffffffffffffffffffffffffffffff021916908373ffffffffffffffffffffffffffffffffffffffff16021790555081603760006101000a81548173ffffffffffffffffffffffffffffffffffffffff021916908373ffffffffffffffffffffffffffffffffffffffff16021790555060006033819055508015610acf5760008060016101000a81548160ff0219169083151502179055505b505050565b606080610ae085610c85565b905060608151604051908082528060200260200182016040528015610b145781602001602082028038833980820191505090505b509050600080905060008090505b8351811015610be45786603460008684815181101515610b3e57fe5b9060200190602002015181526020019081526020016000206002015410158015610b95575085603460008684815181101515610b7657fe5b9060200190602002015181526020019081526020016000206002015411155b15610bd7578381815181101515610ba857fe5b906020019060200201518383815181101515610bc057fe5b906020019060200201818152505081806001019250505b8080600101915050610b22565b50606081604051908082528060200260200182016040528015610c165781602001602082028038833980820191505090505b50905060008090505b82811015610c68578381815181101515610c3557fe5b906020019060200201518282815181101515610c4d57fe5b90602001906020020181815250508080600101915050610c1f565b50829450505050509392505050565b610c818282610904565b5050565b6060603660008373ffffffffffffffffffffffffffffffffffffffff1673ffffffffffffffffffffffffffffffffffffffff168152602001908152602001600020805480602002602001604051908101604052809291908181526020018280548015610d1057602002820191906000526020600020905b815481526020019060010190808311610cfc575b50505050509050919050565b606080610d288561073a565b905060608151604051908082528060200260200182016040528015610d5c5781602001602082028038833980820191505090505b509050600080905060008090505b8351811015610e2c5786603460008684815181101515610d8657fe5b9060200190602002015181526020019081526020016000206002015410158015610ddd575085603460008684815181101515610dbe57fe5b9060200190602002015181526020019081526020016000206002015411155b15610e1f578381815181101515610df057fe5b906020019060200201518383815181101515610e0857fe5b906020019060200201818152505081806001019250505b8080600101915050610d6a565b50606081604051908082528060200260200182016040528015610e5e5781602001602082028038833980820191505090505b50905060008090505b82811015610eb0578381815181101515610e7d57fe5b906020019060200201518282815181101515610e9557fe5b90602001906020020181815250508080600101915050610e67565b50829450505050509392505050565b6000606060346000848152602001908152602001600020600001805480602002602001604051908101604052809291908181526020018280548015610f2357602002820191906000526020600020905b815481526020019060010190808311610f0f575b50505050509050606060346000858152602001908152602001600020600101805480602002602001604051908101604052809291908181526020018280548015610f8c57602002820191906000526020600020905b815481526020019060010190808311610f78575b50505050509050600080905060008060008090505b85518110156110ff57603860009054906101000a900473ffffffffffffffffffffffffffffffffffffffff1673ffffffffffffffffffffffffffffffffffffffff1663d6d0be9f8783815181101515610ff657fe5b906020019060200201516040518263ffffffff167c01000000000000000000000000000000000000000000000000000000000281526004018082815260200191505060c06040518083038186803b15801561105057600080fd5b505afa158015611064573d6000803e3d6000fd5b505050506040513d60c081101561107a57600080fd5b8101908080519060200190929190805190602001909291908051906020019092919080519060200190929190805190602001909291908051906020019092919050505090919250909150905050809350819450505084818151811015156110dd57fe5b906020019060200201518260ff16840202840193508080600101915050610fa1565b5060648381151561110c57fe5b0492508295505050505050919050565b603860009054906101000a900473ffffffffffffffffffffffffffffffffffffffff1673ffffffffffffffffffffffffffffffffffffffff163373ffffffffffffffffffffffffffffffffffffffff161415156111e1576040517f08c379a000000000000000000000000000000000000000000000000000000000815260040180806020018281038252600b8152602001807f6e6f742050726f6475637400000000000000000000000000000000000000000081525060200191505060405180910390fd5b8251845114151561125a576040517f08c379a00000000000000000000000000000000000000000000000000000000081526004018080602001828103825260108152602001807f77726f6e6720706172616d65746572730000000000000000000000000000000081525060200191505060405180910390fd5b836034600060335481526020019081526020016000206000019080519060200190611286929190611421565b508260346000603354815260200190815260200160002060010190805190602001906112b3929190611421565b5042603460006033548152602001908152602001600020600201819055508160346000603354815260200190815260200160002060030160006101000a81548173ffffffffffffffffffffffffffffffffffffffff021916908373ffffffffffffffffffffffffffffffffffffffff160217905550603560008373ffffffffffffffffffffffffffffffffffffffff1673ffffffffffffffffffffffffffffffffffffffff1681526020019081526020016000206033549080600181540180825580915050906001820390600052602060002001600090919290919091505550603660008273ffffffffffffffffffffffffffffffffffffffff1673ffffffffffffffffffffffffffffffffffffffff168152602001908152602001600020603354908060018154018082558091505090600182039060005260206000200160009091929091909150555060016033540160338190555050505050565b600080303b90506000811491505090565b82805482825590600052602060002090810192821561145d579160200282015b8281111561145c578251825591602001919060010190611441565b5b50905061146a919061146e565b5090565b61149091905b8082111561148c576000816000905550600101611474565b5090565b9056fea165627a7a72305820a0c84fce89135c7363126e1eb4a45433e03f1160a9302840e99ee93d9fbc86150029",
  "source": "pragma solidity >=0.5.0;\n\nimport \"../ProductTransaction.sol\";\n\ncontract ProductTransactionMock is ProductTransaction {\n    function initializeMock(address _product, address _vat) public {\n        ProductTransaction.initialize(_product, _vat);\n    }\n}\n",
  "sourcePath": "/home/nicolabba/WebstormProjects/The-Walking-Bug/Soldino/contracts/mocks/ProductTransactionMock.sol",
  "compiler": {
    "name": "solc",
    "version": "0.5.0+commit.1d4f565a.Emscripten.clang"
  },
  "schemaVersion": "3.0.6",
  "updatedAt": "2019-05-16T08:34:01.800Z",
  "devdoc": {
    "methods": {
      "addTransaction(uint256[],uint256[],address,address)": {
        "details": "Stores the data of a new transaction associated with the selling of products of a single manufacturer",
        "params": {
          "_buyer": "The address of the buyer",
          "_productIDs": "The IDs of the bought products",
          "_quantities": "The quantities of the bought products",
          "_seller": "The address of the seller"
        }
      },
      "getBuyerTransaction(address)": {
        "details": "Returns all the transactions in which products were bought by a given user",
        "params": {
          "_buyer": "The address of the buyer"
        }
      },
      "getBuyerTransaction(address,uint256,uint256)": {
        "details": "Returns all the transactions in which products were bought by a given user in a certain interval of time",
        "params": {
          "_buyer": "The address of the buyer",
          "_fromDate": "The date from which the interval ends"
        }
      },
      "getSellerTransaction(address)": {
        "details": "Returns all the transactions in which products were sold by a given user",
        "params": {
          "_seller": "The address of the seller"
        }
      },
      "getSellerTransaction(address,uint256,uint256)": {
        "details": "Returns all the transactions in which products were sold by a given user in a certain interval of time",
        "params": {
          "_fromDate": "The date from which the interval ends",
          "_seller": "The address of the seller"
        }
      },
      "getTransactionData(uint256)": {
        "details": "Returns the data of a specific transaction",
        "params": {
          "_transactionID": "The id of the transaction whose data to return"
        }
      },
      "getTransactionVATTotal(uint256)": {
        "details": "Returns the amount of cubit spent as VAT in a given transaction",
        "params": {
          "_transactionID": "The id of the transaction whose data to return"
        }
      },
      "initialize(address,address)": {
        "details": "Initializes the contract saving the instances of the proxies of the contracts used by this contract"
      }
    }
  },
  "userdoc": {
    "methods": {}
  }
}