{
  "contractName": "ProductMock",
  "abi": [
    {
      "constant": true,
      "inputs": [],
      "name": "getAllProducts",
      "outputs": [
        {
          "name": "",
          "type": "uint256[]"
        }
      ],
      "payable": false,
      "stateMutability": "view",
      "type": "function"
    },
    {
      "constant": false,
      "inputs": [
        {
          "name": "_productId",
          "type": "uint256"
        },
        {
          "name": "_availabilityChange",
          "type": "uint256"
        }
      ],
      "name": "increaseProductAvailability",
      "outputs": [],
      "payable": false,
      "stateMutability": "nonpayable",
      "type": "function"
    },
    {
      "constant": false,
      "inputs": [
        {
          "name": "_price",
          "type": "uint256"
        },
        {
          "name": "_availability",
          "type": "uint256"
        },
        {
          "name": "_VAT",
          "type": "uint8"
        },
        {
          "name": "_hash",
          "type": "bytes32"
        }
      ],
      "name": "addProduct",
      "outputs": [],
      "payable": false,
      "stateMutability": "nonpayable",
      "type": "function"
    },
    {
      "constant": false,
      "inputs": [
        {
          "name": "_products",
          "type": "uint256[]"
        },
        {
          "name": "_amount",
          "type": "uint256[]"
        }
      ],
      "name": "buyProducts",
      "outputs": [],
      "payable": false,
      "stateMutability": "nonpayable",
      "type": "function"
    },
    {
      "constant": false,
      "inputs": [
        {
          "name": "_productId",
          "type": "uint256"
        },
        {
          "name": "_availability",
          "type": "uint256"
        }
      ],
      "name": "changeProductAvailability",
      "outputs": [],
      "payable": false,
      "stateMutability": "nonpayable",
      "type": "function"
    },
    {
      "constant": false,
      "inputs": [
        {
          "name": "_userManager",
          "type": "address"
        },
        {
          "name": "_cubit",
          "type": "address"
        },
        {
          "name": "_productTransaction",
          "type": "address"
        }
      ],
      "name": "initialize",
      "outputs": [],
      "payable": false,
      "stateMutability": "nonpayable",
      "type": "function"
    },
    {
      "constant": false,
      "inputs": [
        {
          "name": "_products",
          "type": "uint256[]"
        },
        {
          "name": "_amount",
          "type": "uint256[]"
        },
        {
          "name": "_owner",
          "type": "address"
        }
      ],
      "name": "buyProductsFromOwner",
      "outputs": [],
      "payable": false,
      "stateMutability": "nonpayable",
      "type": "function"
    },
    {
      "constant": true,
      "inputs": [
        {
          "name": "_productID",
          "type": "uint256"
        }
      ],
      "name": "isValidProductID",
      "outputs": [
        {
          "name": "",
          "type": "bool"
        }
      ],
      "payable": false,
      "stateMutability": "view",
      "type": "function"
    },
    {
      "constant": true,
      "inputs": [
        {
          "name": "_productID",
          "type": "uint256"
        }
      ],
      "name": "getProductData",
      "outputs": [
        {
          "name": "",
          "type": "uint256"
        },
        {
          "name": "",
          "type": "uint8"
        },
        {
          "name": "",
          "type": "uint256"
        },
        {
          "name": "",
          "type": "address"
        },
        {
          "name": "",
          "type": "bool"
        },
        {
          "name": "",
          "type": "bytes32"
        }
      ],
      "payable": false,
      "stateMutability": "view",
      "type": "function"
    },
    {
      "constant": false,
      "inputs": [
        {
          "name": "_productID",
          "type": "uint256"
        }
      ],
      "name": "deleteProduct",
      "outputs": [],
      "payable": false,
      "stateMutability": "nonpayable",
      "type": "function"
    },
    {
      "constant": false,
      "inputs": [
        {
          "name": "_userManager",
          "type": "address"
        },
        {
          "name": "_cubit",
          "type": "address"
        },
        {
          "name": "_productTransaction",
          "type": "address"
        }
      ],
      "name": "initializeMock",
      "outputs": [],
      "payable": false,
      "stateMutability": "nonpayable",
      "type": "function"
    },
    {
      "constant": false,
      "inputs": [
        {
          "name": "_productIDs",
          "type": "uint256[]"
        },
        {
          "name": "_quantities",
          "type": "uint256[]"
        },
        {
          "name": "_buyer",
          "type": "address"
        },
        {
          "name": "_seller",
          "type": "address"
        }
      ],
      "name": "callProductTransactionAddTransaction",
      "outputs": [],
      "payable": false,
      "stateMutability": "nonpayable",
      "type": "function"
    }
  ],
  "bytecode": "0x608060405234801561001057600080fd5b50612d5b806100206000396000f3fe6080604052600436106100ba576000357c0100000000000000000000000000000000000000000000000000000000900463ffffffff16806302ee3a52146100bf5780631b4e1c4d1461012b578063231d45a41461017057806327855cf1146101cc57806372e4dc0614610325578063b6e9954f1461036a578063c0c53b8b14610503578063d01fb63a14610594578063d11d85261461070d578063d6d0be9f14610760578063d96baee314610808578063ed90c7b714610899575b600080fd5b3480156100cb57600080fd5b506100d46108d4565b6040518080602001828103825283818151815260200191508051906020019060200280838360005b838110156101175780820151818401526020810190506100fc565b505050509050019250505060405180910390f35b34801561013757600080fd5b5061016e6004803603604081101561014e57600080fd5b810190808035906020019092919080359060200190929190505050610a03565b005b34801561017c57600080fd5b506101ca6004803603608081101561019357600080fd5b810190808035906020019092919080359060200190929190803560ff16906020019092919080359060200190929190505050610bc2565b005b3480156101d857600080fd5b50610323600480360360408110156101ef57600080fd5b810190808035906020019064010000000081111561020c57600080fd5b82018360208201111561021e57600080fd5b8035906020019184602083028401116401000000008311171561024057600080fd5b919080806020026020016040519081016040528093929190818152602001838360200280828437600081840152601f19601f820116905080830192505050505050509192919290803590602001906401000000008111156102a057600080fd5b8201836020820111156102b257600080fd5b803590602001918460208302840111640100000000831117156102d457600080fd5b919080806020026020016040519081016040528093929190818152602001838360200280828437600081840152601f19601f820116905080830192505050505050509192919290505050610f5d565b005b34801561033157600080fd5b506103686004803603604081101561034857600080fd5b810190808035906020019092919080359060200190929190505050611995565b005b34801561037657600080fd5b506105016004803603608081101561038d57600080fd5b81019080803590602001906401000000008111156103aa57600080fd5b8201836020820111156103bc57600080fd5b803590602001918460208302840111640100000000831117156103de57600080fd5b919080806020026020016040519081016040528093929190818152602001838360200280828437600081840152601f19601f8201169050808301925050505050505091929192908035906020019064010000000081111561043e57600080fd5b82018360208201111561045057600080fd5b8035906020019184602083028401116401000000008311171561047257600080fd5b919080806020026020016040519081016040528093929190818152602001838360200280828437600081840152601f19601f820116905080830192505050505050509192919290803573ffffffffffffffffffffffffffffffffffffffff169060200190929190803573ffffffffffffffffffffffffffffffffffffffff169060200190929190505050611b4b565b005b34801561050f57600080fd5b506105926004803603606081101561052657600080fd5b81019080803573ffffffffffffffffffffffffffffffffffffffff169060200190929190803573ffffffffffffffffffffffffffffffffffffffff169060200190929190803573ffffffffffffffffffffffffffffffffffffffff169060200190929190505050611cec565b005b3480156105a057600080fd5b5061070b600480360360608110156105b757600080fd5b81019080803590602001906401000000008111156105d457600080fd5b8201836020820111156105e657600080fd5b8035906020019184602083028401116401000000008311171561060857600080fd5b919080806020026020016040519081016040528093929190818152602001838360200280828437600081840152601f19601f8201169050808301925050505050505091929192908035906020019064010000000081111561066857600080fd5b82018360208201111561067a57600080fd5b8035906020019184602083028401116401000000008311171561069c57600080fd5b919080806020026020016040519081016040528093929190818152602001838360200280828437600081840152601f19601f820116905080830192505050505050509192919290803573ffffffffffffffffffffffffffffffffffffffff169060200190929190505050611efe565b005b34801561071957600080fd5b506107466004803603602081101561073057600080fd5b8101908080359060200190929190505050612732565b604051808215151515815260200191505060405180910390f35b34801561076c57600080fd5b506107996004803603602081101561078357600080fd5b810190808035906020019092919050505061278b565b604051808781526020018660ff1660ff1681526020018581526020018473ffffffffffffffffffffffffffffffffffffffff1673ffffffffffffffffffffffffffffffffffffffff16815260200183151515158152602001828152602001965050505050505060405180910390f35b34801561081457600080fd5b506108976004803603606081101561082b57600080fd5b81019080803573ffffffffffffffffffffffffffffffffffffffff169060200190929190803573ffffffffffffffffffffffffffffffffffffffff169060200190929190803573ffffffffffffffffffffffffffffffffffffffff16906020019092919050505061286d565b005b3480156108a557600080fd5b506108d2600480360360208110156108bc57600080fd5b810190808035906020019092919050505061287d565b005b6060600080905060008090505b603480549050811015610932576001151561091460348381548110151561090457fe5b9060005260206000200154612732565b151514156109255781806001019250505b80806001019150506108e1565b506060816040519080825280602002602001820160405280156109645781602001602082028038833980820191505090505b509050600080905060008090505b6034805490508110156109f957600115156109a560348381548110151561099557fe5b9060005260206000200154612732565b151514156109ec576034818154811015156109bc57fe5b906000526020600020015483838151811015156109d557fe5b906020019060200201818152505081806001019250505b8080600101915050610972565b5081935050505090565b81610a0d81612732565b1515610a81576040517f08c379a00000000000000000000000000000000000000000000000000000000081526004018080602001828103825260128152602001807f496e76616c69642070726f64756374204944000000000000000000000000000081525060200191505060405180910390fd5b3383610a8b612cda565b6035600083815260200190815260200160002060c0604051908101604052908160008201548152602001600182015481526020016002820160009054906101000a900473ffffffffffffffffffffffffffffffffffffffff1673ffffffffffffffffffffffffffffffffffffffff1673ffffffffffffffffffffffffffffffffffffffff168152602001600382015481526020016004820160009054906101000a900460ff1660ff1660ff1681526020016004820160019054906101000a900460ff16151515158152505090508273ffffffffffffffffffffffffffffffffffffffff16816040015173ffffffffffffffffffffffffffffffffffffffff16141515610b9657600080fd5b846035600088815260200190815260200160002060030160008282540192505081905550505050505050565b336002603660009054906101000a900473ffffffffffffffffffffffffffffffffffffffff1673ffffffffffffffffffffffffffffffffffffffff1663c3c5a547836040518263ffffffff167c0100000000000000000000000000000000000000000000000000000000028152600401808273ffffffffffffffffffffffffffffffffffffffff1673ffffffffffffffffffffffffffffffffffffffff16815260200191505060206040518083038186803b158015610c8057600080fd5b505afa158015610c94573d6000803e3d6000fd5b505050506040513d6020811015610caa57600080fd5b81019080805190602001909291905050506003811115610cc657fe5b148015610dc957506000603660009054906101000a900473ffffffffffffffffffffffffffffffffffffffff1673ffffffffffffffffffffffffffffffffffffffff166392e5c9c9836040518263ffffffff167c0100000000000000000000000000000000000000000000000000000000028152600401808273ffffffffffffffffffffffffffffffffffffffff1673ffffffffffffffffffffffffffffffffffffffff16815260200191505060206040518083038186803b158015610d8b57600080fd5b505afa158015610d9f573d6000803e3d6000fd5b505050506040513d6020811015610db557600080fd5b810190808051906020019092919050505014155b1515610e3d576040517f08c379a00000000000000000000000000000000000000000000000000000000081526004018080602001828103825260158152602001807f4e6f74206120627573696e657373206f776e657221000000000000000000000081525060200191505060405180910390fd5b816035600060335481526020019081526020016000206000018190555084603560006033548152602001908152602001600020600101819055503360356000603354815260200190815260200160002060020160006101000a81548173ffffffffffffffffffffffffffffffffffffffff021916908373ffffffffffffffffffffffffffffffffffffffff16021790555083603560006033548152602001908152602001600020600301819055508260356000603354815260200190815260200160002060040160006101000a81548160ff021916908360ff160217905550603460335490806001815401808255809150509060018203906000526020600020016000909192909190915055506001603354016033819055505050505050565b336000603660009054906101000a900473ffffffffffffffffffffffffffffffffffffffff1673ffffffffffffffffffffffffffffffffffffffff1663c3c5a547836040518263ffffffff167c0100000000000000000000000000000000000000000000000000000000028152600401808273ffffffffffffffffffffffffffffffffffffffff1673ffffffffffffffffffffffffffffffffffffffff16815260200191505060206040518083038186803b15801561101b57600080fd5b505afa15801561102f573d6000803e3d6000fd5b505050506040513d602081101561104557600080fd5b8101908080519060200190929190505050600381111561106157fe5b141515156110d7576040517f08c379a00000000000000000000000000000000000000000000000000000000081526004018080602001828103825260168152602001807f4e6f74206120726567697374657265642075736572210000000000000000000081525060200191505060405180910390fd5b8260008090505b81518110156111885761110782828151811015156110f857fe5b90602001906020020151612732565b151561117b576040517f08c379a00000000000000000000000000000000000000000000000000000000081526004018080602001828103825260128152602001807f496e76616c69642070726f64756374204944000000000000000000000000000081525060200191505060405180910390fd5b80806001019150506110de565b5082518451141515611202576040517f08c379a00000000000000000000000000000000000000000000000000000000081526004018080602001828103825260108152602001807f57726f6e6720706172616d65746572730000000000000000000000000000000081525060200191505060405180910390fd5b606061120d85612a46565b9050606085516040519080825280602002602001820160405280156112415781602001602082028038833980820191505090505b509050600080600060608060008090505b875181101561198757600095506000945060008090505b8c5181101561144557878181518110151561128057fe5b906020019060200201511515611397578b8281518110151561129e57fe5b90602001906020020151603560008f858151811015156112ba57fe5b9060200190602002015181526020019081526020016000206003015410151515611372576040517f08c379a000000000000000000000000000000000000000000000000000000000815260040180806020018281038252602d8152602001807f547279696e6720746f20627579206d6f72652070726f64756374207468616e2081526020017f6974277320706f737369626c650000000000000000000000000000000000000081525060400191505060405180910390fd5b6001888281518110151561138257fe5b90602001906020020190151590811515815250505b88828151811015156113a557fe5b9060200190602002015173ffffffffffffffffffffffffffffffffffffffff16603560008f848151811015156113d757fe5b90602001906020020151815260200190815260200160002060020160009054906101000a900473ffffffffffffffffffffffffffffffffffffffff1673ffffffffffffffffffffffffffffffffffffffff1614156114385785806001019650505b8080600101915050611269565b50846040519080825280602002602001820160405280156114755781602001602082028038833980820191505090505b509250846040519080825280602002602001820160405280156114a75781602001602082028038833980820191505090505b5091506000935060008090505b8c51811080156114c357508585105b1561167b5788828151811015156114d657fe5b9060200190602002015173ffffffffffffffffffffffffffffffffffffffff16603560008f8481518110151561150857fe5b90602001906020020151815260200190815260200160002060020160009054906101000a900473ffffffffffffffffffffffffffffffffffffffff1673ffffffffffffffffffffffffffffffffffffffff16141561166e578c8181518110151561156e57fe5b90602001906020020151848681518110151561158657fe5b90602001906020020181815250508b818151811015156115a257fe5b9060200190602002015183868151811015156115ba57fe5b906020019060200201818152505084806001019550508b818151811015156115de57fe5b90602001906020020151603560008f848151811015156115fa57fe5b9060200190602002015181526020019081526020016000206001015402870196508b8181518110151561162957fe5b90602001906020020151603560008f8481518110151561164557fe5b906020019060200201518152602001908152602001600020600301600082825403925050819055505b80806001019150506114b4565b50603760009054906101000a900473ffffffffffffffffffffffffffffffffffffffff1673ffffffffffffffffffffffffffffffffffffffff166323b872dd338a848151811015156116c957fe5b90602001906020020151896040518463ffffffff167c0100000000000000000000000000000000000000000000000000000000028152600401808473ffffffffffffffffffffffffffffffffffffffff1673ffffffffffffffffffffffffffffffffffffffff1681526020018373ffffffffffffffffffffffffffffffffffffffff1673ffffffffffffffffffffffffffffffffffffffff1681526020018281526020019350505050602060405180830381600087803b15801561178c57600080fd5b505af11580156117a0573d6000803e3d6000fd5b505050506040513d60208110156117b657600080fd5b810190808051906020019092919050505050603860009054906101000a900473ffffffffffffffffffffffffffffffffffffffff1673ffffffffffffffffffffffffffffffffffffffff1663d43db75c8484338c8681518110151561181757fe5b906020019060200201516040518563ffffffff167c01000000000000000000000000000000000000000000000000000000000281526004018080602001806020018573ffffffffffffffffffffffffffffffffffffffff1673ffffffffffffffffffffffffffffffffffffffff1681526020018473ffffffffffffffffffffffffffffffffffffffff1673ffffffffffffffffffffffffffffffffffffffff168152602001838103835287818151815260200191508051906020019060200280838360005b838110156118f75780820151818401526020810190506118dc565b50505050905001838103825286818151815260200191508051906020019060200280838360005b8381101561193957808201518184015260208101905061191e565b505050509050019650505050505050600060405180830381600087803b15801561196257600080fd5b505af1158015611976573d6000803e3d6000fd5b505050508080600101915050611252565b505050505050505050505050565b8161199f81612732565b1515611a13576040517f08c379a00000000000000000000000000000000000000000000000000000000081526004018080602001828103825260128152602001807f496e76616c69642070726f64756374204944000000000000000000000000000081525060200191505060405180910390fd5b3383611a1d612cda565b6035600083815260200190815260200160002060c0604051908101604052908160008201548152602001600182015481526020016002820160009054906101000a900473ffffffffffffffffffffffffffffffffffffffff1673ffffffffffffffffffffffffffffffffffffffff1673ffffffffffffffffffffffffffffffffffffffff168152602001600382015481526020016004820160009054906101000a900460ff1660ff1660ff1681526020016004820160019054906101000a900460ff16151515158152505090508273ffffffffffffffffffffffffffffffffffffffff16816040015173ffffffffffffffffffffffffffffffffffffffff16141515611b2857600080fd5b846035600088815260200190815260200160002060030181905550505050505050565b603860009054906101000a900473ffffffffffffffffffffffffffffffffffffffff1673ffffffffffffffffffffffffffffffffffffffff1663d43db75c858585856040518563ffffffff167c01000000000000000000000000000000000000000000000000000000000281526004018080602001806020018573ffffffffffffffffffffffffffffffffffffffff1673ffffffffffffffffffffffffffffffffffffffff1681526020018473ffffffffffffffffffffffffffffffffffffffff1673ffffffffffffffffffffffffffffffffffffffff168152602001838103835287818151815260200191508051906020019060200280838360005b83811015611c63578082015181840152602081019050611c48565b50505050905001838103825286818151815260200191508051906020019060200280838360005b83811015611ca5578082015181840152602081019050611c8a565b505050509050019650505050505050600060405180830381600087803b158015611cce57600080fd5b505af1158015611ce2573d6000803e3d6000fd5b5050505050505050565b600060019054906101000a900460ff1680611d0b5750611d0a612cc9565b5b80611d2257506000809054906101000a900460ff16155b1515611dbc576040517f08c379a000000000000000000000000000000000000000000000000000000000815260040180806020018281038252602e8152602001807f436f6e747261637420696e7374616e63652068617320616c726561647920626581526020017f656e20696e697469616c697a656400000000000000000000000000000000000081525060400191505060405180910390fd5b60008060019054906101000a900460ff161590508015611e0c576001600060016101000a81548160ff02191690831515021790555060016000806101000a81548160ff0219169083151502179055505b83603660006101000a81548173ffffffffffffffffffffffffffffffffffffffff021916908373ffffffffffffffffffffffffffffffffffffffff16021790555082603760006101000a81548173ffffffffffffffffffffffffffffffffffffffff021916908373ffffffffffffffffffffffffffffffffffffffff16021790555081603860006101000a81548173ffffffffffffffffffffffffffffffffffffffff021916908373ffffffffffffffffffffffffffffffffffffffff16021790555060006033819055508015611ef85760008060016101000a81548160ff0219169083151502179055505b50505050565b336000603660009054906101000a900473ffffffffffffffffffffffffffffffffffffffff1673ffffffffffffffffffffffffffffffffffffffff1663c3c5a547836040518263ffffffff167c0100000000000000000000000000000000000000000000000000000000028152600401808273ffffffffffffffffffffffffffffffffffffffff1673ffffffffffffffffffffffffffffffffffffffff16815260200191505060206040518083038186803b158015611fbc57600080fd5b505afa158015611fd0573d6000803e3d6000fd5b505050506040513d6020811015611fe657600080fd5b8101908080519060200190929190505050600381111561200257fe5b14151515612078576040517f08c379a00000000000000000000000000000000000000000000000000000000081526004018080602001828103825260168152602001807f4e6f74206120726567697374657265642075736572210000000000000000000081525060200191505060405180910390fd5b8360008090505b8151811015612129576120a8828281518110151561209957fe5b90602001906020020151612732565b151561211c576040517f08c379a00000000000000000000000000000000000000000000000000000000081526004018080602001828103825260128152602001807f496e76616c69642070726f64756374204944000000000000000000000000000081525060200191505060405180910390fd5b808060010191505061207f565b50835185511415156121a3576040517f08c379a00000000000000000000000000000000000000000000000000000000081526004018080602001828103825260108152602001807f57726f6e6720706172616d65746572730000000000000000000000000000000081525060200191505060405180910390fd5b600080905060008090505b86518110156124595785818151811015156121c557fe5b906020019060200201516035600089848151811015156121e157fe5b9060200190602002015181526020019081526020016000206003015410151515612299576040517f08c379a000000000000000000000000000000000000000000000000000000000815260040180806020018281038252602d8152602001807f547279696e6720746f20627579206d6f72652070726f64756374207468616e2081526020017f6974277320706f737369626c650000000000000000000000000000000000000081525060400191505060405180910390fd5b8473ffffffffffffffffffffffffffffffffffffffff166035600089848151811015156122c257fe5b90602001906020020151815260200190815260200160002060020160009054906101000a900473ffffffffffffffffffffffffffffffffffffffff1673ffffffffffffffffffffffffffffffffffffffff161415156123af576040517f08c379a000000000000000000000000000000000000000000000000000000000815260040180806020018281038252602f8152602001807f547279696e6720746f206275792070726f64756374732066726f6d206d6f726581526020017f207468616e206f6e65206f776e6572000000000000000000000000000000000081525060400191505060405180910390fd5b85818151811015156123bd57fe5b906020019060200201516035600089848151811015156123d957fe5b906020019060200201518152602001908152602001600020600101540282019150858181518110151561240857fe5b9060200190602002015160356000898481518110151561242457fe5b9060200190602002015181526020019081526020016000206003016000828254039250508190555080806001019150506121ae565b50603760009054906101000a900473ffffffffffffffffffffffffffffffffffffffff1673ffffffffffffffffffffffffffffffffffffffff166323b872dd3386846040518463ffffffff167c0100000000000000000000000000000000000000000000000000000000028152600401808473ffffffffffffffffffffffffffffffffffffffff1673ffffffffffffffffffffffffffffffffffffffff1681526020018373ffffffffffffffffffffffffffffffffffffffff1673ffffffffffffffffffffffffffffffffffffffff1681526020018281526020019350505050602060405180830381600087803b15801561255357600080fd5b505af1158015612567573d6000803e3d6000fd5b505050506040513d602081101561257d57600080fd5b810190808051906020019092919050505050603860009054906101000a900473ffffffffffffffffffffffffffffffffffffffff1673ffffffffffffffffffffffffffffffffffffffff1663d43db75c878733886040518563ffffffff167c01000000000000000000000000000000000000000000000000000000000281526004018080602001806020018573ffffffffffffffffffffffffffffffffffffffff1673ffffffffffffffffffffffffffffffffffffffff1681526020018473ffffffffffffffffffffffffffffffffffffffff1673ffffffffffffffffffffffffffffffffffffffff168152602001838103835287818151815260200191508051906020019060200280838360005b838110156126a757808201518184015260208101905061268c565b50505050905001838103825286818151815260200191508051906020019060200280838360005b838110156126e95780820151818401526020810190506126ce565b505050509050019650505050505050600060405180830381600087803b15801561271257600080fd5b505af1158015612726573d6000803e3d6000fd5b50505050505050505050565b6000806001026035600084815260200190815260200160002060000154141580156127845750600015156035600084815260200190815260200160002060040160019054906101000a900460ff161515145b9050919050565b60008060008060008060356000888152602001908152602001600020600101546035600089815260200190815260200160002060040160009054906101000a900460ff16603560008a815260200190815260200160002060030154603560008b815260200190815260200160002060020160009054906101000a900473ffffffffffffffffffffffffffffffffffffffff16603560008c815260200190815260200160002060040160019054906101000a900460ff16603560008d81526020019081526020016000206000015495509550955095509550955091939550919395565b612878838383611cec565b505050565b8061288781612732565b15156128fb576040517f08c379a00000000000000000000000000000000000000000000000000000000081526004018080602001828103825260128152602001807f496e76616c69642070726f64756374204944000000000000000000000000000081525060200191505060405180910390fd5b3382612905612cda565b6035600083815260200190815260200160002060c0604051908101604052908160008201548152602001600182015481526020016002820160009054906101000a900473ffffffffffffffffffffffffffffffffffffffff1673ffffffffffffffffffffffffffffffffffffffff1673ffffffffffffffffffffffffffffffffffffffff168152602001600382015481526020016004820160009054906101000a900460ff1660ff1660ff1681526020016004820160019054906101000a900460ff16151515158152505090508273ffffffffffffffffffffffffffffffffffffffff16816040015173ffffffffffffffffffffffffffffffffffffffff16141515612a1057600080fd5b60016035600087815260200190815260200160002060040160016101000a81548160ff0219169083151502179055505050505050565b606080603480549050604051908082528060200260200182016040528015612a7d5781602001602082028038833980820191505090505b5090506000809050600080600090505b8551811015612c0a576000915060008090505b8381108015612aad575082155b15612b5457603560008884815181101515612ac457fe5b90602001906020020151815260200190815260200160002060020160009054906101000a900473ffffffffffffffffffffffffffffffffffffffff1673ffffffffffffffffffffffffffffffffffffffff168582815181101515612b2457fe5b9060200190602002015173ffffffffffffffffffffffffffffffffffffffff161492508080600101915050612aa0565b50811515612bfd57603560008783815181101515612b6e57fe5b90602001906020020151815260200190815260200160002060020160009054906101000a900473ffffffffffffffffffffffffffffffffffffffff168484815181101515612bb857fe5b9060200190602002019073ffffffffffffffffffffffffffffffffffffffff16908173ffffffffffffffffffffffffffffffffffffffff168152505082806001019350505b8080600101915050612a8d565b50606082604051908082528060200260200182016040528015612c3c5781602001602082028038833980820191505090505b50905060008090505b83811015612cbc578481815181101515612c5b57fe5b906020019060200201518282815181101515612c7357fe5b9060200190602002019073ffffffffffffffffffffffffffffffffffffffff16908173ffffffffffffffffffffffffffffffffffffffff16815250508080600101915050612c45565b5080945050505050919050565b600080303b90506000811491505090565b60c0604051908101604052806000801916815260200160008152602001600073ffffffffffffffffffffffffffffffffffffffff16815260200160008152602001600060ff168152602001600015158152509056fea165627a7a723058207a6bb876fad814dfc8b9e3af22d343aa682b3bbd1858a5d6b3d1d6704bef28c60029",
  "source": "pragma solidity >=0.5.0;\n\nimport \"../Product.sol\";\n\n///@title Product\ncontract ProductMock is Product {\n    function initializeMock(address _userManager, address _cubit, address _productTransaction) public {\n        Product.initialize(_userManager, _cubit, _productTransaction);\n    }\n\n    function callProductTransactionAddTransaction(uint256[] memory _productIDs, uint256[] memory _quantities,\n        address _buyer, address _seller) public {\n        return productTransaction.addTransaction(_productIDs,_quantities,_buyer,_seller);\n    }\n}\n",
  "sourcePath": "/home/nicolabba/WebstormProjects/The-Walking-Bug/Soldino/contracts/mocks/ProductMock.sol",
  "compiler": {
    "name": "solc",
    "version": "0.5.0+commit.1d4f565a.Emscripten.clang"
  },
  "schemaVersion": "3.0.6",
  "updatedAt": "2019-05-16T08:07:59.696Z",
  "devdoc": {
    "methods": {
      "addProduct(uint256,uint256,uint8,bytes32)": {
        "details": "Adds a new product to the system, owned by the business owner who calls the function",
        "params": {
          "_VAT": "The VAT of the product to add",
          "_availability": "The availability of the product to add",
          "_hash": "The hash of the data of the product to add",
          "_price": "The price of the product to add"
        }
      },
      "buyProducts(uint256[],uint256[])": {
        "details": "Allows the the registered user who calls the function to buy products",
        "params": {
          "_amount": "The amount of each product to buy",
          "_products": "The ids of the products to buy"
        }
      },
      "buyProductsFromOwner(uint256[],uint256[],address)": {
        "details": "Allows the the registered user who calls the function to buy products from a given seller",
        "params": {
          "_amount": "The amount of each product to buy",
          "_owner": "The address of the owner of ALL the products bought",
          "_products": "The ids of the products to buy"
        }
      },
      "changeProductAvailability(uint256,uint256)": {
        "details": "Function used by the owner of a product in order to change the availability of a product",
        "params": {
          "_availability": "The new availability",
          "_productId": "The id of the product whose name to change"
        }
      },
      "deleteProduct(uint256)": {
        "details": "Function used by the owner of a product in order to make sure a product is unavailable",
        "params": {
          "_productID": "The ID of the product to remove from circulation"
        }
      },
      "getAllProducts()": {
        "details": "Function used to get the list of valid products"
      },
      "getProductData(uint256)": {
        "details": "Function used to get the data of a specific product",
        "params": {
          "_productID": "The ID of the product to get the data"
        }
      },
      "increaseProductAvailability(uint256,uint256)": {
        "details": "Function used by the owner of a product in order to increase the availability of a product",
        "params": {
          "_availabilityChange": "The change of the product's availability",
          "_productId": "The id of the product whose name to change"
        }
      },
      "initialize(address,address,address)": {
        "details": "Initializes the contract saving the instances of the proxies of the contracts used by this contract",
        "params": {
          "_cubit": "The instance of the proxy of the Cubit contract of this project",
          "_productTransaction": "The instance of the proxy of the ProductTransaction contract of this project",
          "_userManager": "The instance of the proxy of the UserManager contract of this project"
        }
      },
      "isValidProductID(uint256)": {
        "details": "Checks if a given ID is associated with a valid, not deleted product",
        "params": {
          "_productID": "The ID of the product to check"
        }
      }
    },
    "title": "Product"
  },
  "userdoc": {
    "methods": {}
  }
}