{
  "contractName": "UserManagerMock",
  "abi": [
    {
      "constant": false,
      "inputs": [
        {
          "name": "_type",
          "type": "uint8"
        },
        {
          "name": "_hash",
          "type": "bytes32"
        }
      ],
      "name": "registerUser",
      "outputs": [],
      "payable": false,
      "stateMutability": "nonpayable",
      "type": "function"
    },
    {
      "constant": true,
      "inputs": [],
      "name": "getAllRegisteredUsers",
      "outputs": [
        {
          "name": "",
          "type": "address[]"
        }
      ],
      "payable": false,
      "stateMutability": "view",
      "type": "function"
    },
    {
      "constant": false,
      "inputs": [
        {
          "name": "_businessOwner",
          "type": "address"
        }
      ],
      "name": "removeBusinessOwner",
      "outputs": [],
      "payable": false,
      "stateMutability": "nonpayable",
      "type": "function"
    },
    {
      "constant": true,
      "inputs": [
        {
          "name": "_user",
          "type": "address"
        }
      ],
      "name": "getUserHash",
      "outputs": [
        {
          "name": "",
          "type": "bytes32"
        }
      ],
      "payable": false,
      "stateMutability": "view",
      "type": "function"
    },
    {
      "constant": true,
      "inputs": [],
      "name": "getAllCitizens",
      "outputs": [
        {
          "name": "",
          "type": "address[]"
        }
      ],
      "payable": false,
      "stateMutability": "view",
      "type": "function"
    },
    {
      "constant": true,
      "inputs": [],
      "name": "getGovernmentAddress",
      "outputs": [
        {
          "name": "",
          "type": "address"
        }
      ],
      "payable": false,
      "stateMutability": "view",
      "type": "function"
    },
    {
      "constant": false,
      "inputs": [
        {
          "name": "_businessOwner",
          "type": "address"
        }
      ],
      "name": "confirmBusinessOwner",
      "outputs": [],
      "payable": false,
      "stateMutability": "nonpayable",
      "type": "function"
    },
    {
      "constant": true,
      "inputs": [
        {
          "name": "_businessOwner",
          "type": "address"
        }
      ],
      "name": "isBusinessOwnerConfirmed",
      "outputs": [
        {
          "name": "",
          "type": "uint256"
        }
      ],
      "payable": false,
      "stateMutability": "view",
      "type": "function"
    },
    {
      "constant": true,
      "inputs": [],
      "name": "login",
      "outputs": [
        {
          "name": "",
          "type": "uint8"
        }
      ],
      "payable": false,
      "stateMutability": "view",
      "type": "function"
    },
    {
      "constant": true,
      "inputs": [],
      "name": "getAllBusinessOwners",
      "outputs": [
        {
          "name": "",
          "type": "address[]"
        }
      ],
      "payable": false,
      "stateMutability": "view",
      "type": "function"
    },
    {
      "constant": false,
      "inputs": [
        {
          "name": "_citizen",
          "type": "address"
        },
        {
          "name": "_businessOwner",
          "type": "address"
        },
        {
          "name": "_government",
          "type": "address"
        }
      ],
      "name": "initialize",
      "outputs": [],
      "payable": false,
      "stateMutability": "nonpayable",
      "type": "function"
    },
    {
      "constant": true,
      "inputs": [
        {
          "name": "_user",
          "type": "address"
        }
      ],
      "name": "isRegistered",
      "outputs": [
        {
          "name": "",
          "type": "uint8"
        }
      ],
      "payable": false,
      "stateMutability": "view",
      "type": "function"
    },
    {
      "constant": false,
      "inputs": [
        {
          "name": "_citizen",
          "type": "address"
        },
        {
          "name": "_businessOwner",
          "type": "address"
        },
        {
          "name": "_government",
          "type": "address"
        }
      ],
      "name": "initializeMock",
      "outputs": [],
      "payable": false,
      "stateMutability": "nonpayable",
      "type": "function"
    },
    {
      "constant": false,
      "inputs": [
        {
          "name": "_hash",
          "type": "bytes32"
        },
        {
          "name": "_user",
          "type": "address"
        }
      ],
      "name": "callBusinessOwnerRegisterBusinessOwner",
      "outputs": [],
      "payable": false,
      "stateMutability": "nonpayable",
      "type": "function"
    },
    {
      "constant": true,
      "inputs": [
        {
          "name": "_user",
          "type": "address"
        }
      ],
      "name": "callBusinessOwnerLogin",
      "outputs": [
        {
          "name": "",
          "type": "bytes32"
        }
      ],
      "payable": false,
      "stateMutability": "view",
      "type": "function"
    },
    {
      "constant": true,
      "inputs": [],
      "name": "callBusinessOwnerGetAllBusinessOwners",
      "outputs": [
        {
          "name": "",
          "type": "address[]"
        }
      ],
      "payable": false,
      "stateMutability": "view",
      "type": "function"
    },
    {
      "constant": true,
      "inputs": [
        {
          "name": "_businessOwner",
          "type": "address"
        }
      ],
      "name": "callBusinessOwnerIsConfirmed",
      "outputs": [
        {
          "name": "",
          "type": "uint256"
        }
      ],
      "payable": false,
      "stateMutability": "view",
      "type": "function"
    },
    {
      "constant": false,
      "inputs": [
        {
          "name": "_businessOwner",
          "type": "address"
        }
      ],
      "name": "callBusinessOwnerConfirmBusiness",
      "outputs": [],
      "payable": false,
      "stateMutability": "nonpayable",
      "type": "function"
    },
    {
      "constant": false,
      "inputs": [
        {
          "name": "_businessOwner",
          "type": "address"
        }
      ],
      "name": "callBusinessOwnerRemoveBusiness",
      "outputs": [],
      "payable": false,
      "stateMutability": "nonpayable",
      "type": "function"
    },
    {
      "constant": false,
      "inputs": [
        {
          "name": "_hash",
          "type": "bytes32"
        },
        {
          "name": "_user",
          "type": "address"
        }
      ],
      "name": "callCitizenRegisterCitizen",
      "outputs": [],
      "payable": false,
      "stateMutability": "nonpayable",
      "type": "function"
    },
    {
      "constant": true,
      "inputs": [
        {
          "name": "_user",
          "type": "address"
        }
      ],
      "name": "callCitizenLogin",
      "outputs": [
        {
          "name": "",
          "type": "bytes32"
        }
      ],
      "payable": false,
      "stateMutability": "view",
      "type": "function"
    },
    {
      "constant": true,
      "inputs": [],
      "name": "callCitizenGetAllCitizens",
      "outputs": [
        {
          "name": "",
          "type": "address[]"
        }
      ],
      "payable": false,
      "stateMutability": "view",
      "type": "function"
    }
  ],
  "bytecode": "0x608060405234801561001057600080fd5b50612419806100206000396000f3fe608060405260043610610128576000357c0100000000000000000000000000000000000000000000000000000000900463ffffffff168063121b42201461012d5780631d879a78146101755780631f894291146101c657806321d05da01461022b57806329a956e41461027c578063397388af146102e85780635952176e1461035457806364377452146103a5578063649344041461040a5780636c0e1ccd146104655780637835ef68146104d1578063870c80791461052c57806391fc56961461058357806392e5c9c9146105d4578063943114f81461063957806395a0fb191461069e578063b34e97e814610703578063bb4a7f181461073c578063c0c53b8b146107a8578063c3c5a54714610839578063d3b9e2ce146108ac578063d96baee314610918575b600080fd5b34801561013957600080fd5b506101736004803603604081101561015057600080fd5b81019080803560ff169060200190929190803590602001909291905050506109a9565b005b34801561018157600080fd5b506101c46004803603602081101561019857600080fd5b81019080803573ffffffffffffffffffffffffffffffffffffffff169060200190929190505050610c05565b005b3480156101d257600080fd5b50610215600480360360208110156101e957600080fd5b81019080803573ffffffffffffffffffffffffffffffffffffffff169060200190929190505050610cdd565b6040518082815260200191505060405180910390f35b34801561023757600080fd5b5061027a6004803603602081101561024e57600080fd5b81019080803573ffffffffffffffffffffffffffffffffffffffff169060200190929190505050610ddc565b005b34801561028857600080fd5b50610291610eb4565b6040518080602001828103825283818151815260200191508051906020019060200280838360005b838110156102d45780820151818401526020810190506102b9565b505050509050019250505060405180910390f35b3480156102f457600080fd5b506102fd610fd0565b6040518080602001828103825283818151815260200191508051906020019060200280838360005b83811015610340578082015181840152602081019050610325565b505050509050019250505060405180910390f35b34801561036057600080fd5b506103a36004803603602081101561037757600080fd5b81019080803573ffffffffffffffffffffffffffffffffffffffff16906020019092919050505061113e565b005b3480156103b157600080fd5b506103f4600480360360208110156103c857600080fd5b81019080803573ffffffffffffffffffffffffffffffffffffffff169060200190929190505050611248565b6040518082815260200191505060405180910390f35b34801561041657600080fd5b506104636004803603604081101561042d57600080fd5b8101908080359060200190929190803573ffffffffffffffffffffffffffffffffffffffff16906020019092919050505061149e565b005b34801561047157600080fd5b5061047a61157f565b6040518080602001828103825283818151815260200191508051906020019060200280838360005b838110156104bd5780820151818401526020810190506104a2565b505050509050019250505060405180910390f35b3480156104dd57600080fd5b5061052a600480360360408110156104f457600080fd5b8101908080359060200190929190803573ffffffffffffffffffffffffffffffffffffffff16906020019092919050505061169b565b005b34801561053857600080fd5b5061054161177c565b604051808273ffffffffffffffffffffffffffffffffffffffff1673ffffffffffffffffffffffffffffffffffffffff16815260200191505060405180910390f35b34801561058f57600080fd5b506105d2600480360360208110156105a657600080fd5b81019080803573ffffffffffffffffffffffffffffffffffffffff169060200190929190505050611842565b005b3480156105e057600080fd5b50610623600480360360208110156105f757600080fd5b81019080803573ffffffffffffffffffffffffffffffffffffffff16906020019092919050505061194c565b6040518082815260200191505060405180910390f35b34801561064557600080fd5b506106886004803603602081101561065c57600080fd5b81019080803573ffffffffffffffffffffffffffffffffffffffff169060200190929190505050611a4b565b6040518082815260200191505060405180910390f35b3480156106aa57600080fd5b506106ed600480360360208110156106c157600080fd5b81019080803573ffffffffffffffffffffffffffffffffffffffff169060200190929190505050611b4a565b6040518082815260200191505060405180910390f35b34801561070f57600080fd5b50610718611c49565b6040518082600381111561072857fe5b60ff16815260200191505060405180910390f35b34801561074857600080fd5b50610751611c59565b6040518080602001828103825283818151815260200191508051906020019060200280838360005b83811015610794578082015181840152602081019050610779565b505050509050019250505060405180910390f35b3480156107b457600080fd5b50610837600480360360608110156107cb57600080fd5b81019080803573ffffffffffffffffffffffffffffffffffffffff169060200190929190803573ffffffffffffffffffffffffffffffffffffffff169060200190929190803573ffffffffffffffffffffffffffffffffffffffff169060200190929190505050611d75565b005b34801561084557600080fd5b506108886004803603602081101561085c57600080fd5b81019080803573ffffffffffffffffffffffffffffffffffffffff169060200190929190505050611f7f565b6040518082600381111561089857fe5b60ff16815260200191505060405180910390f35b3480156108b857600080fd5b506108c16122b0565b6040518080602001828103825283818151815260200191508051906020019060200280838360005b838110156109045780820151818401526020810190506108e9565b505050509050019250505060405180910390f35b34801561092457600080fd5b506109a76004803603606081101561093b57600080fd5b81019080803573ffffffffffffffffffffffffffffffffffffffff169060200190929190803573ffffffffffffffffffffffffffffffffffffffff169060200190929190803573ffffffffffffffffffffffffffffffffffffffff1690602001909291905050506123cc565b005b60006109b433611f7f565b9050600060038111156109c357fe5b8160038111156109cf57fe5b1415156109db57600080fd5b600160038111156109e857fe5b8360038111156109f457fe5b1480610a16575060026003811115610a0857fe5b836003811115610a1457fe5b145b1515610a2157600080fd5b60016003811115610a2e57fe5b836003811115610a3a57fe5b1415610b2257603360009054906101000a900473ffffffffffffffffffffffffffffffffffffffff1673ffffffffffffffffffffffffffffffffffffffff166302dadf8e83336040518363ffffffff167c0100000000000000000000000000000000000000000000000000000000028152600401808381526020018273ffffffffffffffffffffffffffffffffffffffff1673ffffffffffffffffffffffffffffffffffffffff16815260200192505050600060405180830381600087803b158015610b0557600080fd5b505af1158015610b19573d6000803e3d6000fd5b50505050610c00565b603460009054906101000a900473ffffffffffffffffffffffffffffffffffffffff1673ffffffffffffffffffffffffffffffffffffffff1663f111502483336040518363ffffffff167c0100000000000000000000000000000000000000000000000000000000028152600401808381526020018273ffffffffffffffffffffffffffffffffffffffff1673ffffffffffffffffffffffffffffffffffffffff16815260200192505050600060405180830381600087803b158015610be757600080fd5b505af1158015610bfb573d6000803e3d6000fd5b505050505b505050565b603460009054906101000a900473ffffffffffffffffffffffffffffffffffffffff1673ffffffffffffffffffffffffffffffffffffffff1663f3cb4aae826040518263ffffffff167c0100000000000000000000000000000000000000000000000000000000028152600401808273ffffffffffffffffffffffffffffffffffffffff1673ffffffffffffffffffffffffffffffffffffffff168152602001915050600060405180830381600087803b158015610cc257600080fd5b505af1158015610cd6573d6000803e3d6000fd5b5050505050565b6000603360009054906101000a900473ffffffffffffffffffffffffffffffffffffffff1673ffffffffffffffffffffffffffffffffffffffff166335a6861a836040518263ffffffff167c0100000000000000000000000000000000000000000000000000000000028152600401808273ffffffffffffffffffffffffffffffffffffffff1673ffffffffffffffffffffffffffffffffffffffff16815260200191505060206040518083038186803b158015610d9a57600080fd5b505afa158015610dae573d6000803e3d6000fd5b505050506040513d6020811015610dc457600080fd5b81019080805190602001909291905050509050919050565b603460009054906101000a900473ffffffffffffffffffffffffffffffffffffffff1673ffffffffffffffffffffffffffffffffffffffff1663419b96fa826040518263ffffffff167c0100000000000000000000000000000000000000000000000000000000028152600401808273ffffffffffffffffffffffffffffffffffffffff1673ffffffffffffffffffffffffffffffffffffffff168152602001915050600060405180830381600087803b158015610e9957600080fd5b505af1158015610ead573d6000803e3d6000fd5b5050505050565b6060603360009054906101000a900473ffffffffffffffffffffffffffffffffffffffff1673ffffffffffffffffffffffffffffffffffffffff16636c0e1ccd6040518163ffffffff167c010000000000000000000000000000000000000000000000000000000002815260040160006040518083038186803b158015610f3a57600080fd5b505afa158015610f4e573d6000803e3d6000fd5b505050506040513d6000823e3d601f19601f820116820180604052506020811015610f7857600080fd5b810190808051640100000000811115610f9057600080fd5b82810190506020810184811115610fa657600080fd5b8151856020820283011164010000000082111715610fc357600080fd5b5050929190505050905090565b606080610fdb61157f565b90506060610fe7611c59565b90506060815183510160405190808252806020026020018201604052801561101e5781602001602082028038833980820191505090505b509050600080905060008090505b84518110156110ac57848181518110151561104357fe5b90602001906020020151838381518110151561105b57fe5b9060200190602002019073ffffffffffffffffffffffffffffffffffffffff16908173ffffffffffffffffffffffffffffffffffffffff16815250508180600101925050808060010191505061102c565b5060008090505b83518110156111335783818151811015156110ca57fe5b9060200190602002015183838151811015156110e257fe5b9060200190602002019073ffffffffffffffffffffffffffffffffffffffff16908173ffffffffffffffffffffffffffffffffffffffff1681525050818060010192505080806001019150506110b3565b508194505050505090565b600061114933611f7f565b905060038081111561115757fe5b81600381111561116357fe5b14151561116f57600080fd5b603460009054906101000a900473ffffffffffffffffffffffffffffffffffffffff1673ffffffffffffffffffffffffffffffffffffffff1663419b96fa836040518263ffffffff167c0100000000000000000000000000000000000000000000000000000000028152600401808273ffffffffffffffffffffffffffffffffffffffff1673ffffffffffffffffffffffffffffffffffffffff168152602001915050600060405180830381600087803b15801561122c57600080fd5b505af1158015611240573d6000803e3d6000fd5b505050505050565b60008061125483611f7f565b90506001600381111561126357fe5b81600381111561126f57fe5b141561137357603360009054906101000a900473ffffffffffffffffffffffffffffffffffffffff1673ffffffffffffffffffffffffffffffffffffffff166335a6861a846040518263ffffffff167c0100000000000000000000000000000000000000000000000000000000028152600401808273ffffffffffffffffffffffffffffffffffffffff1673ffffffffffffffffffffffffffffffffffffffff16815260200191505060206040518083038186803b15801561133057600080fd5b505afa158015611344573d6000803e3d6000fd5b505050506040513d602081101561135a57600080fd5b8101908080519060200190929190505050915050611499565b6002600381111561138057fe5b81600381111561138c57fe5b141561149057603460009054906101000a900473ffffffffffffffffffffffffffffffffffffffff1673ffffffffffffffffffffffffffffffffffffffff166335a6861a846040518263ffffffff167c0100000000000000000000000000000000000000000000000000000000028152600401808273ffffffffffffffffffffffffffffffffffffffff1673ffffffffffffffffffffffffffffffffffffffff16815260200191505060206040518083038186803b15801561144d57600080fd5b505afa158015611461573d6000803e3d6000fd5b505050506040513d602081101561147757600080fd5b8101908080519060200190929190505050915050611499565b60006001029150505b919050565b603360009054906101000a900473ffffffffffffffffffffffffffffffffffffffff1673ffffffffffffffffffffffffffffffffffffffff166302dadf8e83836040518363ffffffff167c0100000000000000000000000000000000000000000000000000000000028152600401808381526020018273ffffffffffffffffffffffffffffffffffffffff1673ffffffffffffffffffffffffffffffffffffffff16815260200192505050600060405180830381600087803b15801561156357600080fd5b505af1158015611577573d6000803e3d6000fd5b505050505050565b6060603360009054906101000a900473ffffffffffffffffffffffffffffffffffffffff1673ffffffffffffffffffffffffffffffffffffffff16636c0e1ccd6040518163ffffffff167c010000000000000000000000000000000000000000000000000000000002815260040160006040518083038186803b15801561160557600080fd5b505afa158015611619573d6000803e3d6000fd5b505050506040513d6000823e3d601f19601f82011682018060405250602081101561164357600080fd5b81019080805164010000000081111561165b57600080fd5b8281019050602081018481111561167157600080fd5b815185602082028301116401000000008211171561168e57600080fd5b5050929190505050905090565b603460009054906101000a900473ffffffffffffffffffffffffffffffffffffffff1673ffffffffffffffffffffffffffffffffffffffff1663f111502483836040518363ffffffff167c0100000000000000000000000000000000000000000000000000000000028152600401808381526020018273ffffffffffffffffffffffffffffffffffffffff1673ffffffffffffffffffffffffffffffffffffffff16815260200192505050600060405180830381600087803b15801561176057600080fd5b505af1158015611774573d6000803e3d6000fd5b505050505050565b6000603560009054906101000a900473ffffffffffffffffffffffffffffffffffffffff1673ffffffffffffffffffffffffffffffffffffffff1663870c80796040518163ffffffff167c010000000000000000000000000000000000000000000000000000000002815260040160206040518083038186803b15801561180257600080fd5b505afa158015611816573d6000803e3d6000fd5b505050506040513d602081101561182c57600080fd5b8101908080519060200190929190505050905090565b600061184d33611f7f565b905060038081111561185b57fe5b81600381111561186757fe5b14151561187357600080fd5b603460009054906101000a900473ffffffffffffffffffffffffffffffffffffffff1673ffffffffffffffffffffffffffffffffffffffff1663f3cb4aae836040518263ffffffff167c0100000000000000000000000000000000000000000000000000000000028152600401808273ffffffffffffffffffffffffffffffffffffffff1673ffffffffffffffffffffffffffffffffffffffff168152602001915050600060405180830381600087803b15801561193057600080fd5b505af1158015611944573d6000803e3d6000fd5b505050505050565b6000603460009054906101000a900473ffffffffffffffffffffffffffffffffffffffff1673ffffffffffffffffffffffffffffffffffffffff166318e4ac35836040518263ffffffff167c0100000000000000000000000000000000000000000000000000000000028152600401808273ffffffffffffffffffffffffffffffffffffffff1673ffffffffffffffffffffffffffffffffffffffff16815260200191505060206040518083038186803b158015611a0957600080fd5b505afa158015611a1d573d6000803e3d6000fd5b505050506040513d6020811015611a3357600080fd5b81019080805190602001909291905050509050919050565b6000603460009054906101000a900473ffffffffffffffffffffffffffffffffffffffff1673ffffffffffffffffffffffffffffffffffffffff166335a6861a836040518263ffffffff167c0100000000000000000000000000000000000000000000000000000000028152600401808273ffffffffffffffffffffffffffffffffffffffff1673ffffffffffffffffffffffffffffffffffffffff16815260200191505060206040518083038186803b158015611b0857600080fd5b505afa158015611b1c573d6000803e3d6000fd5b505050506040513d6020811015611b3257600080fd5b81019080805190602001909291905050509050919050565b6000603460009054906101000a900473ffffffffffffffffffffffffffffffffffffffff1673ffffffffffffffffffffffffffffffffffffffff166318e4ac35836040518263ffffffff167c0100000000000000000000000000000000000000000000000000000000028152600401808273ffffffffffffffffffffffffffffffffffffffff1673ffffffffffffffffffffffffffffffffffffffff16815260200191505060206040518083038186803b158015611c0757600080fd5b505afa158015611c1b573d6000803e3d6000fd5b505050506040513d6020811015611c3157600080fd5b81019080805190602001909291905050509050919050565b6000611c5433611f7f565b905090565b6060603460009054906101000a900473ffffffffffffffffffffffffffffffffffffffff1673ffffffffffffffffffffffffffffffffffffffff1663bb4a7f186040518163ffffffff167c010000000000000000000000000000000000000000000000000000000002815260040160006040518083038186803b158015611cdf57600080fd5b505afa158015611cf3573d6000803e3d6000fd5b505050506040513d6000823e3d601f19601f820116820180604052506020811015611d1d57600080fd5b810190808051640100000000811115611d3557600080fd5b82810190506020810184811115611d4b57600080fd5b8151856020820283011164010000000082111715611d6857600080fd5b5050929190505050905090565b600060019054906101000a900460ff1680611d945750611d936123dc565b5b80611dab57506000809054906101000a900460ff16155b1515611e45576040517f08c379a000000000000000000000000000000000000000000000000000000000815260040180806020018281038252602e8152602001807f436f6e747261637420696e7374616e63652068617320616c726561647920626581526020017f656e20696e697469616c697a656400000000000000000000000000000000000081525060400191505060405180910390fd5b60008060019054906101000a900460ff161590508015611e95576001600060016101000a81548160ff02191690831515021790555060016000806101000a81548160ff0219169083151502179055505b83603360006101000a81548173ffffffffffffffffffffffffffffffffffffffff021916908373ffffffffffffffffffffffffffffffffffffffff16021790555082603460006101000a81548173ffffffffffffffffffffffffffffffffffffffff021916908373ffffffffffffffffffffffffffffffffffffffff16021790555081603560006101000a81548173ffffffffffffffffffffffffffffffffffffffff021916908373ffffffffffffffffffffffffffffffffffffffff1602179055508015611f795760008060016101000a81548160ff0219169083151502179055505b50505050565b600080603360009054906101000a900473ffffffffffffffffffffffffffffffffffffffff1673ffffffffffffffffffffffffffffffffffffffff166335a6861a846040518263ffffffff167c0100000000000000000000000000000000000000000000000000000000028152600401808273ffffffffffffffffffffffffffffffffffffffff1673ffffffffffffffffffffffffffffffffffffffff16815260200191505060206040518083038186803b15801561203d57600080fd5b505afa158015612051573d6000803e3d6000fd5b505050506040513d602081101561206757600080fd5b810190808051906020019092919050505090506000600102811415156120915760019150506122ab565b603460009054906101000a900473ffffffffffffffffffffffffffffffffffffffff1673ffffffffffffffffffffffffffffffffffffffff166335a6861a846040518263ffffffff167c0100000000000000000000000000000000000000000000000000000000028152600401808273ffffffffffffffffffffffffffffffffffffffff1673ffffffffffffffffffffffffffffffffffffffff16815260200191505060206040518083038186803b15801561214c57600080fd5b505afa158015612160573d6000803e3d6000fd5b505050506040513d602081101561217657600080fd5b810190808051906020019092919050505090506000600102811415156121a05760029150506122ab565b603560009054906101000a900473ffffffffffffffffffffffffffffffffffffffff1673ffffffffffffffffffffffffffffffffffffffff16636c2b04fd846040518263ffffffff167c0100000000000000000000000000000000000000000000000000000000028152600401808273ffffffffffffffffffffffffffffffffffffffff1673ffffffffffffffffffffffffffffffffffffffff16815260200191505060206040518083038186803b15801561225b57600080fd5b505afa15801561226f573d6000803e3d6000fd5b505050506040513d602081101561228557600080fd5b8101908080519060200190929190505050156122a55760039150506122ab565b60009150505b919050565b6060603460009054906101000a900473ffffffffffffffffffffffffffffffffffffffff1673ffffffffffffffffffffffffffffffffffffffff1663bb4a7f186040518163ffffffff167c010000000000000000000000000000000000000000000000000000000002815260040160006040518083038186803b15801561233657600080fd5b505afa15801561234a573d6000803e3d6000fd5b505050506040513d6000823e3d601f19601f82011682018060405250602081101561237457600080fd5b81019080805164010000000081111561238c57600080fd5b828101905060208101848111156123a257600080fd5b81518560208202830111640100000000821117156123bf57600080fd5b5050929190505050905090565b6123d7838383611d75565b505050565b600080303b9050600081149150509056fea165627a7a723058201557f08e1a58bab0a0e2281f8759b950abdf182a6f8e89fc472d85941fc131c70029",
  "source": "pragma solidity ^0.5.0;\n\nimport \"zos-lib/contracts/Initializable.sol\";\n\nimport \"./../UserManager.sol\";\n\n/// @title UserManagerMock\ncontract UserManagerMock is UserManager {\n    function initializeMock(address _citizen, address _businessOwner, address _government) public {\n        UserManager.initialize(_citizen, _businessOwner, _government);\n    }\n\n    function callBusinessOwnerRegisterBusinessOwner(bytes32 _hash, address _user) public {\n        businessOwner.registerBusinessOwner(_hash, _user);\n    }\n    function callBusinessOwnerLogin(address _user) public view returns(bytes32){\n        return businessOwner.login(_user);\n    }\n    function callBusinessOwnerGetAllBusinessOwners() public view returns(address[] memory){\n        return businessOwner.getAllBusinessOwners();\n    }\n    function callBusinessOwnerIsConfirmed(address _businessOwner) public view returns(uint256){\n        return businessOwner.isConfirmed(_businessOwner);\n    }\n    function callBusinessOwnerConfirmBusiness(address _businessOwner) public {\n        businessOwner.confirmBusiness(_businessOwner);\n    }\n    function callBusinessOwnerRemoveBusiness(address _businessOwner) public {\n        businessOwner.removeBusiness(_businessOwner);\n    }\n\n    function callCitizenRegisterCitizen(bytes32 _hash, address _user) public {\n        citizen.registerCitizen(_hash, _user);\n    }\n    function callCitizenLogin(address _user) public view returns(bytes32) {\n        return citizen.login(_user);\n    }\n    function callCitizenGetAllCitizens() public view returns(address[] memory) {\n        return citizen.getAllCitizens();\n    }\n}\n",
  "sourcePath": "/home/nicolabba/WebstormProjects/The-Walking-Bug/Soldino/contracts/mocks/UserManagerMock.sol",
  "compiler": {
    "name": "solc",
    "version": "0.5.0+commit.1d4f565a.Emscripten.clang"
  },
  "schemaVersion": "3.0.6",
  "updatedAt": "2019-05-16T08:34:01.713Z",
  "devdoc": {
    "methods": {
      "confirmBusinessOwner(address)": {
        "details": "Confirms the given business owner",
        "params": {
          "_businessOwner": "The address of the business owner to confirm"
        }
      },
      "getAllBusinessOwners()": {
        "details": "Returns a dynamic array containing all registered business owners' addresses"
      },
      "getAllCitizens()": {
        "details": "Returns a dynamic array containing all registered citizens' addresses"
      },
      "getAllRegisteredUsers()": {
        "details": "Returns a dynamic array containing all registered users' addresses"
      },
      "getGovernmentAddress()": {
        "details": "Returns the address of the government user"
      },
      "getUserHash(address)": {
        "details": "Returns the hash of a given user if it's either a citizen or a business owner; 0x0 otherwise",
        "params": {
          "_user": "The address of the user"
        }
      },
      "initialize(address,address,address)": {
        "details": "Initializes the contract saving the instances of the proxies of the contracts used by this contract",
        "params": {
          "_businessOwner": "The instance of the proxy of the BusinessOwner contract of this project",
          "_citizen": "The instance of the proxy of the Citizen contract of this project",
          "_government": "The instance of the proxy of the Government contract of this project"
        }
      },
      "isBusinessOwnerConfirmed(address)": {
        "details": "Returns true if the given business owner is confirmed",
        "params": {
          "_businessOwner": "The address of the business owner to check"
        }
      },
      "isRegistered(address)": {
        "details": "Returns the user type of a given user",
        "params": {
          "_user": "The address of the user to check"
        }
      },
      "login()": {
        "details": "Returns the user type of the user who calls the function"
      },
      "registerUser(uint8,bytes32)": {
        "details": "Registers a user either as a citizen or a business owner",
        "params": {
          "_hash": "The hash of the data (in IPFS) of the user to register",
          "_type": "The type of the user to register"
        }
      },
      "removeBusinessOwner(address)": {
        "details": "Removes the given business owner",
        "params": {
          "_businessOwner": "The address of the business owner to remove"
        }
      }
    },
    "title": "UserManagerMock"
  },
  "userdoc": {
    "methods": {}
  }
}