{
  "contractName": "VATTransaction",
  "abi": [
    {
      "constant": false,
      "inputs": [
        {
          "name": "_userManager",
          "type": "address"
        },
        {
          "name": "_vat",
          "type": "address"
        }
      ],
      "name": "initialize",
      "outputs": [],
      "payable": false,
      "stateMutability": "nonpayable",
      "type": "function"
    },
    {
      "constant": false,
      "inputs": [
        {
          "name": "_amount",
          "type": "uint256"
        },
        {
          "name": "_addresser",
          "type": "address"
        },
        {
          "name": "_addressee",
          "type": "address"
        },
        {
          "name": "_refused",
          "type": "bool"
        },
        {
          "name": "_year",
          "type": "uint256"
        },
        {
          "name": "_quarter",
          "type": "uint8"
        }
      ],
      "name": "addTransaction",
      "outputs": [],
      "payable": false,
      "stateMutability": "nonpayable",
      "type": "function"
    },
    {
      "constant": true,
      "inputs": [
        {
          "name": "_fromYear",
          "type": "uint256"
        },
        {
          "name": "_fromQuarter",
          "type": "uint8"
        },
        {
          "name": "_toYear",
          "type": "uint256"
        },
        {
          "name": "_toQuarter",
          "type": "uint8"
        }
      ],
      "name": "getVATDeductions",
      "outputs": [
        {
          "name": "",
          "type": "uint256[]"
        }
      ],
      "payable": false,
      "stateMutability": "view",
      "type": "function"
    },
    {
      "constant": true,
      "inputs": [
        {
          "name": "_fromYear",
          "type": "uint256"
        },
        {
          "name": "_fromQuarter",
          "type": "uint8"
        },
        {
          "name": "_toYear",
          "type": "uint256"
        },
        {
          "name": "_toQuarter",
          "type": "uint8"
        }
      ],
      "name": "getVATCompensations",
      "outputs": [
        {
          "name": "",
          "type": "uint256[]"
        }
      ],
      "payable": false,
      "stateMutability": "view",
      "type": "function"
    },
    {
      "constant": true,
      "inputs": [
        {
          "name": "_year",
          "type": "uint256"
        },
        {
          "name": "_quarter",
          "type": "uint8"
        },
        {
          "name": "_businessOwner",
          "type": "address"
        }
      ],
      "name": "getDeduction",
      "outputs": [
        {
          "name": "",
          "type": "uint256"
        }
      ],
      "payable": false,
      "stateMutability": "view",
      "type": "function"
    },
    {
      "constant": true,
      "inputs": [
        {
          "name": "_year",
          "type": "uint256"
        },
        {
          "name": "_quarter",
          "type": "uint8"
        },
        {
          "name": "_businessOwner",
          "type": "address"
        }
      ],
      "name": "getCompensation",
      "outputs": [
        {
          "name": "",
          "type": "uint256"
        }
      ],
      "payable": false,
      "stateMutability": "view",
      "type": "function"
    },
    {
      "constant": true,
      "inputs": [
        {
          "name": "_transactionID",
          "type": "uint256"
        }
      ],
      "name": "getVATTransactionData",
      "outputs": [
        {
          "name": "",
          "type": "uint256"
        },
        {
          "name": "",
          "type": "uint256"
        },
        {
          "name": "",
          "type": "address"
        },
        {
          "name": "",
          "type": "address"
        },
        {
          "name": "",
          "type": "bool"
        }
      ],
      "payable": false,
      "stateMutability": "view",
      "type": "function"
    }
  ],
  "bytecode": "0x608060405234801561001057600080fd5b50611801806100206000396000f3fe608060405260043610610083576000357c0100000000000000000000000000000000000000000000000000000000900463ffffffff1680630705028c1461008857806318cadf3014610126578063485cc955146101ed5780634888bc111461025e578063710164e7146102da578063842bd2db1461038e578063a7c9771b1461040a575b600080fd5b34801561009457600080fd5b50610124600480360360c08110156100ab57600080fd5b8101908080359060200190929190803573ffffffffffffffffffffffffffffffffffffffff169060200190929190803573ffffffffffffffffffffffffffffffffffffffff16906020019092919080351515906020019092919080359060200190929190803560ff1690602001909291905050506104be565b005b34801561013257600080fd5b5061015f6004803603602081101561014957600080fd5b8101908080359060200190929190505050610d15565b604051808681526020018581526020018473ffffffffffffffffffffffffffffffffffffffff1673ffffffffffffffffffffffffffffffffffffffff1681526020018373ffffffffffffffffffffffffffffffffffffffff1673ffffffffffffffffffffffffffffffffffffffff168152602001821515151581526020019550505050505060405180910390f35b3480156101f957600080fd5b5061025c6004803603604081101561021057600080fd5b81019080803573ffffffffffffffffffffffffffffffffffffffff169060200190929190803573ffffffffffffffffffffffffffffffffffffffff169060200190929190505050610df0565b005b34801561026a57600080fd5b506102c46004803603606081101561028157600080fd5b8101908080359060200190929190803560ff169060200190929190803573ffffffffffffffffffffffffffffffffffffffff169060200190929190505050610fc0565b6040518082815260200191505060405180910390f35b3480156102e657600080fd5b50610337600480360360808110156102fd57600080fd5b8101908080359060200190929190803560ff16906020019092919080359060200190929190803560ff169060200190929190505050611033565b6040518080602001828103825283818151815260200191508051906020019060200280838360005b8381101561037a57808201518184015260208101905061035f565b505050509050019250505060405180910390f35b34801561039a57600080fd5b506103f4600480360360608110156103b157600080fd5b8101908080359060200190929190803560ff169060200190929190803573ffffffffffffffffffffffffffffffffffffffff1690602001909291905050506113c2565b6040518082815260200191505060405180910390f35b34801561041657600080fd5b506104676004803603608081101561042d57600080fd5b8101908080359060200190929190803560ff16906020019092919080359060200190929190803560ff169060200190929190505050611435565b6040518080602001828103825283818151815260200191508051906020019060200280838360005b838110156104aa57808201518184015260208101905061048f565b505050509050019250505060405180910390f35b603860009054906101000a900473ffffffffffffffffffffffffffffffffffffffff1673ffffffffffffffffffffffffffffffffffffffff163373ffffffffffffffffffffffffffffffffffffffff1614151561051a57600080fd5b426034600060335481526020019081526020016000206000018190555085603460006033548152602001908152602001600020600101819055508460346000603354815260200190815260200160002060020160006101000a81548173ffffffffffffffffffffffffffffffffffffffff021916908373ffffffffffffffffffffffffffffffffffffffff1602179055508360346000603354815260200190815260200160002060030160006101000a81548173ffffffffffffffffffffffffffffffffffffffff021916908373ffffffffffffffffffffffffffffffffffffffff1602179055508260346000603354815260200190815260200160002060030160146101000a81548160ff0219169083151502179055506003603760009054906101000a900473ffffffffffffffffffffffffffffffffffffffff1673ffffffffffffffffffffffffffffffffffffffff1663c3c5a547876040518263ffffffff167c0100000000000000000000000000000000000000000000000000000000028152600401808273ffffffffffffffffffffffffffffffffffffffff1673ffffffffffffffffffffffffffffffffffffffff16815260200191505060206040518083038186803b1580156106ef57600080fd5b505afa158015610703573d6000803e3d6000fd5b505050506040513d602081101561071957600080fd5b8101908080519060200190929190505050600381111561073557fe5b141561094c576002603760009054906101000a900473ffffffffffffffffffffffffffffffffffffffff1673ffffffffffffffffffffffffffffffffffffffff1663c3c5a547866040518263ffffffff167c0100000000000000000000000000000000000000000000000000000000028152600401808273ffffffffffffffffffffffffffffffffffffffff1673ffffffffffffffffffffffffffffffffffffffff16815260200191505060206040518083038186803b1580156107f857600080fd5b505afa15801561080c573d6000803e3d6000fd5b505050506040513d602081101561082257600080fd5b8101908080519060200190929190505050600381111561083e57fe5b1415156108d9576040517f08c379a00000000000000000000000000000000000000000000000000000000081526004018080602001828103825260238152602001807f4f6e6c7920627573696e6573732063616e2070617920717561727465726c792081526020017f564154000000000000000000000000000000000000000000000000000000000081525060400191505060405180910390fd5b6033546036600084815260200190815260200160002060008360ff1660ff16815260200190815260200160002060008673ffffffffffffffffffffffffffffffffffffffff1673ffffffffffffffffffffffffffffffffffffffff16815260200190815260200160002081905550610cfb565b6003603760009054906101000a900473ffffffffffffffffffffffffffffffffffffffff1673ffffffffffffffffffffffffffffffffffffffff1663c3c5a547866040518263ffffffff167c0100000000000000000000000000000000000000000000000000000000028152600401808273ffffffffffffffffffffffffffffffffffffffff1673ffffffffffffffffffffffffffffffffffffffff16815260200191505060206040518083038186803b158015610a0957600080fd5b505afa158015610a1d573d6000803e3d6000fd5b505050506040513d6020811015610a3357600080fd5b81019080805190602001909291905050506003811115610a4f57fe5b1415610c66576002603760009054906101000a900473ffffffffffffffffffffffffffffffffffffffff1673ffffffffffffffffffffffffffffffffffffffff1663c3c5a547876040518263ffffffff167c0100000000000000000000000000000000000000000000000000000000028152600401808273ffffffffffffffffffffffffffffffffffffffff1673ffffffffffffffffffffffffffffffffffffffff16815260200191505060206040518083038186803b158015610b1257600080fd5b505afa158015610b26573d6000803e3d6000fd5b505050506040513d6020811015610b3c57600080fd5b81019080805190602001909291905050506003811115610b5857fe5b141515610bf3576040517f08c379a00000000000000000000000000000000000000000000000000000000081526004018080602001828103825260238152602001807f4f6e6c7920627573696e6573732063616e2070617920717561727465726c792081526020017f564154000000000000000000000000000000000000000000000000000000000081525060400191505060405180910390fd5b6033546035600084815260200190815260200160002060008360ff1660ff16815260200190815260200160002060008773ffffffffffffffffffffffffffffffffffffffff1673ffffffffffffffffffffffffffffffffffffffff16815260200190815260200160002081905550610cfa565b6040517f08c379a00000000000000000000000000000000000000000000000000000000081526004018080602001828103825260398152602001807f4e6569746865722074686520616464726573736572206e6f722074686520616481526020017f647265737365652069732074686520676f7665726e6d656e740000000000000081525060400191505060405180910390fd5b5b603360008154809291906001019190505550505050505050565b6000806000806000603460008781526020019081526020016000206001015460346000888152602001908152602001600020600001546034600089815260200190815260200160002060020160009054906101000a900473ffffffffffffffffffffffffffffffffffffffff16603460008a815260200190815260200160002060030160009054906101000a900473ffffffffffffffffffffffffffffffffffffffff16603460008b815260200190815260200160002060030160149054906101000a900460ff169450945094509450945091939590929450565b600060019054906101000a900460ff1680610e0f5750610e0e6117c4565b5b80610e2657506000809054906101000a900460ff16155b1515610ec0576040517f08c379a000000000000000000000000000000000000000000000000000000000815260040180806020018281038252602e8152602001807f436f6e747261637420696e7374616e63652068617320616c726561647920626581526020017f656e20696e697469616c697a656400000000000000000000000000000000000081525060400191505060405180910390fd5b60008060019054906101000a900460ff161590508015610f10576001600060016101000a81548160ff02191690831515021790555060016000806101000a81548160ff0219169083151502179055505b82603760006101000a81548173ffffffffffffffffffffffffffffffffffffffff021916908373ffffffffffffffffffffffffffffffffffffffff16021790555081603860006101000a81548173ffffffffffffffffffffffffffffffffffffffff021916908373ffffffffffffffffffffffffffffffffffffffff16021790555060016033819055508015610fbb5760008060016101000a81548160ff0219169083151502179055505b505050565b60006036600085815260200190815260200160002060008460ff1660ff16815260200190815260200160002060008373ffffffffffffffffffffffffffffffffffffffff1673ffffffffffffffffffffffffffffffffffffffff1681526020019081526020016000205490509392505050565b606060008490506000600490506060603760009054906101000a900473ffffffffffffffffffffffffffffffffffffffff1673ffffffffffffffffffffffffffffffffffffffff1663bb4a7f186040518163ffffffff167c010000000000000000000000000000000000000000000000000000000002815260040160006040518083038186803b1580156110c657600080fd5b505afa1580156110da573d6000803e3d6000fd5b505050506040513d6000823e3d601f19601f82011682018060405250602081101561110457600080fd5b81019080805164010000000081111561111c57600080fd5b8281019050602081018481111561113257600080fd5b815185602082028301116401000000008211171561114f57600080fd5b50509291905050509050606060335460405190808252806020026020018201604052801561118c5781602001602082028038833980820191505090505b509050600080905060008a90505b888111151561132c57888114156111af578794505b60008690505b8560ff168160ff1611151561131a5760008090505b855181101561130c5760006036600085815260200190815260200160002060008460ff1660ff1681526020019081526020016000206000888481518110151561120f57fe5b9060200190602002015173ffffffffffffffffffffffffffffffffffffffff1673ffffffffffffffffffffffffffffffffffffffff168152602001908152602001600020541415156112ff576036600084815260200190815260200160002060008360ff1660ff1681526020019081526020016000206000878381518110151561129557fe5b9060200190602002015173ffffffffffffffffffffffffffffffffffffffff1673ffffffffffffffffffffffffffffffffffffffff1681526020019081526020016000205485858151811015156112e857fe5b906020019060200201818152505083806001019450505b80806001019150506111ca565b5080806001019150506111b5565b5060019550808060010191505061119a565b5060608160405190808252806020026020018201604052801561135e5781602001602082028038833980820191505090505b50905060008090505b828110156113b057838181518110151561137d57fe5b90602001906020020151828281518110151561139557fe5b90602001906020020181815250508080600101915050611367565b50809650505050505050949350505050565b60006035600085815260200190815260200160002060008460ff1660ff16815260200190815260200160002060008373ffffffffffffffffffffffffffffffffffffffff1673ffffffffffffffffffffffffffffffffffffffff1681526020019081526020016000205490509392505050565b606060008490506000600490506060603760009054906101000a900473ffffffffffffffffffffffffffffffffffffffff1673ffffffffffffffffffffffffffffffffffffffff1663bb4a7f186040518163ffffffff167c010000000000000000000000000000000000000000000000000000000002815260040160006040518083038186803b1580156114c857600080fd5b505afa1580156114dc573d6000803e3d6000fd5b505050506040513d6000823e3d601f19601f82011682018060405250602081101561150657600080fd5b81019080805164010000000081111561151e57600080fd5b8281019050602081018481111561153457600080fd5b815185602082028301116401000000008211171561155157600080fd5b50509291905050509050606060335460405190808252806020026020018201604052801561158e5781602001602082028038833980820191505090505b509050600080905060008a90505b888111151561172e57888114156115b1578794505b60008690505b8560ff168160ff1611151561171c5760008090505b855181101561170e5760006035600085815260200190815260200160002060008460ff1660ff1681526020019081526020016000206000888481518110151561161157fe5b9060200190602002015173ffffffffffffffffffffffffffffffffffffffff1673ffffffffffffffffffffffffffffffffffffffff16815260200190815260200160002054141515611701576035600084815260200190815260200160002060008360ff1660ff1681526020019081526020016000206000878381518110151561169757fe5b9060200190602002015173ffffffffffffffffffffffffffffffffffffffff1673ffffffffffffffffffffffffffffffffffffffff1681526020019081526020016000205485858151811015156116ea57fe5b906020019060200201818152505083806001019450505b80806001019150506115cc565b5080806001019150506115b7565b5060019550808060010191505061159c565b506060816040519080825280602002602001820160405280156117605781602001602082028038833980820191505090505b50905060008090505b828110156117b257838181518110151561177f57fe5b90602001906020020151828281518110151561179757fe5b90602001906020020181815250508080600101915050611769565b50809650505050505050949350505050565b600080303b9050600081149150509056fea165627a7a72305820f32ed7cfba26dc36afb3880ce91bb377c72bc0b021a48815be2db513bccfdc130029",
  "source": "pragma solidity >= 0.5.0;\n\nimport \"zos-lib/contracts/Initializable.sol\";\n\nimport \"./UserManager.sol\";\nimport \"./BPBDateTimeLibrary.sol\";\nimport \"./BusinessOwner.sol\";\nimport \"./VAT.sol\";\n\ncontract VATTransaction is Initializable{\n    using BPBDateTimeLibrary for uint;\n\n    struct vatTransaction {\n        uint256 date;\n        uint256 amount;\n        address addresser;\n        address addressee;\n        bool refused;\n    }\n\n    uint256 private nextTransaction;\n    mapping(uint256 => vatTransaction) private transactionData;\n    mapping(uint256 => mapping(uint8 => mapping(address => uint))) private VATDeductions;\n    mapping(uint256 => mapping(uint8 => mapping(address => uint))) private VATCompensations;\n    UserManager internal userManager;\n    VAT internal vat;\n\n    /**\n    * @dev Initializes the contract saving the instances of the proxies of the contracts used by this contract\n    * @param _vat The instance of the proxy of the VAT contract of this project\n    * @param _userManager The instance of the proxy of the UserManager contract of this project\n    */\n    function initialize(address _userManager, address _vat) initializer public {\n        userManager = UserManager(_userManager);\n        vat = VAT(_vat);\n        nextTransaction = 1;\n    }\n\n    /**\n    * @dev Checks that only the VAT contract can call a function\n    */\n    modifier onlyVATContract() {\n        require(msg.sender == address(vat));\n        _;\n    }\n\n    /**\n    * @dev Stores the data of a new transaction associated with the paying of the VAT of a single business owner in given quarter\n    * @param _amount The amount in Cubit cents that was payed\n    * @param _addresser The address of the paying user\n    * @param _addressee The address of the payed user\n    * @param _refused A boolean value that indicates if the transaction stands for the refusal of a payment\n    * @param _year The year of the quarter\n    * @param _quarter The quarter (1-4) in the given year\n    */\n    function addTransaction(uint256 _amount, address _addresser, address _addressee, bool _refused, uint256 _year, uint8 _quarter) public onlyVATContract {\n        transactionData[nextTransaction].date = now;\n        transactionData[nextTransaction].amount = _amount;\n        transactionData[nextTransaction].addresser = _addresser;\n        transactionData[nextTransaction].addressee = _addressee;\n        transactionData[nextTransaction].refused = _refused;\n\n        if(uint(userManager.isRegistered(_addresser)) == 3) {\n            require(uint(userManager.isRegistered(_addressee)) == 2, \"Only business can pay quarterly VAT\");\n            VATCompensations[_year][_quarter][_addressee] =\n                nextTransaction;\n        }else if (uint(userManager.isRegistered(_addressee)) == 3) {\n            require(uint(userManager.isRegistered(_addresser)) == 2, \"Only business can pay quarterly VAT\");\n            VATDeductions[_year][_quarter][_addresser] =\n                nextTransaction;\n        }else { revert(\"Neither the addresser nor the addressee is the government\"); }\n        nextTransaction ++;\n    }\n\n    /**\n    * @dev Returns all the vat deductions in a given period of time (for all users)\n    * @param _fromYear The year of the starting quarter\n    * @param _fromQuarter The starting quarter (1-4) in the given year\n    * @param _toYear The year of the ending quarter\n    * @param _toQuarter The ending quarter (1-4) in the given year\n    */\n    function getVATDeductions(uint256 _fromYear, uint8 _fromQuarter, uint256 _toYear, uint8 _toQuarter) view public returns(uint256[] memory) {\n        uint8 start = _fromQuarter;\n        uint8 end = 4;\n        address[] memory allBusinessOwners = userManager.getAllBusinessOwners();\n        uint256[] memory temporaryTransactions = new uint256[](nextTransaction);\n        uint256 nextTemporaryTransaction = 0;\n        for(uint256 y = _fromYear; y <= _toYear; y++) {\n            if(y == _toYear)\n                end = _toQuarter;\n            for(uint8 q = start; q <= end; q++) {\n                for(uint256 b = 0; b < allBusinessOwners.length; b++) {\n                    if(VATDeductions[y][q][allBusinessOwners[b]] != 0x0) {\n                        temporaryTransactions[nextTemporaryTransaction] = VATDeductions[y][q][allBusinessOwners[b]];\n                        nextTemporaryTransaction ++;\n                    }\n                }\n            }\n            start = 1;\n        }\n\n        uint256[] memory returnTransactions = new uint256[](nextTemporaryTransaction);\n        for(uint256 i = 0; i < nextTemporaryTransaction; i++) {\n            returnTransactions[i] = temporaryTransactions[i];\n        }\n        return returnTransactions;\n    }\n\n    /**\n    * @dev Returns all the vat compensations in a given period of time (for all users)\n    * @param _fromYear The year of the starting quarter\n    * @param _fromQuarter The starting quarter (1-4) in the given year\n    * @param _toYear The year of the ending quarter\n    * @param _toQuarter The ending quarter (1-4) in the given year\n    */\n    function getVATCompensations(uint256 _fromYear, uint8 _fromQuarter, uint256 _toYear, uint8 _toQuarter) view public returns(uint256[] memory) {\n        uint8 start = _fromQuarter;\n        uint8 end = 4;\n        address[] memory allBusinessOwners = userManager.getAllBusinessOwners();\n        uint256[] memory temporaryTransactions = new uint256[](nextTransaction);\n        uint256 nextTemporaryTransaction = 0;\n        for(uint256 y = _fromYear; y <= _toYear; y++) {\n            if(y == _toYear)\n                end = _toQuarter;\n            for(uint8 q = start; q <= end; q++) {\n                for(uint256 b = 0; b < allBusinessOwners.length; b++) {\n                    if(VATCompensations[y][q][allBusinessOwners[b]] != 0x0) {\n                        temporaryTransactions[nextTemporaryTransaction] = VATCompensations[y][q][allBusinessOwners[b]];\n                        nextTemporaryTransaction++;\n                    }\n                }\n            }\n            start = 1;\n        }\n\n        uint256[] memory returnTransactions = new uint256[](nextTemporaryTransaction);\n        for(uint256 i = 0; i < nextTemporaryTransaction; i++) {\n            returnTransactions[i] = temporaryTransactions[i];\n        }\n        return returnTransactions;\n\n    }\n\n    /**\n    * @dev Returns the id of the deduction in a given quarter for a given business address\n    * @param _year The year of the quarter\n    * @param _quarter The quarter (1-4) in the given year\n    */\n    function getDeduction(uint256 _year, uint8 _quarter, address _businessOwner)view public returns(uint256)\n    {\n        return VATDeductions[_year][_quarter][_businessOwner];\n    }\n\n    /**\n    * @dev Returns the id of the compensation in a given quarter for a given business address\n    * @param _year The year of the quarter\n    * @param _quarter The quarter (1-4) in the given year\n    */\n    function getCompensation(uint256 _year, uint8 _quarter, address _businessOwner)view public returns(uint256)\n    {\n        return VATCompensations[_year][_quarter][_businessOwner];\n    }\n\n\n    /**\n    * @dev Returns the data of a given transaction given the id\n    * @param _transactionID The id of the transaction\n    */\n    function getVATTransactionData(uint256 _transactionID) view public returns(uint256, uint256, address, address, bool){\n        return(transactionData[_transactionID].amount,\n                transactionData[_transactionID].date,\n                transactionData[_transactionID].addresser,\n                transactionData[_transactionID].addressee,\n                transactionData[_transactionID].refused);\n    }\n}\n",
  "sourcePath": "/home/nicolabba/WebstormProjects/The-Walking-Bug/Soldino/contracts/VATTransaction.sol",
  "compiler": {
    "name": "solc",
    "version": "0.5.0+commit.1d4f565a.Emscripten.clang"
  },
  "schemaVersion": "3.0.6",
  "updatedAt": "2019-05-16T08:34:01.704Z",
  "devdoc": {
    "methods": {
      "addTransaction(uint256,address,address,bool,uint256,uint8)": {
        "details": "Stores the data of a new transaction associated with the paying of the VAT of a single business owner in given quarter",
        "params": {
          "_addressee": "The address of the payed user",
          "_addresser": "The address of the paying user",
          "_amount": "The amount in Cubit cents that was payed",
          "_quarter": "The quarter (1-4) in the given year",
          "_refused": "A boolean value that indicates if the transaction stands for the refusal of a payment",
          "_year": "The year of the quarter"
        }
      },
      "getCompensation(uint256,uint8,address)": {
        "details": "Returns the id of the compensation in a given quarter for a given business address",
        "params": {
          "_quarter": "The quarter (1-4) in the given year",
          "_year": "The year of the quarter"
        }
      },
      "getDeduction(uint256,uint8,address)": {
        "details": "Returns the id of the deduction in a given quarter for a given business address",
        "params": {
          "_quarter": "The quarter (1-4) in the given year",
          "_year": "The year of the quarter"
        }
      },
      "getVATCompensations(uint256,uint8,uint256,uint8)": {
        "details": "Returns all the vat compensations in a given period of time (for all users)",
        "params": {
          "_fromQuarter": "The starting quarter (1-4) in the given year",
          "_fromYear": "The year of the starting quarter",
          "_toQuarter": "The ending quarter (1-4) in the given year",
          "_toYear": "The year of the ending quarter"
        }
      },
      "getVATDeductions(uint256,uint8,uint256,uint8)": {
        "details": "Returns all the vat deductions in a given period of time (for all users)",
        "params": {
          "_fromQuarter": "The starting quarter (1-4) in the given year",
          "_fromYear": "The year of the starting quarter",
          "_toQuarter": "The ending quarter (1-4) in the given year",
          "_toYear": "The year of the ending quarter"
        }
      },
      "getVATTransactionData(uint256)": {
        "details": "Returns the data of a given transaction given the id",
        "params": {
          "_transactionID": "The id of the transaction"
        }
      },
      "initialize(address,address)": {
        "details": "Initializes the contract saving the instances of the proxies of the contracts used by this contract",
        "params": {
          "_userManager": "The instance of the proxy of the UserManager contract of this project",
          "_vat": "The instance of the proxy of the VAT contract of this project"
        }
      }
    }
  },
  "userdoc": {
    "methods": {}
  }
}